{"src/DadChainCore.sol":{"DadChainCore":{"abi":[{"inputs":[{"internalType":"address","name":"_usdcTokenAddress","type":"address"}],"stateMutability":"nonpayable","type":"constructor"},{"inputs":[{"internalType":"address","name":"owner","type":"address"}],"name":"OwnableInvalidOwner","type":"error"},{"inputs":[{"internalType":"address","name":"account","type":"address"}],"name":"OwnableUnauthorizedAccount","type":"error"},{"anonymous":false,"inputs":[{"indexed":true,"internalType":"address","name":"user","type":"address"},{"indexed":true,"internalType":"uint256","name":"badgeId","type":"uint256"}],"name":"BadgeClaimed","type":"event"},{"anonymous":false,"inputs":[{"indexed":true,"internalType":"uint256","name":"jokeId","type":"uint256"},{"indexed":true,"internalType":"address","name":"liker","type":"address"}],"name":"JokeLiked","type":"event"},{"anonymous":false,"inputs":[{"indexed":true,"internalType":"uint256","name":"jokeId","type":"uint256"},{"indexed":true,"internalType":"address","name":"creator","type":"address"},{"indexed":false,"internalType":"string","name":"content","type":"string"}],"name":"JokeSubmitted","type":"event"},{"anonymous":false,"inputs":[{"indexed":true,"internalType":"uint256","name":"jokeId","type":"uint256"},{"indexed":true,"internalType":"address","name":"tipper","type":"address"},{"indexed":true,"internalType":"address","name":"creator","type":"address"},{"indexed":false,"internalType":"uint256","name":"amount","type":"uint256"}],"name":"JokeTipped","type":"event"},{"anonymous":false,"inputs":[{"indexed":true,"internalType":"address","name":"previousOwner","type":"address"},{"indexed":true,"internalType":"address","name":"newOwner","type":"address"}],"name":"OwnershipTransferred","type":"event"},{"inputs":[{"internalType":"uint256","name":"_badgeId","type":"uint256"}],"name":"claimBadge","outputs":[],"stateMutability":"nonpayable","type":"function"},{"inputs":[{"internalType":"uint256","name":"_cursor","type":"uint256"},{"internalType":"uint256","name":"_pageSize","type":"uint256"}],"name":"getJokesPaginated","outputs":[{"components":[{"internalType":"uint256","name":"id","type":"uint256"},{"internalType":"address","name":"creator","type":"address"},{"internalType":"string","name":"content","type":"string"},{"internalType":"uint256","name":"timestamp","type":"uint256"},{"internalType":"uint256","name":"likeCount","type":"uint256"},{"internalType":"uint256","name":"tipAmount","type":"uint256"}],"internalType":"struct DadChainCore.Joke[]","name":"","type":"tuple[]"}],"stateMutability":"view","type":"function"},{"inputs":[{"internalType":"address","name":"_user","type":"address"}],"name":"getUserProfile","outputs":[{"internalType":"uint256","name":"","type":"uint256"},{"internalType":"uint256","name":"","type":"uint256"},{"internalType":"uint256","name":"","type":"uint256"}],"stateMutability":"view","type":"function"},{"inputs":[{"internalType":"uint256","name":"","type":"uint256"},{"internalType":"address","name":"","type":"address"}],"name":"hasLiked","outputs":[{"internalType":"bool","name":"","type":"bool"}],"stateMutability":"view","type":"function"},{"inputs":[{"internalType":"uint256","name":"","type":"uint256"}],"name":"jokes","outputs":[{"internalType":"uint256","name":"id","type":"uint256"},{"internalType":"address","name":"creator","type":"address"},{"internalType":"string","name":"content","type":"string"},{"internalType":"uint256","name":"timestamp","type":"uint256"},{"internalType":"uint256","name":"likeCount","type":"uint256"},{"internalType":"uint256","name":"tipAmount","type":"uint256"}],"stateMutability":"view","type":"function"},{"inputs":[{"internalType":"uint256","name":"_jokeId","type":"uint256"}],"name":"likeJoke","outputs":[],"stateMutability":"nonpayable","type":"function"},{"inputs":[],"name":"nftContractAddress","outputs":[{"internalType":"address","name":"","type":"address"}],"stateMutability":"view","type":"function"},{"inputs":[],"name":"owner","outputs":[{"internalType":"address","name":"","type":"address"}],"stateMutability":"view","type":"function"},{"inputs":[],"name":"renounceOwnership","outputs":[],"stateMutability":"nonpayable","type":"function"},{"inputs":[{"internalType":"address","name":"_nftContractAddress","type":"address"}],"name":"setNftContractAddress","outputs":[],"stateMutability":"nonpayable","type":"function"},{"inputs":[{"internalType":"string","name":"_content","type":"string"}],"name":"submitJoke","outputs":[],"stateMutability":"nonpayable","type":"function"},{"inputs":[{"internalType":"uint256","name":"_jokeId","type":"uint256"},{"internalType":"uint256","name":"_amount","type":"uint256"}],"name":"tipJoke","outputs":[],"stateMutability":"nonpayable","type":"function"},{"inputs":[],"name":"totalJokes","outputs":[{"internalType":"uint256","name":"","type":"uint256"}],"stateMutability":"view","type":"function"},{"inputs":[],"name":"totalTips","outputs":[{"internalType":"uint256","name":"","type":"uint256"}],"stateMutability":"view","type":"function"},{"inputs":[],"name":"totalUsers","outputs":[{"internalType":"uint256","name":"","type":"uint256"}],"stateMutability":"view","type":"function"},{"inputs":[{"internalType":"address","name":"newOwner","type":"address"}],"name":"transferOwnership","outputs":[],"stateMutability":"nonpayable","type":"function"},{"inputs":[],"name":"usdcToken","outputs":[{"internalType":"contract IERC20","name":"","type":"address"}],"stateMutability":"view","type":"function"},{"inputs":[{"internalType":"address","name":"","type":"address"}],"name":"userProfiles","outputs":[{"internalType":"uint256","name":"jokeCount","type":"uint256"},{"internalType":"uint256","name":"totalLikesReceived","type":"uint256"},{"internalType":"uint256","name":"totalTipsReceived","type":"uint256"}],"stateMutability":"view","type":"function"}],"evm":{"bytecode":{"linkReferences":{},"object":"60806040523480156200001157600080fd5b506040516200340f3803806200340f833981810160405281019062000037919062000270565b33600073ffffffffffffffffffffffffffffffffffffffff168173ffffffffffffffffffffffffffffffffffffffff1603620000ad5760006040517f1e4fbdf7000000000000000000000000000000000000000000000000000000008152600401620000a49190620002b3565b60405180910390fd5b620000be816200013f60201b60201c565b50620000db67374147445b1ac2cc60c01b6200020360201b60201c565b620000f767ff9c0778a23372eb60c01b6200020360201b60201c565b80600160006101000a81548173ffffffffffffffffffffffffffffffffffffffff021916908373ffffffffffffffffffffffffffffffffffffffff16021790555050620002d0565b60008060009054906101000a900473ffffffffffffffffffffffffffffffffffffffff169050816000806101000a81548173ffffffffffffffffffffffffffffffffffffffff021916908373ffffffffffffffffffffffffffffffffffffffff1602179055508173ffffffffffffffffffffffffffffffffffffffff168173ffffffffffffffffffffffffffffffffffffffff167f8be0079c531659141344cd1fd0a4f28419497f9722a3daafe3b4186f6b6457e060405160405180910390a35050565b50565b600080fd5b600073ffffffffffffffffffffffffffffffffffffffff82169050919050565b600062000238826200020b565b9050919050565b6200024a816200022b565b81146200025657600080fd5b50565b6000815190506200026a816200023f565b92915050565b60006020828403121562000289576200028862000206565b5b6000620002998482850162000259565b91505092915050565b620002ad816200022b565b82525050565b6000602082019050620002ca6000830184620002a2565b92915050565b61312f80620002e06000396000f3fe608060405234801561001057600080fd5b50600436106101165760003560e01c8063987ee156116100a2578063bff1f9e111610071578063bff1f9e1146102ea578063da31d64014610308578063ebdd374814610324578063f2fde38b14610342578063f8085c281461035e57610116565b8063987ee15614610247578063990de8ae14610279578063a64d499814610297578063aae282e1146102cc57610116565b8063332d56d7116100e9578063332d56d7146101a1578063715018a6146101d35780638070e600146101dd5780638da5cb5b146101f95780638fb7092c1461021757610116565b80630283a03a1461011b57806311eac855146101375780631810e77a146101555780632341513514610185575b600080fd5b6101356004803603810190610130919061229c565b61037a565b005b61013f6105f5565b60405161014c9190612364565b60405180910390f35b61016f600480360381019061016a91906123b5565b61061b565b60405161017c91906125ef565b60405180910390f35b61019f600480360381019061019a9190612611565b6109fd565b005b6101bb60048036038101906101b6919061266a565b611058565b6040516101ca939291906126a6565b60405180910390f35b6101db611082565b005b6101f760048036038101906101f291906123b5565b611096565b005b61020161163b565b60405161020e91906126ec565b60405180910390f35b610231600480360381019061022c9190612707565b611664565b60405161023e9190612762565b60405180910390f35b610261600480360381019061025c919061266a565b611693565b604051610270939291906126a6565b60405180910390f35b61028161175c565b60405161028e919061277d565b60405180910390f35b6102b160048036038101906102ac9190612611565b611762565b6040516102c3969594939291906127e2565b60405180910390f35b6102d4611846565b6040516102e191906126ec565b60405180910390f35b6102f261186c565b6040516102ff919061277d565b60405180910390f35b610322600480360381019061031d919061266a565b611872565b005b61032c61190e565b604051610339919061277d565b60405180910390f35b61035c6004803603810190610357919061266a565b611914565b005b61037860048036038101906103739190612611565b61199a565b005b61038e67e26b501fef4f3b9f60c01b611e38565b6103a267f846a34ae9b0875460c01b611e38565b6103b667bf770a00ca8ab64560c01b611e38565b6103bf33611e3b565b6103d367b4144ee048f48d6060c01b611e38565b600760008154809291906103e690612879565b91905055506103ff67c141c80ada59d66360c01b611e38565b61041367303c38153ec9a28f60c01b611e38565b6000600754905061042e678437d731b58832e460c01b611e38565b6040518060c001604052808281526020013373ffffffffffffffffffffffffffffffffffffffff168152602001838152602001428152602001600081526020016000815250600360008381526020019081526020016000206000820151816000015560208201518160010160006101000a81548173ffffffffffffffffffffffffffffffffffffffff021916908373ffffffffffffffffffffffffffffffffffffffff16021790555060408201518160020190816104ec9190612ac3565b50606082015181600301556080820151816004015560a082015181600501559050506105226749e4ba7e6df9a63460c01b611e38565b600460003373ffffffffffffffffffffffffffffffffffffffff1673ffffffffffffffffffffffffffffffffffffffff168152602001908152602001600020600001600081548092919061057590612879565b919050555061058e6723f8d67c24ef9bc360c01b611e38565b6105a26793bfa8d7acf31e8660c01b611e38565b3373ffffffffffffffffffffffffffffffffffffffff16817f24486924eacd07687dccf5c775fa30be15faa7aea35002f47ca0b468f3e2729b846040516105e99190612b95565b60405180910390a35050565b600160009054906101000a900473ffffffffffffffffffffffffffffffffffffffff1681565b6060610631677cfd9f6864ae875260c01b611e38565b610645673d4870f44762526f60c01b611e38565b610659672d045eee35ede51160c01b611e38565b6000829050610672677792b49177ecdc6060c01b611e38565b61068667fe86c326f7b7685860c01b611e38565b600080851480156106a757506106a6670daf1de37270525660c01b611f91565b5b806106cf5750600754851180156106ce57506106cd67a861d0643eb31eb660c01b611f91565b5b5b806106ea57506106e967f5cbb845bd0c978b60c01b611f9c565b5b8015610706575061070567a2e10e6ef1ef2dc560c01b611f91565b5b61071c576001856107179190612bb7565b610720565b6007545b9050610736679794e8d0c2cc6aea60c01b611e38565b61074a6744b249018473031360c01b611e38565b8082111561078257610766675082461dbe7886b260c01b611e38565b61077a6701285dbf3b30faed60c01b611e38565b809150610797565b610796672635159d8087249e60c01b611e38565b5b6107ab67f631965575deaee660c01b611e38565b6107bf6716b8d8fc02a4eb7860c01b611e38565b60008267ffffffffffffffff8111156107db576107da612171565b5b60405190808252806020026020018201604052801561081457816020015b6108016120f6565b8152602001906001900390816107f95790505b50905061082b67a22ea34468ca858360c01b611e38565b61083f672374c262a78ca79660c01b611e38565b60005b838110156109c85761085e67ebbe5a8d0e1296ce60c01b611e38565b60036000828561086e9190612bb7565b81526020019081526020016000206040518060c0016040529081600082015481526020016001820160009054906101000a900473ffffffffffffffffffffffffffffffffffffffff1673ffffffffffffffffffffffffffffffffffffffff1673ffffffffffffffffffffffffffffffffffffffff1681526020016002820180546108f7906128f0565b80601f0160208091040260200160405190810160405280929190818152602001828054610923906128f0565b80156109705780601f1061094557610100808354040283529160200191610970565b820191906000526020600020905b81548152906001019060200180831161095357829003601f168201915b5050505050815260200160038201548152602001600482015481526020016005820154815250508282815181106109aa576109a9612beb565b5b602002602001018190525080806109c090612879565b915050610842565b506109dd670c7ef62643d8894460c01b611e38565b6109f167ee857b73311887b860c01b611e38565b80935050505092915050565b610a1167dc58fdfa7644e53560c01b611e38565b610a2567105cd185cac7e4ba60c01b611e38565b610a3967370c99e7ec11c9e660c01b611e38565b610a4d6733c020f31afa87b160c01b611e38565b600073ffffffffffffffffffffffffffffffffffffffff16600260009054906101000a900473ffffffffffffffffffffffffffffffffffffffff1673ffffffffffffffffffffffffffffffffffffffff1603610ade576040517f08c379a0000000000000000000000000000000000000000000000000000000008152600401610ad590612c66565b60405180910390fd5b610af2673b34da9ddeef2a3e60c01b611e38565b610b06676f1f56213ecda15a60c01b611e38565b610b1a67e833f26a62b10e8d60c01b611e38565b6000600460003373ffffffffffffffffffffffffffffffffffffffff1673ffffffffffffffffffffffffffffffffffffffff1681526020019081526020016000209050610b7167eca3e44f37f6094760c01b611e38565b610b8567184fc756b99c3b4460c01b611e38565b610b99676074bf75fae518bd60c01b611e38565b80600301600083815260200190815260200160002060009054906101000a900460ff1615610bfc576040517f08c379a0000000000000000000000000000000000000000000000000000000008152600401610bf390612cd2565b60405180910390fd5b610c1067e39f2a257a26c82760c01b611e38565b610c24679bb8d684fb7b2c6560c01b611e38565b610c38679ba3a2e95e96f64c60c01b611e38565b6000610c4e67b4cd9dd2aeb9be7160c01b611e38565b610c626767084111b050376260c01b611e38565b60018303610ce957610c7e670a7fdc327fc5693b60c01b611e38565b610c9267b6f2f9b46dd1948460c01b611e38565b610ca6676b6bb4a0a51a315660c01b611e38565b6001826000015410610ccf57610cc6670bceb6c7223d848e60c01b611e38565b60019050610ce4565b610ce36728ffaadfe4f5b4fc60c01b611e38565b5b610e5e565b610cfd6715972bc05cfbadd260c01b611e38565b610d1167c4fff1cf6bb1397f60c01b611e38565b60028303610d9857610d2d670a39bd33d4eefdb760c01b611e38565b610d416794f1592249232be560c01b611e38565b610d55673e4a31f82de83e0760c01b611e38565b6005826000015410610d7e57610d7567bc988067c4dc8bbf60c01b611e38565b60019050610d93565b610d9267977005c080bd3e6d60c01b611e38565b5b610e5d565b610dac67238ba7a4fb2acbbf60c01b611e38565b610dc0678b96ac5e2fff2aad60c01b611e38565b60038303610e4757610ddc67263b2c42af90978160c01b611e38565b610df0677cf9c53b1d4c116360c01b611e38565b610e0467a2eacdb98a7e541960c01b611e38565b600a826000015410610e2d57610e246704999a9073127ca760c01b611e38565b60019050610e42565b610e4167c74fe2b9d91e9b4160c01b611e38565b5b610e5c565b610e5b678556177559288e4660c01b611e38565b5b5b5b610e72675b80a8dd875f49c560c01b611e38565b610e8667e7dbe7eba6dffc0160c01b611e38565b610e9a678045f986ba2dfcbb60c01b611e38565b80610eda576040517f08c379a0000000000000000000000000000000000000000000000000000000008152600401610ed190612d3e565b60405180910390fd5b610eee67f0ec77823be17d0160c01b611e38565b610f0267ccc8e75afacbf5ff60c01b611e38565b600182600301600085815260200190815260200160002060006101000a81548160ff021916908315150217905550610f4467e26e5d86c2fbb0e360c01b611e38565b610f586798514dbbe101a8bf60c01b611e38565b600260009054906101000a900473ffffffffffffffffffffffffffffffffffffffff1673ffffffffffffffffffffffffffffffffffffffff166340c10f1933856040518363ffffffff1660e01b8152600401610fb5929190612d5e565b600060405180830381600087803b158015610fcf57600080fd5b505af1158015610fe3573d6000803e3d6000fd5b50505050610ffb6743f4324e28daa2e960c01b611e38565b61100f6787616f287fca150260c01b611e38565b823373ffffffffffffffffffffffffffffffffffffffff167fbdaec09f93a9e010d98b043dd79efaaa052a0eed6b10c9ffe87c8f7e256da56f60405160405180910390a3505050565b60046020528060005260406000206000915090508060000154908060010154908060020154905083565b61108a611fa3565b611094600061202a565b565b6110aa671c818c73f76d0f4160c01b611e38565b6110be6724f834c05185d30860c01b611e38565b6110d2677fafa5d15b3f025860c01b611e38565b6110e6674e32fa1a5645308a60c01b611e38565b600060036000848152602001908152602001600020600001540361113f576040517f08c379a000000000000000000000000000000000000000000000000000000000815260040161113690612dd3565b60405180910390fd5b611153672d7eb345e092a0c460c01b611e38565b611167670e5c4f1c7f40f30e60c01b611e38565b61117b67a584a98f5008bfe660c01b611e38565b61118f670abeca1fc2f9b84660c01b611e38565b600081116111d2576040517f08c379a00000000000000000000000000000000000000000000000000000000081526004016111c990612e65565b60405180910390fd5b6111e6677688887a3c14bc0b60c01b611e38565b6111fa6739c7efb0ec85d43460c01b611e38565b61120e67dac76bec70059f3d60c01b611e38565b61122267b767a8cc5527663c60c01b611e38565b3373ffffffffffffffffffffffffffffffffffffffff166003600084815260200190815260200160002060010160009054906101000a900473ffffffffffffffffffffffffffffffffffffffff1673ffffffffffffffffffffffffffffffffffffffff16036112c6576040517f08c379a00000000000000000000000000000000000000000000000000000000081526004016112bd90612ed1565b60405180910390fd5b6112da67474c8ae8769ef58660c01b611e38565b6112ee67ea841abc12abc18660c01b611e38565b61130267fe233abee8e9748160c01b611e38565b61130b33611e3b565b61131f67140e881c5dd0dfc960c01b611e38565b611333679a92265c2df8d85c60c01b611e38565b60006003600084815260200190815260200160002060010160009054906101000a900473ffffffffffffffffffffffffffffffffffffffff1690506113826787477fbe2205355160c01b611e38565b611396675de960645f42849360c01b611e38565b6000600160009054906101000a900473ffffffffffffffffffffffffffffffffffffffff1673ffffffffffffffffffffffffffffffffffffffff166323b872dd3384866040518463ffffffff1660e01b81526004016113f793929190612ef1565b6020604051808303816000875af1158015611416573d6000803e3d6000fd5b505050506040513d601f19601f8201168201806040525081019061143a9190612f54565b905061145067552107ac6fe1c26b60c01b611e38565b61146467fb57ada67ab1c99c60c01b611e38565b6114786777f78947df93a29460c01b611e38565b806114b8576040517f08c379a00000000000000000000000000000000000000000000000000000000081526004016114af90612fcd565b60405180910390fd5b6114cc67b242493cc6798e9360c01b611e38565b6114e0677271f64a53dece9560c01b611e38565b826003600086815260200190815260200160002060050160008282546115069190612fed565b92505081905550611521670156acb09f96d35860c01b611e38565b82600460008473ffffffffffffffffffffffffffffffffffffffff1673ffffffffffffffffffffffffffffffffffffffff16815260200190815260200160002060020160008282546115739190612fed565b9250508190555061158e670970b8b2c549bd1760c01b611e38565b82600860008282546115a09190612fed565b925050819055506115bb67028e830b8305ab8760c01b611e38565b6115cf6784a112bd454f9b4760c01b611e38565b8173ffffffffffffffffffffffffffffffffffffffff163373ffffffffffffffffffffffffffffffffffffffff16857f6272b66d083c9df27986e8ae861a91622134f112b252f1badf215c36a9399a438660405161162d919061277d565b60405180910390a450505050565b60008060009054906101000a900473ffffffffffffffffffffffffffffffffffffffff16905090565b60056020528160005260406000206020528060005260406000206000915091509054906101000a900460ff1681565b60008060006116ac678f8b79663870c1bf60c01b611e38565b6116c067391a60b004c41fcd60c01b611e38565b6116d467d6502e2b0c9e567760c01b611e38565b6000600460008673ffffffffffffffffffffffffffffffffffffffff1673ffffffffffffffffffffffffffffffffffffffff168152602001908152602001600020905061172b674d1e760943766b9360c01b611e38565b61173f677ee874fbc22b556860c01b611e38565b806000015481600101548260020154935093509350509193909250565b60085481565b60036020528060005260406000206000915090508060000154908060010160009054906101000a900473ffffffffffffffffffffffffffffffffffffffff16908060020180546117b1906128f0565b80601f01602080910402602001604051908101604052809291908181526020018280546117dd906128f0565b801561182a5780601f106117ff5761010080835404028352916020019161182a565b820191906000526020600020905b81548152906001019060200180831161180d57829003601f168201915b5050505050908060030154908060040154908060050154905086565b600260009054906101000a900473ffffffffffffffffffffffffffffffffffffffff1681565b60095481565b6118866710a675db2c51076360c01b611e38565b61188e611fa3565b6118a26761637d76353b0fa560c01b611e38565b6118b667c3908c961a9b02ce60c01b611e38565b6118ca672385b7653747feaf60c01b611e38565b80600260006101000a81548173ffffffffffffffffffffffffffffffffffffffff021916908373ffffffffffffffffffffffffffffffffffffffff16021790555050565b60075481565b61191c611fa3565b600073ffffffffffffffffffffffffffffffffffffffff168173ffffffffffffffffffffffffffffffffffffffff160361198e5760006040517f1e4fbdf700000000000000000000000000000000000000000000000000000000815260040161198591906126ec565b60405180910390fd5b6119978161202a565b50565b6119ae6735501bd0ab6324d660c01b611e38565b6119c2675a70dd5a114c83ce60c01b611e38565b6119d667635e4f2cde7b260760c01b611e38565b6119ea679b8246e4660cb94560c01b611e38565b6000600360008381526020019081526020016000206000015403611a43576040517f08c379a0000000000000000000000000000000000000000000000000000000008152600401611a3a90612dd3565b60405180910390fd5b611a5767be27713906126f6260c01b611e38565b611a6b676f31f0a2d3fcbbe360c01b611e38565b611a7f67a3ed0fee1ac8369c60c01b611e38565b611a9367907e1c1b9274eeaf60c01b611e38565b3373ffffffffffffffffffffffffffffffffffffffff166003600083815260200190815260200160002060010160009054906101000a900473ffffffffffffffffffffffffffffffffffffffff1673ffffffffffffffffffffffffffffffffffffffff1603611b37576040517f08c379a0000000000000000000000000000000000000000000000000000000008152600401611b2e9061306d565b60405180910390fd5b611b4b672bb40dfc15a8b81360c01b611e38565b611b5f67f70e9554d660a47660c01b611e38565b611b7367e54f137defa5fdfe60c01b611e38565b611b8767230062e32edcc2fd60c01b611e38565b6005600082815260200190815260200160002060003373ffffffffffffffffffffffffffffffffffffffff1673ffffffffffffffffffffffffffffffffffffffff16815260200190815260200160002060009054906101000a900460ff1615611c25576040517f08c379a0000000000000000000000000000000000000000000000000000000008152600401611c1c906130d9565b60405180910390fd5b611c3967839656322449945560c01b611e38565b611c4d67b4a27d1928ad0d7b60c01b611e38565b611c6167c7dff3f5ea9c0bdc60c01b611e38565b611c6a33611e3b565b611c7e678ecb2a908e333e6f60c01b611e38565b600360008281526020019081526020016000206004016000815480929190611ca590612879565b9190505550611cbe677e611d0ec75c66bc60c01b611e38565b600460006003600084815260200190815260200160002060010160009054906101000a900473ffffffffffffffffffffffffffffffffffffffff1673ffffffffffffffffffffffffffffffffffffffff1673ffffffffffffffffffffffffffffffffffffffff1681526020019081526020016000206001016000815480929190611d4790612879565b9190505550611d606761e1a34f81c08b4760c01b611e38565b60016005600083815260200190815260200160002060003373ffffffffffffffffffffffffffffffffffffffff1673ffffffffffffffffffffffffffffffffffffffff16815260200190815260200160002060006101000a81548160ff021916908315150217905550611ddd67242d08268803c48560c01b611e38565b611df1677e74a98130a3b42e60c01b611e38565b3373ffffffffffffffffffffffffffffffffffffffff16817f836976eaa7e1c8e3e2988acea5a119a89127d8965c1b61c071c787a21593f70260405160405180910390a350565b50565b611e4f673fb16e4ea9f75eb160c01b611e38565b611e63675f166c6b6002c67560c01b611e38565b611e7767425504bcf9bc556960c01b611e38565b600660008273ffffffffffffffffffffffffffffffffffffffff1673ffffffffffffffffffffffffffffffffffffffff16815260200190815260200160002060009054906101000a900460ff16611f7957611edc672281d2a92785003a60c01b611e38565b611ef067620c58ab63ac8d6360c01b611e38565b6001600660008373ffffffffffffffffffffffffffffffffffffffff1673ffffffffffffffffffffffffffffffffffffffff16815260200190815260200160002060006101000a81548160ff021916908315150217905550611f5c67723e7bd3f5e9d64b60c01b611e38565b60096000815480929190611f6f90612879565b9190505550611f8e565b611f8d67c2e0538dc5951b3e60c01b611e38565b5b50565b600060019050919050565b6000919050565b611fab6120ee565b73ffffffffffffffffffffffffffffffffffffffff16611fc961163b565b73ffffffffffffffffffffffffffffffffffffffff161461202857611fec6120ee565b6040517f118cdaa700000000000000000000000000000000000000000000000000000000815260040161201f91906126ec565b60405180910390fd5b565b60008060009054906101000a900473ffffffffffffffffffffffffffffffffffffffff169050816000806101000a81548173ffffffffffffffffffffffffffffffffffffffff021916908373ffffffffffffffffffffffffffffffffffffffff1602179055508173ffffffffffffffffffffffffffffffffffffffff168173ffffffffffffffffffffffffffffffffffffffff167f8be0079c531659141344cd1fd0a4f28419497f9722a3daafe3b4186f6b6457e060405160405180910390a35050565b600033905090565b6040518060c0016040528060008152602001600073ffffffffffffffffffffffffffffffffffffffff168152602001606081526020016000815260200160008152602001600081525090565b6000604051905090565b600080fd5b600080fd5b600080fd5b600080fd5b6000601f19601f8301169050919050565b7f4e487b7100000000000000000000000000000000000000000000000000000000600052604160045260246000fd5b6121a982612160565b810181811067ffffffffffffffff821117156121c8576121c7612171565b5b80604052505050565b60006121db612142565b90506121e782826121a0565b919050565b600067ffffffffffffffff82111561220757612206612171565b5b61221082612160565b9050602081019050919050565b82818337600083830152505050565b600061223f61223a846121ec565b6121d1565b90508281526020810184848401111561225b5761225a61215b565b5b61226684828561221d565b509392505050565b600082601f83011261228357612282612156565b5b813561229384826020860161222c565b91505092915050565b6000602082840312156122b2576122b161214c565b5b600082013567ffffffffffffffff8111156122d0576122cf612151565b5b6122dc8482850161226e565b91505092915050565b600073ffffffffffffffffffffffffffffffffffffffff82169050919050565b6000819050919050565b600061232a612325612320846122e5565b612305565b6122e5565b9050919050565b600061233c8261230f565b9050919050565b600061234e82612331565b9050919050565b61235e81612343565b82525050565b60006020820190506123796000830184612355565b92915050565b6000819050919050565b6123928161237f565b811461239d57600080fd5b50565b6000813590506123af81612389565b92915050565b600080604083850312156123cc576123cb61214c565b5b60006123da858286016123a0565b92505060206123eb858286016123a0565b9150509250929050565b600081519050919050565b600082825260208201905092915050565b6000819050602082019050919050565b61242a8161237f565b82525050565b600061243b826122e5565b9050919050565b61244b81612430565b82525050565b600081519050919050565b600082825260208201905092915050565b60005b8381101561248b578082015181840152602081019050612470565b60008484015250505050565b60006124a282612451565b6124ac818561245c565b93506124bc81856020860161246d565b6124c581612160565b840191505092915050565b600060c0830160008301516124e86000860182612421565b5060208301516124fb6020860182612442565b50604083015184820360408601526125138282612497565b91505060608301516125286060860182612421565b50608083015161253b6080860182612421565b5060a083015161254e60a0860182612421565b508091505092915050565b600061256583836124d0565b905092915050565b6000602082019050919050565b6000612585826123f5565b61258f8185612400565b9350836020820285016125a185612411565b8060005b858110156125dd57848403895281516125be8582612559565b94506125c98361256d565b925060208a019950506001810190506125a5565b50829750879550505050505092915050565b60006020820190508181036000830152612609818461257a565b905092915050565b6000602082840312156126275761262661214c565b5b6000612635848285016123a0565b91505092915050565b61264781612430565b811461265257600080fd5b50565b6000813590506126648161263e565b92915050565b6000602082840312156126805761267f61214c565b5b600061268e84828501612655565b91505092915050565b6126a08161237f565b82525050565b60006060820190506126bb6000830186612697565b6126c86020830185612697565b6126d56040830184612697565b949350505050565b6126e681612430565b82525050565b600060208201905061270160008301846126dd565b92915050565b6000806040838503121561271e5761271d61214c565b5b600061272c858286016123a0565b925050602061273d85828601612655565b9150509250929050565b60008115159050919050565b61275c81612747565b82525050565b60006020820190506127776000830184612753565b92915050565b60006020820190506127926000830184612697565b92915050565b600082825260208201905092915050565b60006127b482612451565b6127be8185612798565b93506127ce81856020860161246d565b6127d781612160565b840191505092915050565b600060c0820190506127f76000830189612697565b61280460208301886126dd565b818103604083015261281681876127a9565b90506128256060830186612697565b6128326080830185612697565b61283f60a0830184612697565b979650505050505050565b7f4e487b7100000000000000000000000000000000000000000000000000000000600052601160045260246000fd5b60006128848261237f565b91507fffffffffffffffffffffffffffffffffffffffffffffffffffffffffffffffff82036128b6576128b561284a565b5b600182019050919050565b7f4e487b7100000000000000000000000000000000000000000000000000000000600052602260045260246000fd5b6000600282049050600182168061290857607f821691505b60208210810361291b5761291a6128c1565b5b50919050565b60008190508160005260206000209050919050565b60006020601f8301049050919050565b600082821b905092915050565b6000600883026129837fffffffffffffffffffffffffffffffffffffffffffffffffffffffffffffffff82612946565b61298d8683612946565b95508019841693508086168417925050509392505050565b60006129c06129bb6129b68461237f565b612305565b61237f565b9050919050565b6000819050919050565b6129da836129a5565b6129ee6129e6826129c7565b848454612953565b825550505050565b600090565b612a036129f6565b612a0e8184846129d1565b505050565b5b81811015612a3257612a276000826129fb565b600181019050612a14565b5050565b601f821115612a7757612a4881612921565b612a5184612936565b81016020851015612a60578190505b612a74612a6c85612936565b830182612a13565b50505b505050565b600082821c905092915050565b6000612a9a60001984600802612a7c565b1980831691505092915050565b6000612ab38383612a89565b9150826002028217905092915050565b612acc82612451565b67ffffffffffffffff811115612ae557612ae4612171565b5b612aef82546128f0565b612afa828285612a36565b600060209050601f831160018114612b2d5760008415612b1b578287015190505b612b258582612aa7565b865550612b8d565b601f198416612b3b86612921565b60005b82811015612b6357848901518255600182019150602085019450602081019050612b3e565b86831015612b805784890151612b7c601f891682612a89565b8355505b6001600288020188555050505b505050505050565b60006020820190508181036000830152612baf81846127a9565b905092915050565b6000612bc28261237f565b9150612bcd8361237f565b9250828203905081811115612be557612be461284a565b5b92915050565b7f4e487b7100000000000000000000000000000000000000000000000000000000600052603260045260246000fd5b7f4e465420636f6e7472616374206e6f7420736574000000000000000000000000600082015250565b6000612c50601483612798565b9150612c5b82612c1a565b602082019050919050565b60006020820190508181036000830152612c7f81612c43565b9050919050565b7f426164676520616c726561647920636c61696d65640000000000000000000000600082015250565b6000612cbc601583612798565b9150612cc782612c86565b602082019050919050565b60006020820190508181036000830152612ceb81612caf565b9050919050565b7f4e6f7420656c696769626c6520666f7220746869732062616467650000000000600082015250565b6000612d28601b83612798565b9150612d3382612cf2565b602082019050919050565b60006020820190508181036000830152612d5781612d1b565b9050919050565b6000604082019050612d7360008301856126dd565b612d806020830184612697565b9392505050565b7f4a6f6b6520646f6573206e6f7420657869737400000000000000000000000000600082015250565b6000612dbd601383612798565b9150612dc882612d87565b602082019050919050565b60006020820190508181036000830152612dec81612db0565b9050919050565b7f54697020616d6f756e74206d7573742062652067726561746572207468616e2060008201527f7a65726f00000000000000000000000000000000000000000000000000000000602082015250565b6000612e4f602483612798565b9150612e5a82612df3565b604082019050919050565b60006020820190508181036000830152612e7e81612e42565b9050919050565b7f43616e6e6f742074697020796f7572206f776e206a6f6b650000000000000000600082015250565b6000612ebb601883612798565b9150612ec682612e85565b602082019050919050565b60006020820190508181036000830152612eea81612eae565b9050919050565b6000606082019050612f0660008301866126dd565b612f1360208301856126dd565b612f206040830184612697565b949350505050565b612f3181612747565b8114612f3c57600080fd5b50565b600081519050612f4e81612f28565b92915050565b600060208284031215612f6a57612f6961214c565b5b6000612f7884828501612f3f565b91505092915050565b7f55534443207472616e73666572206661696c6564000000000000000000000000600082015250565b6000612fb7601483612798565b9150612fc282612f81565b602082019050919050565b60006020820190508181036000830152612fe681612faa565b9050919050565b6000612ff88261237f565b91506130038361237f565b925082820190508082111561301b5761301a61284a565b5b92915050565b7f43616e6e6f74206c696b6520796f7572206f776e206a6f6b6500000000000000600082015250565b6000613057601983612798565b915061306282613021565b602082019050919050565b600060208201905081810360008301526130868161304a565b9050919050565b7f416c7265616479206c696b656400000000000000000000000000000000000000600082015250565b60006130c3600d83612798565b91506130ce8261308d565b602082019050919050565b600060208201905081810360008301526130f2816130b6565b905091905056fea264697066735822122024510aaac09be61ae5dcb06fa7da201de7fbdc6dd02d0d09b1afb5ed2a553eb964736f6c63430008140033","opcodes":"PUSH1 0x80 PUSH1 0x40 MSTORE CALLVALUE DUP1 ISZERO PUSH3 0x11 JUMPI PUSH1 0x0 DUP1 REVERT JUMPDEST POP PUSH1 0x40 MLOAD PUSH3 0x340F CODESIZE SUB DUP1 PUSH3 0x340F DUP4 CODECOPY DUP2 DUP2 ADD PUSH1 0x40 MSTORE DUP2 ADD SWAP1 PUSH3 0x37 SWAP2 SWAP1 PUSH3 0x270 JUMP JUMPDEST CALLER PUSH1 0x0 PUSH20 0xFFFFFFFFFFFFFFFFFFFFFFFFFFFFFFFFFFFFFFFF AND DUP2 PUSH20 0xFFFFFFFFFFFFFFFFFFFFFFFFFFFFFFFFFFFFFFFF AND SUB PUSH3 0xAD JUMPI PUSH1 0x0 PUSH1 0x40 MLOAD PUSH32 0x1E4FBDF700000000000000000000000000000000000000000000000000000000 DUP2 MSTORE PUSH1 0x4 ADD PUSH3 0xA4 SWAP2 SWAP1 PUSH3 0x2B3 JUMP JUMPDEST PUSH1 0x40 MLOAD DUP1 SWAP2 SUB SWAP1 REVERT JUMPDEST PUSH3 0xBE DUP2 PUSH3 0x13F PUSH1 0x20 SHL PUSH1 0x20 SHR JUMP JUMPDEST POP PUSH3 0xDB PUSH8 0x374147445B1AC2CC PUSH1 0xC0 SHL PUSH3 0x203 PUSH1 0x20 SHL PUSH1 0x20 SHR JUMP JUMPDEST PUSH3 0xF7 PUSH8 0xFF9C0778A23372EB PUSH1 0xC0 SHL PUSH3 0x203 PUSH1 0x20 SHL PUSH1 0x20 SHR JUMP JUMPDEST DUP1 PUSH1 0x1 PUSH1 0x0 PUSH2 0x100 EXP DUP2 SLOAD DUP2 PUSH20 0xFFFFFFFFFFFFFFFFFFFFFFFFFFFFFFFFFFFFFFFF MUL NOT AND SWAP1 DUP4 PUSH20 0xFFFFFFFFFFFFFFFFFFFFFFFFFFFFFFFFFFFFFFFF AND MUL OR SWAP1 SSTORE POP POP PUSH3 0x2D0 JUMP JUMPDEST PUSH1 0x0 DUP1 PUSH1 0x0 SWAP1 SLOAD SWAP1 PUSH2 0x100 EXP SWAP1 DIV PUSH20 0xFFFFFFFFFFFFFFFFFFFFFFFFFFFFFFFFFFFFFFFF AND SWAP1 POP DUP2 PUSH1 0x0 DUP1 PUSH2 0x100 EXP DUP2 SLOAD DUP2 PUSH20 0xFFFFFFFFFFFFFFFFFFFFFFFFFFFFFFFFFFFFFFFF MUL NOT AND SWAP1 DUP4 PUSH20 0xFFFFFFFFFFFFFFFFFFFFFFFFFFFFFFFFFFFFFFFF AND MUL OR SWAP1 SSTORE POP DUP2 PUSH20 0xFFFFFFFFFFFFFFFFFFFFFFFFFFFFFFFFFFFFFFFF AND DUP2 PUSH20 0xFFFFFFFFFFFFFFFFFFFFFFFFFFFFFFFFFFFFFFFF AND PUSH32 0x8BE0079C531659141344CD1FD0A4F28419497F9722A3DAAFE3B4186F6B6457E0 PUSH1 0x40 MLOAD PUSH1 0x40 MLOAD DUP1 SWAP2 SUB SWAP1 LOG3 POP POP JUMP JUMPDEST POP JUMP JUMPDEST PUSH1 0x0 DUP1 REVERT JUMPDEST PUSH1 0x0 PUSH20 0xFFFFFFFFFFFFFFFFFFFFFFFFFFFFFFFFFFFFFFFF DUP3 AND SWAP1 POP SWAP2 SWAP1 POP JUMP JUMPDEST PUSH1 0x0 PUSH3 0x238 DUP3 PUSH3 0x20B JUMP JUMPDEST SWAP1 POP SWAP2 SWAP1 POP JUMP JUMPDEST PUSH3 0x24A DUP2 PUSH3 0x22B JUMP JUMPDEST DUP2 EQ PUSH3 0x256 JUMPI PUSH1 0x0 DUP1 REVERT JUMPDEST POP JUMP JUMPDEST PUSH1 0x0 DUP2 MLOAD SWAP1 POP PUSH3 0x26A DUP2 PUSH3 0x23F JUMP JUMPDEST SWAP3 SWAP2 POP POP JUMP JUMPDEST PUSH1 0x0 PUSH1 0x20 DUP3 DUP5 SUB SLT ISZERO PUSH3 0x289 JUMPI PUSH3 0x288 PUSH3 0x206 JUMP JUMPDEST JUMPDEST PUSH1 0x0 PUSH3 0x299 DUP5 DUP3 DUP6 ADD PUSH3 0x259 JUMP JUMPDEST SWAP2 POP POP SWAP3 SWAP2 POP POP JUMP JUMPDEST PUSH3 0x2AD DUP2 PUSH3 0x22B JUMP JUMPDEST DUP3 MSTORE POP POP JUMP JUMPDEST PUSH1 0x0 PUSH1 0x20 DUP3 ADD SWAP1 POP PUSH3 0x2CA PUSH1 0x0 DUP4 ADD DUP5 PUSH3 0x2A2 JUMP JUMPDEST SWAP3 SWAP2 POP POP JUMP JUMPDEST PUSH2 0x312F DUP1 PUSH3 0x2E0 PUSH1 0x0 CODECOPY PUSH1 0x0 RETURN INVALID PUSH1 0x80 PUSH1 0x40 MSTORE CALLVALUE DUP1 ISZERO PUSH2 0x10 JUMPI PUSH1 0x0 DUP1 REVERT JUMPDEST POP PUSH1 0x4 CALLDATASIZE LT PUSH2 0x116 JUMPI PUSH1 0x0 CALLDATALOAD PUSH1 0xE0 SHR DUP1 PUSH4 0x987EE156 GT PUSH2 0xA2 JUMPI DUP1 PUSH4 0xBFF1F9E1 GT PUSH2 0x71 JUMPI DUP1 PUSH4 0xBFF1F9E1 EQ PUSH2 0x2EA JUMPI DUP1 PUSH4 0xDA31D640 EQ PUSH2 0x308 JUMPI DUP1 PUSH4 0xEBDD3748 EQ PUSH2 0x324 JUMPI DUP1 PUSH4 0xF2FDE38B EQ PUSH2 0x342 JUMPI DUP1 PUSH4 0xF8085C28 EQ PUSH2 0x35E JUMPI PUSH2 0x116 JUMP JUMPDEST DUP1 PUSH4 0x987EE156 EQ PUSH2 0x247 JUMPI DUP1 PUSH4 0x990DE8AE EQ PUSH2 0x279 JUMPI DUP1 PUSH4 0xA64D4998 EQ PUSH2 0x297 JUMPI DUP1 PUSH4 0xAAE282E1 EQ PUSH2 0x2CC JUMPI PUSH2 0x116 JUMP JUMPDEST DUP1 PUSH4 0x332D56D7 GT PUSH2 0xE9 JUMPI DUP1 PUSH4 0x332D56D7 EQ PUSH2 0x1A1 JUMPI DUP1 PUSH4 0x715018A6 EQ PUSH2 0x1D3 JUMPI DUP1 PUSH4 0x8070E600 EQ PUSH2 0x1DD JUMPI DUP1 PUSH4 0x8DA5CB5B EQ PUSH2 0x1F9 JUMPI DUP1 PUSH4 0x8FB7092C EQ PUSH2 0x217 JUMPI PUSH2 0x116 JUMP JUMPDEST DUP1 PUSH4 0x283A03A EQ PUSH2 0x11B JUMPI DUP1 PUSH4 0x11EAC855 EQ PUSH2 0x137 JUMPI DUP1 PUSH4 0x1810E77A EQ PUSH2 0x155 JUMPI DUP1 PUSH4 0x23415135 EQ PUSH2 0x185 JUMPI JUMPDEST PUSH1 0x0 DUP1 REVERT JUMPDEST PUSH2 0x135 PUSH1 0x4 DUP1 CALLDATASIZE SUB DUP2 ADD SWAP1 PUSH2 0x130 SWAP2 SWAP1 PUSH2 0x229C JUMP JUMPDEST PUSH2 0x37A JUMP JUMPDEST STOP JUMPDEST PUSH2 0x13F PUSH2 0x5F5 JUMP JUMPDEST PUSH1 0x40 MLOAD PUSH2 0x14C SWAP2 SWAP1 PUSH2 0x2364 JUMP JUMPDEST PUSH1 0x40 MLOAD DUP1 SWAP2 SUB SWAP1 RETURN JUMPDEST PUSH2 0x16F PUSH1 0x4 DUP1 CALLDATASIZE SUB DUP2 ADD SWAP1 PUSH2 0x16A SWAP2 SWAP1 PUSH2 0x23B5 JUMP JUMPDEST PUSH2 0x61B JUMP JUMPDEST PUSH1 0x40 MLOAD PUSH2 0x17C SWAP2 SWAP1 PUSH2 0x25EF JUMP JUMPDEST PUSH1 0x40 MLOAD DUP1 SWAP2 SUB SWAP1 RETURN JUMPDEST PUSH2 0x19F PUSH1 0x4 DUP1 CALLDATASIZE SUB DUP2 ADD SWAP1 PUSH2 0x19A SWAP2 SWAP1 PUSH2 0x2611 JUMP JUMPDEST PUSH2 0x9FD JUMP JUMPDEST STOP JUMPDEST PUSH2 0x1BB PUSH1 0x4 DUP1 CALLDATASIZE SUB DUP2 ADD SWAP1 PUSH2 0x1B6 SWAP2 SWAP1 PUSH2 0x266A JUMP JUMPDEST PUSH2 0x1058 JUMP JUMPDEST PUSH1 0x40 MLOAD PUSH2 0x1CA SWAP4 SWAP3 SWAP2 SWAP1 PUSH2 0x26A6 JUMP JUMPDEST PUSH1 0x40 MLOAD DUP1 SWAP2 SUB SWAP1 RETURN JUMPDEST PUSH2 0x1DB PUSH2 0x1082 JUMP JUMPDEST STOP JUMPDEST PUSH2 0x1F7 PUSH1 0x4 DUP1 CALLDATASIZE SUB DUP2 ADD SWAP1 PUSH2 0x1F2 SWAP2 SWAP1 PUSH2 0x23B5 JUMP JUMPDEST PUSH2 0x1096 JUMP JUMPDEST STOP JUMPDEST PUSH2 0x201 PUSH2 0x163B JUMP JUMPDEST PUSH1 0x40 MLOAD PUSH2 0x20E SWAP2 SWAP1 PUSH2 0x26EC JUMP JUMPDEST PUSH1 0x40 MLOAD DUP1 SWAP2 SUB SWAP1 RETURN JUMPDEST PUSH2 0x231 PUSH1 0x4 DUP1 CALLDATASIZE SUB DUP2 ADD SWAP1 PUSH2 0x22C SWAP2 SWAP1 PUSH2 0x2707 JUMP JUMPDEST PUSH2 0x1664 JUMP JUMPDEST PUSH1 0x40 MLOAD PUSH2 0x23E SWAP2 SWAP1 PUSH2 0x2762 JUMP JUMPDEST PUSH1 0x40 MLOAD DUP1 SWAP2 SUB SWAP1 RETURN JUMPDEST PUSH2 0x261 PUSH1 0x4 DUP1 CALLDATASIZE SUB DUP2 ADD SWAP1 PUSH2 0x25C SWAP2 SWAP1 PUSH2 0x266A JUMP JUMPDEST PUSH2 0x1693 JUMP JUMPDEST PUSH1 0x40 MLOAD PUSH2 0x270 SWAP4 SWAP3 SWAP2 SWAP1 PUSH2 0x26A6 JUMP JUMPDEST PUSH1 0x40 MLOAD DUP1 SWAP2 SUB SWAP1 RETURN JUMPDEST PUSH2 0x281 PUSH2 0x175C JUMP JUMPDEST PUSH1 0x40 MLOAD PUSH2 0x28E SWAP2 SWAP1 PUSH2 0x277D JUMP JUMPDEST PUSH1 0x40 MLOAD DUP1 SWAP2 SUB SWAP1 RETURN JUMPDEST PUSH2 0x2B1 PUSH1 0x4 DUP1 CALLDATASIZE SUB DUP2 ADD SWAP1 PUSH2 0x2AC SWAP2 SWAP1 PUSH2 0x2611 JUMP JUMPDEST PUSH2 0x1762 JUMP JUMPDEST PUSH1 0x40 MLOAD PUSH2 0x2C3 SWAP7 SWAP6 SWAP5 SWAP4 SWAP3 SWAP2 SWAP1 PUSH2 0x27E2 JUMP JUMPDEST PUSH1 0x40 MLOAD DUP1 SWAP2 SUB SWAP1 RETURN JUMPDEST PUSH2 0x2D4 PUSH2 0x1846 JUMP JUMPDEST PUSH1 0x40 MLOAD PUSH2 0x2E1 SWAP2 SWAP1 PUSH2 0x26EC JUMP JUMPDEST PUSH1 0x40 MLOAD DUP1 SWAP2 SUB SWAP1 RETURN JUMPDEST PUSH2 0x2F2 PUSH2 0x186C JUMP JUMPDEST PUSH1 0x40 MLOAD PUSH2 0x2FF SWAP2 SWAP1 PUSH2 0x277D JUMP JUMPDEST PUSH1 0x40 MLOAD DUP1 SWAP2 SUB SWAP1 RETURN JUMPDEST PUSH2 0x322 PUSH1 0x4 DUP1 CALLDATASIZE SUB DUP2 ADD SWAP1 PUSH2 0x31D SWAP2 SWAP1 PUSH2 0x266A JUMP JUMPDEST PUSH2 0x1872 JUMP JUMPDEST STOP JUMPDEST PUSH2 0x32C PUSH2 0x190E JUMP JUMPDEST PUSH1 0x40 MLOAD PUSH2 0x339 SWAP2 SWAP1 PUSH2 0x277D JUMP JUMPDEST PUSH1 0x40 MLOAD DUP1 SWAP2 SUB SWAP1 RETURN JUMPDEST PUSH2 0x35C PUSH1 0x4 DUP1 CALLDATASIZE SUB DUP2 ADD SWAP1 PUSH2 0x357 SWAP2 SWAP1 PUSH2 0x266A JUMP JUMPDEST PUSH2 0x1914 JUMP JUMPDEST STOP JUMPDEST PUSH2 0x378 PUSH1 0x4 DUP1 CALLDATASIZE SUB DUP2 ADD SWAP1 PUSH2 0x373 SWAP2 SWAP1 PUSH2 0x2611 JUMP JUMPDEST PUSH2 0x199A JUMP JUMPDEST STOP JUMPDEST PUSH2 0x38E PUSH8 0xE26B501FEF4F3B9F PUSH1 0xC0 SHL PUSH2 0x1E38 JUMP JUMPDEST PUSH2 0x3A2 PUSH8 0xF846A34AE9B08754 PUSH1 0xC0 SHL PUSH2 0x1E38 JUMP JUMPDEST PUSH2 0x3B6 PUSH8 0xBF770A00CA8AB645 PUSH1 0xC0 SHL PUSH2 0x1E38 JUMP JUMPDEST PUSH2 0x3BF CALLER PUSH2 0x1E3B JUMP JUMPDEST PUSH2 0x3D3 PUSH8 0xB4144EE048F48D60 PUSH1 0xC0 SHL PUSH2 0x1E38 JUMP JUMPDEST PUSH1 0x7 PUSH1 0x0 DUP2 SLOAD DUP1 SWAP3 SWAP2 SWAP1 PUSH2 0x3E6 SWAP1 PUSH2 0x2879 JUMP JUMPDEST SWAP2 SWAP1 POP SSTORE POP PUSH2 0x3FF PUSH8 0xC141C80ADA59D663 PUSH1 0xC0 SHL PUSH2 0x1E38 JUMP JUMPDEST PUSH2 0x413 PUSH8 0x303C38153EC9A28F PUSH1 0xC0 SHL PUSH2 0x1E38 JUMP JUMPDEST PUSH1 0x0 PUSH1 0x7 SLOAD SWAP1 POP PUSH2 0x42E PUSH8 0x8437D731B58832E4 PUSH1 0xC0 SHL PUSH2 0x1E38 JUMP JUMPDEST PUSH1 0x40 MLOAD DUP1 PUSH1 0xC0 ADD PUSH1 0x40 MSTORE DUP1 DUP3 DUP2 MSTORE PUSH1 0x20 ADD CALLER PUSH20 0xFFFFFFFFFFFFFFFFFFFFFFFFFFFFFFFFFFFFFFFF AND DUP2 MSTORE PUSH1 0x20 ADD DUP4 DUP2 MSTORE PUSH1 0x20 ADD TIMESTAMP DUP2 MSTORE PUSH1 0x20 ADD PUSH1 0x0 DUP2 MSTORE PUSH1 0x20 ADD PUSH1 0x0 DUP2 MSTORE POP PUSH1 0x3 PUSH1 0x0 DUP4 DUP2 MSTORE PUSH1 0x20 ADD SWAP1 DUP2 MSTORE PUSH1 0x20 ADD PUSH1 0x0 KECCAK256 PUSH1 0x0 DUP3 ADD MLOAD DUP2 PUSH1 0x0 ADD SSTORE PUSH1 0x20 DUP3 ADD MLOAD DUP2 PUSH1 0x1 ADD PUSH1 0x0 PUSH2 0x100 EXP DUP2 SLOAD DUP2 PUSH20 0xFFFFFFFFFFFFFFFFFFFFFFFFFFFFFFFFFFFFFFFF MUL NOT AND SWAP1 DUP4 PUSH20 0xFFFFFFFFFFFFFFFFFFFFFFFFFFFFFFFFFFFFFFFF AND MUL OR SWAP1 SSTORE POP PUSH1 0x40 DUP3 ADD MLOAD DUP2 PUSH1 0x2 ADD SWAP1 DUP2 PUSH2 0x4EC SWAP2 SWAP1 PUSH2 0x2AC3 JUMP JUMPDEST POP PUSH1 0x60 DUP3 ADD MLOAD DUP2 PUSH1 0x3 ADD SSTORE PUSH1 0x80 DUP3 ADD MLOAD DUP2 PUSH1 0x4 ADD SSTORE PUSH1 0xA0 DUP3 ADD MLOAD DUP2 PUSH1 0x5 ADD SSTORE SWAP1 POP POP PUSH2 0x522 PUSH8 0x49E4BA7E6DF9A634 PUSH1 0xC0 SHL PUSH2 0x1E38 JUMP JUMPDEST PUSH1 0x4 PUSH1 0x0 CALLER PUSH20 0xFFFFFFFFFFFFFFFFFFFFFFFFFFFFFFFFFFFFFFFF AND PUSH20 0xFFFFFFFFFFFFFFFFFFFFFFFFFFFFFFFFFFFFFFFF AND DUP2 MSTORE PUSH1 0x20 ADD SWAP1 DUP2 MSTORE PUSH1 0x20 ADD PUSH1 0x0 KECCAK256 PUSH1 0x0 ADD PUSH1 0x0 DUP2 SLOAD DUP1 SWAP3 SWAP2 SWAP1 PUSH2 0x575 SWAP1 PUSH2 0x2879 JUMP JUMPDEST SWAP2 SWAP1 POP SSTORE POP PUSH2 0x58E PUSH8 0x23F8D67C24EF9BC3 PUSH1 0xC0 SHL PUSH2 0x1E38 JUMP JUMPDEST PUSH2 0x5A2 PUSH8 0x93BFA8D7ACF31E86 PUSH1 0xC0 SHL PUSH2 0x1E38 JUMP JUMPDEST CALLER PUSH20 0xFFFFFFFFFFFFFFFFFFFFFFFFFFFFFFFFFFFFFFFF AND DUP2 PUSH32 0x24486924EACD07687DCCF5C775FA30BE15FAA7AEA35002F47CA0B468F3E2729B DUP5 PUSH1 0x40 MLOAD PUSH2 0x5E9 SWAP2 SWAP1 PUSH2 0x2B95 JUMP JUMPDEST PUSH1 0x40 MLOAD DUP1 SWAP2 SUB SWAP1 LOG3 POP POP JUMP JUMPDEST PUSH1 0x1 PUSH1 0x0 SWAP1 SLOAD SWAP1 PUSH2 0x100 EXP SWAP1 DIV PUSH20 0xFFFFFFFFFFFFFFFFFFFFFFFFFFFFFFFFFFFFFFFF AND DUP2 JUMP JUMPDEST PUSH1 0x60 PUSH2 0x631 PUSH8 0x7CFD9F6864AE8752 PUSH1 0xC0 SHL PUSH2 0x1E38 JUMP JUMPDEST PUSH2 0x645 PUSH8 0x3D4870F44762526F PUSH1 0xC0 SHL PUSH2 0x1E38 JUMP JUMPDEST PUSH2 0x659 PUSH8 0x2D045EEE35EDE511 PUSH1 0xC0 SHL PUSH2 0x1E38 JUMP JUMPDEST PUSH1 0x0 DUP3 SWAP1 POP PUSH2 0x672 PUSH8 0x7792B49177ECDC60 PUSH1 0xC0 SHL PUSH2 0x1E38 JUMP JUMPDEST PUSH2 0x686 PUSH8 0xFE86C326F7B76858 PUSH1 0xC0 SHL PUSH2 0x1E38 JUMP JUMPDEST PUSH1 0x0 DUP1 DUP6 EQ DUP1 ISZERO PUSH2 0x6A7 JUMPI POP PUSH2 0x6A6 PUSH8 0xDAF1DE372705256 PUSH1 0xC0 SHL PUSH2 0x1F91 JUMP JUMPDEST JUMPDEST DUP1 PUSH2 0x6CF JUMPI POP PUSH1 0x7 SLOAD DUP6 GT DUP1 ISZERO PUSH2 0x6CE JUMPI POP PUSH2 0x6CD PUSH8 0xA861D0643EB31EB6 PUSH1 0xC0 SHL PUSH2 0x1F91 JUMP JUMPDEST JUMPDEST JUMPDEST DUP1 PUSH2 0x6EA JUMPI POP PUSH2 0x6E9 PUSH8 0xF5CBB845BD0C978B PUSH1 0xC0 SHL PUSH2 0x1F9C JUMP JUMPDEST JUMPDEST DUP1 ISZERO PUSH2 0x706 JUMPI POP PUSH2 0x705 PUSH8 0xA2E10E6EF1EF2DC5 PUSH1 0xC0 SHL PUSH2 0x1F91 JUMP JUMPDEST JUMPDEST PUSH2 0x71C JUMPI PUSH1 0x1 DUP6 PUSH2 0x717 SWAP2 SWAP1 PUSH2 0x2BB7 JUMP JUMPDEST PUSH2 0x720 JUMP JUMPDEST PUSH1 0x7 SLOAD JUMPDEST SWAP1 POP PUSH2 0x736 PUSH8 0x9794E8D0C2CC6AEA PUSH1 0xC0 SHL PUSH2 0x1E38 JUMP JUMPDEST PUSH2 0x74A PUSH8 0x44B2490184730313 PUSH1 0xC0 SHL PUSH2 0x1E38 JUMP JUMPDEST DUP1 DUP3 GT ISZERO PUSH2 0x782 JUMPI PUSH2 0x766 PUSH8 0x5082461DBE7886B2 PUSH1 0xC0 SHL PUSH2 0x1E38 JUMP JUMPDEST PUSH2 0x77A PUSH8 0x1285DBF3B30FAED PUSH1 0xC0 SHL PUSH2 0x1E38 JUMP JUMPDEST DUP1 SWAP2 POP PUSH2 0x797 JUMP JUMPDEST PUSH2 0x796 PUSH8 0x2635159D8087249E PUSH1 0xC0 SHL PUSH2 0x1E38 JUMP JUMPDEST JUMPDEST PUSH2 0x7AB PUSH8 0xF631965575DEAEE6 PUSH1 0xC0 SHL PUSH2 0x1E38 JUMP JUMPDEST PUSH2 0x7BF PUSH8 0x16B8D8FC02A4EB78 PUSH1 0xC0 SHL PUSH2 0x1E38 JUMP JUMPDEST PUSH1 0x0 DUP3 PUSH8 0xFFFFFFFFFFFFFFFF DUP2 GT ISZERO PUSH2 0x7DB JUMPI PUSH2 0x7DA PUSH2 0x2171 JUMP JUMPDEST JUMPDEST PUSH1 0x40 MLOAD SWAP1 DUP1 DUP3 MSTORE DUP1 PUSH1 0x20 MUL PUSH1 0x20 ADD DUP3 ADD PUSH1 0x40 MSTORE DUP1 ISZERO PUSH2 0x814 JUMPI DUP2 PUSH1 0x20 ADD JUMPDEST PUSH2 0x801 PUSH2 0x20F6 JUMP JUMPDEST DUP2 MSTORE PUSH1 0x20 ADD SWAP1 PUSH1 0x1 SWAP1 SUB SWAP1 DUP2 PUSH2 0x7F9 JUMPI SWAP1 POP JUMPDEST POP SWAP1 POP PUSH2 0x82B PUSH8 0xA22EA34468CA8583 PUSH1 0xC0 SHL PUSH2 0x1E38 JUMP JUMPDEST PUSH2 0x83F PUSH8 0x2374C262A78CA796 PUSH1 0xC0 SHL PUSH2 0x1E38 JUMP JUMPDEST PUSH1 0x0 JUMPDEST DUP4 DUP2 LT ISZERO PUSH2 0x9C8 JUMPI PUSH2 0x85E PUSH8 0xEBBE5A8D0E1296CE PUSH1 0xC0 SHL PUSH2 0x1E38 JUMP JUMPDEST PUSH1 0x3 PUSH1 0x0 DUP3 DUP6 PUSH2 0x86E SWAP2 SWAP1 PUSH2 0x2BB7 JUMP JUMPDEST DUP2 MSTORE PUSH1 0x20 ADD SWAP1 DUP2 MSTORE PUSH1 0x20 ADD PUSH1 0x0 KECCAK256 PUSH1 0x40 MLOAD DUP1 PUSH1 0xC0 ADD PUSH1 0x40 MSTORE SWAP1 DUP2 PUSH1 0x0 DUP3 ADD SLOAD DUP2 MSTORE PUSH1 0x20 ADD PUSH1 0x1 DUP3 ADD PUSH1 0x0 SWAP1 SLOAD SWAP1 PUSH2 0x100 EXP SWAP1 DIV PUSH20 0xFFFFFFFFFFFFFFFFFFFFFFFFFFFFFFFFFFFFFFFF AND PUSH20 0xFFFFFFFFFFFFFFFFFFFFFFFFFFFFFFFFFFFFFFFF AND PUSH20 0xFFFFFFFFFFFFFFFFFFFFFFFFFFFFFFFFFFFFFFFF AND DUP2 MSTORE PUSH1 0x20 ADD PUSH1 0x2 DUP3 ADD DUP1 SLOAD PUSH2 0x8F7 SWAP1 PUSH2 0x28F0 JUMP JUMPDEST DUP1 PUSH1 0x1F ADD PUSH1 0x20 DUP1 SWAP2 DIV MUL PUSH1 0x20 ADD PUSH1 0x40 MLOAD SWAP1 DUP2 ADD PUSH1 0x40 MSTORE DUP1 SWAP3 SWAP2 SWAP1 DUP2 DUP2 MSTORE PUSH1 0x20 ADD DUP3 DUP1 SLOAD PUSH2 0x923 SWAP1 PUSH2 0x28F0 JUMP JUMPDEST DUP1 ISZERO PUSH2 0x970 JUMPI DUP1 PUSH1 0x1F LT PUSH2 0x945 JUMPI PUSH2 0x100 DUP1 DUP4 SLOAD DIV MUL DUP4 MSTORE SWAP2 PUSH1 0x20 ADD SWAP2 PUSH2 0x970 JUMP JUMPDEST DUP3 ADD SWAP2 SWAP1 PUSH1 0x0 MSTORE PUSH1 0x20 PUSH1 0x0 KECCAK256 SWAP1 JUMPDEST DUP2 SLOAD DUP2 MSTORE SWAP1 PUSH1 0x1 ADD SWAP1 PUSH1 0x20 ADD DUP1 DUP4 GT PUSH2 0x953 JUMPI DUP3 SWAP1 SUB PUSH1 0x1F AND DUP3 ADD SWAP2 JUMPDEST POP POP POP POP POP DUP2 MSTORE PUSH1 0x20 ADD PUSH1 0x3 DUP3 ADD SLOAD DUP2 MSTORE PUSH1 0x20 ADD PUSH1 0x4 DUP3 ADD SLOAD DUP2 MSTORE PUSH1 0x20 ADD PUSH1 0x5 DUP3 ADD SLOAD DUP2 MSTORE POP POP DUP3 DUP3 DUP2 MLOAD DUP2 LT PUSH2 0x9AA JUMPI PUSH2 0x9A9 PUSH2 0x2BEB JUMP JUMPDEST JUMPDEST PUSH1 0x20 MUL PUSH1 0x20 ADD ADD DUP2 SWAP1 MSTORE POP DUP1 DUP1 PUSH2 0x9C0 SWAP1 PUSH2 0x2879 JUMP JUMPDEST SWAP2 POP POP PUSH2 0x842 JUMP JUMPDEST POP PUSH2 0x9DD PUSH8 0xC7EF62643D88944 PUSH1 0xC0 SHL PUSH2 0x1E38 JUMP JUMPDEST PUSH2 0x9F1 PUSH8 0xEE857B73311887B8 PUSH1 0xC0 SHL PUSH2 0x1E38 JUMP JUMPDEST DUP1 SWAP4 POP POP POP POP SWAP3 SWAP2 POP POP JUMP JUMPDEST PUSH2 0xA11 PUSH8 0xDC58FDFA7644E535 PUSH1 0xC0 SHL PUSH2 0x1E38 JUMP JUMPDEST PUSH2 0xA25 PUSH8 0x105CD185CAC7E4BA PUSH1 0xC0 SHL PUSH2 0x1E38 JUMP JUMPDEST PUSH2 0xA39 PUSH8 0x370C99E7EC11C9E6 PUSH1 0xC0 SHL PUSH2 0x1E38 JUMP JUMPDEST PUSH2 0xA4D PUSH8 0x33C020F31AFA87B1 PUSH1 0xC0 SHL PUSH2 0x1E38 JUMP JUMPDEST PUSH1 0x0 PUSH20 0xFFFFFFFFFFFFFFFFFFFFFFFFFFFFFFFFFFFFFFFF AND PUSH1 0x2 PUSH1 0x0 SWAP1 SLOAD SWAP1 PUSH2 0x100 EXP SWAP1 DIV PUSH20 0xFFFFFFFFFFFFFFFFFFFFFFFFFFFFFFFFFFFFFFFF AND PUSH20 0xFFFFFFFFFFFFFFFFFFFFFFFFFFFFFFFFFFFFFFFF AND SUB PUSH2 0xADE JUMPI PUSH1 0x40 MLOAD PUSH32 0x8C379A000000000000000000000000000000000000000000000000000000000 DUP2 MSTORE PUSH1 0x4 ADD PUSH2 0xAD5 SWAP1 PUSH2 0x2C66 JUMP JUMPDEST PUSH1 0x40 MLOAD DUP1 SWAP2 SUB SWAP1 REVERT JUMPDEST PUSH2 0xAF2 PUSH8 0x3B34DA9DDEEF2A3E PUSH1 0xC0 SHL PUSH2 0x1E38 JUMP JUMPDEST PUSH2 0xB06 PUSH8 0x6F1F56213ECDA15A PUSH1 0xC0 SHL PUSH2 0x1E38 JUMP JUMPDEST PUSH2 0xB1A PUSH8 0xE833F26A62B10E8D PUSH1 0xC0 SHL PUSH2 0x1E38 JUMP JUMPDEST PUSH1 0x0 PUSH1 0x4 PUSH1 0x0 CALLER PUSH20 0xFFFFFFFFFFFFFFFFFFFFFFFFFFFFFFFFFFFFFFFF AND PUSH20 0xFFFFFFFFFFFFFFFFFFFFFFFFFFFFFFFFFFFFFFFF AND DUP2 MSTORE PUSH1 0x20 ADD SWAP1 DUP2 MSTORE PUSH1 0x20 ADD PUSH1 0x0 KECCAK256 SWAP1 POP PUSH2 0xB71 PUSH8 0xECA3E44F37F60947 PUSH1 0xC0 SHL PUSH2 0x1E38 JUMP JUMPDEST PUSH2 0xB85 PUSH8 0x184FC756B99C3B44 PUSH1 0xC0 SHL PUSH2 0x1E38 JUMP JUMPDEST PUSH2 0xB99 PUSH8 0x6074BF75FAE518BD PUSH1 0xC0 SHL PUSH2 0x1E38 JUMP JUMPDEST DUP1 PUSH1 0x3 ADD PUSH1 0x0 DUP4 DUP2 MSTORE PUSH1 0x20 ADD SWAP1 DUP2 MSTORE PUSH1 0x20 ADD PUSH1 0x0 KECCAK256 PUSH1 0x0 SWAP1 SLOAD SWAP1 PUSH2 0x100 EXP SWAP1 DIV PUSH1 0xFF AND ISZERO PUSH2 0xBFC JUMPI PUSH1 0x40 MLOAD PUSH32 0x8C379A000000000000000000000000000000000000000000000000000000000 DUP2 MSTORE PUSH1 0x4 ADD PUSH2 0xBF3 SWAP1 PUSH2 0x2CD2 JUMP JUMPDEST PUSH1 0x40 MLOAD DUP1 SWAP2 SUB SWAP1 REVERT JUMPDEST PUSH2 0xC10 PUSH8 0xE39F2A257A26C827 PUSH1 0xC0 SHL PUSH2 0x1E38 JUMP JUMPDEST PUSH2 0xC24 PUSH8 0x9BB8D684FB7B2C65 PUSH1 0xC0 SHL PUSH2 0x1E38 JUMP JUMPDEST PUSH2 0xC38 PUSH8 0x9BA3A2E95E96F64C PUSH1 0xC0 SHL PUSH2 0x1E38 JUMP JUMPDEST PUSH1 0x0 PUSH2 0xC4E PUSH8 0xB4CD9DD2AEB9BE71 PUSH1 0xC0 SHL PUSH2 0x1E38 JUMP JUMPDEST PUSH2 0xC62 PUSH8 0x67084111B0503762 PUSH1 0xC0 SHL PUSH2 0x1E38 JUMP JUMPDEST PUSH1 0x1 DUP4 SUB PUSH2 0xCE9 JUMPI PUSH2 0xC7E PUSH8 0xA7FDC327FC5693B PUSH1 0xC0 SHL PUSH2 0x1E38 JUMP JUMPDEST PUSH2 0xC92 PUSH8 0xB6F2F9B46DD19484 PUSH1 0xC0 SHL PUSH2 0x1E38 JUMP JUMPDEST PUSH2 0xCA6 PUSH8 0x6B6BB4A0A51A3156 PUSH1 0xC0 SHL PUSH2 0x1E38 JUMP JUMPDEST PUSH1 0x1 DUP3 PUSH1 0x0 ADD SLOAD LT PUSH2 0xCCF JUMPI PUSH2 0xCC6 PUSH8 0xBCEB6C7223D848E PUSH1 0xC0 SHL PUSH2 0x1E38 JUMP JUMPDEST PUSH1 0x1 SWAP1 POP PUSH2 0xCE4 JUMP JUMPDEST PUSH2 0xCE3 PUSH8 0x28FFAADFE4F5B4FC PUSH1 0xC0 SHL PUSH2 0x1E38 JUMP JUMPDEST JUMPDEST PUSH2 0xE5E JUMP JUMPDEST PUSH2 0xCFD PUSH8 0x15972BC05CFBADD2 PUSH1 0xC0 SHL PUSH2 0x1E38 JUMP JUMPDEST PUSH2 0xD11 PUSH8 0xC4FFF1CF6BB1397F PUSH1 0xC0 SHL PUSH2 0x1E38 JUMP JUMPDEST PUSH1 0x2 DUP4 SUB PUSH2 0xD98 JUMPI PUSH2 0xD2D PUSH8 0xA39BD33D4EEFDB7 PUSH1 0xC0 SHL PUSH2 0x1E38 JUMP JUMPDEST PUSH2 0xD41 PUSH8 0x94F1592249232BE5 PUSH1 0xC0 SHL PUSH2 0x1E38 JUMP JUMPDEST PUSH2 0xD55 PUSH8 0x3E4A31F82DE83E07 PUSH1 0xC0 SHL PUSH2 0x1E38 JUMP JUMPDEST PUSH1 0x5 DUP3 PUSH1 0x0 ADD SLOAD LT PUSH2 0xD7E JUMPI PUSH2 0xD75 PUSH8 0xBC988067C4DC8BBF PUSH1 0xC0 SHL PUSH2 0x1E38 JUMP JUMPDEST PUSH1 0x1 SWAP1 POP PUSH2 0xD93 JUMP JUMPDEST PUSH2 0xD92 PUSH8 0x977005C080BD3E6D PUSH1 0xC0 SHL PUSH2 0x1E38 JUMP JUMPDEST JUMPDEST PUSH2 0xE5D JUMP JUMPDEST PUSH2 0xDAC PUSH8 0x238BA7A4FB2ACBBF PUSH1 0xC0 SHL PUSH2 0x1E38 JUMP JUMPDEST PUSH2 0xDC0 PUSH8 0x8B96AC5E2FFF2AAD PUSH1 0xC0 SHL PUSH2 0x1E38 JUMP JUMPDEST PUSH1 0x3 DUP4 SUB PUSH2 0xE47 JUMPI PUSH2 0xDDC PUSH8 0x263B2C42AF909781 PUSH1 0xC0 SHL PUSH2 0x1E38 JUMP JUMPDEST PUSH2 0xDF0 PUSH8 0x7CF9C53B1D4C1163 PUSH1 0xC0 SHL PUSH2 0x1E38 JUMP JUMPDEST PUSH2 0xE04 PUSH8 0xA2EACDB98A7E5419 PUSH1 0xC0 SHL PUSH2 0x1E38 JUMP JUMPDEST PUSH1 0xA DUP3 PUSH1 0x0 ADD SLOAD LT PUSH2 0xE2D JUMPI PUSH2 0xE24 PUSH8 0x4999A9073127CA7 PUSH1 0xC0 SHL PUSH2 0x1E38 JUMP JUMPDEST PUSH1 0x1 SWAP1 POP PUSH2 0xE42 JUMP JUMPDEST PUSH2 0xE41 PUSH8 0xC74FE2B9D91E9B41 PUSH1 0xC0 SHL PUSH2 0x1E38 JUMP JUMPDEST JUMPDEST PUSH2 0xE5C JUMP JUMPDEST PUSH2 0xE5B PUSH8 0x8556177559288E46 PUSH1 0xC0 SHL PUSH2 0x1E38 JUMP JUMPDEST JUMPDEST JUMPDEST JUMPDEST PUSH2 0xE72 PUSH8 0x5B80A8DD875F49C5 PUSH1 0xC0 SHL PUSH2 0x1E38 JUMP JUMPDEST PUSH2 0xE86 PUSH8 0xE7DBE7EBA6DFFC01 PUSH1 0xC0 SHL PUSH2 0x1E38 JUMP JUMPDEST PUSH2 0xE9A PUSH8 0x8045F986BA2DFCBB PUSH1 0xC0 SHL PUSH2 0x1E38 JUMP JUMPDEST DUP1 PUSH2 0xEDA JUMPI PUSH1 0x40 MLOAD PUSH32 0x8C379A000000000000000000000000000000000000000000000000000000000 DUP2 MSTORE PUSH1 0x4 ADD PUSH2 0xED1 SWAP1 PUSH2 0x2D3E JUMP JUMPDEST PUSH1 0x40 MLOAD DUP1 SWAP2 SUB SWAP1 REVERT JUMPDEST PUSH2 0xEEE PUSH8 0xF0EC77823BE17D01 PUSH1 0xC0 SHL PUSH2 0x1E38 JUMP JUMPDEST PUSH2 0xF02 PUSH8 0xCCC8E75AFACBF5FF PUSH1 0xC0 SHL PUSH2 0x1E38 JUMP JUMPDEST PUSH1 0x1 DUP3 PUSH1 0x3 ADD PUSH1 0x0 DUP6 DUP2 MSTORE PUSH1 0x20 ADD SWAP1 DUP2 MSTORE PUSH1 0x20 ADD PUSH1 0x0 KECCAK256 PUSH1 0x0 PUSH2 0x100 EXP DUP2 SLOAD DUP2 PUSH1 0xFF MUL NOT AND SWAP1 DUP4 ISZERO ISZERO MUL OR SWAP1 SSTORE POP PUSH2 0xF44 PUSH8 0xE26E5D86C2FBB0E3 PUSH1 0xC0 SHL PUSH2 0x1E38 JUMP JUMPDEST PUSH2 0xF58 PUSH8 0x98514DBBE101A8BF PUSH1 0xC0 SHL PUSH2 0x1E38 JUMP JUMPDEST PUSH1 0x2 PUSH1 0x0 SWAP1 SLOAD SWAP1 PUSH2 0x100 EXP SWAP1 DIV PUSH20 0xFFFFFFFFFFFFFFFFFFFFFFFFFFFFFFFFFFFFFFFF AND PUSH20 0xFFFFFFFFFFFFFFFFFFFFFFFFFFFFFFFFFFFFFFFF AND PUSH4 0x40C10F19 CALLER DUP6 PUSH1 0x40 MLOAD DUP4 PUSH4 0xFFFFFFFF AND PUSH1 0xE0 SHL DUP2 MSTORE PUSH1 0x4 ADD PUSH2 0xFB5 SWAP3 SWAP2 SWAP1 PUSH2 0x2D5E JUMP JUMPDEST PUSH1 0x0 PUSH1 0x40 MLOAD DUP1 DUP4 SUB DUP2 PUSH1 0x0 DUP8 DUP1 EXTCODESIZE ISZERO DUP1 ISZERO PUSH2 0xFCF JUMPI PUSH1 0x0 DUP1 REVERT JUMPDEST POP GAS CALL ISZERO DUP1 ISZERO PUSH2 0xFE3 JUMPI RETURNDATASIZE PUSH1 0x0 DUP1 RETURNDATACOPY RETURNDATASIZE PUSH1 0x0 REVERT JUMPDEST POP POP POP POP PUSH2 0xFFB PUSH8 0x43F4324E28DAA2E9 PUSH1 0xC0 SHL PUSH2 0x1E38 JUMP JUMPDEST PUSH2 0x100F PUSH8 0x87616F287FCA1502 PUSH1 0xC0 SHL PUSH2 0x1E38 JUMP JUMPDEST DUP3 CALLER PUSH20 0xFFFFFFFFFFFFFFFFFFFFFFFFFFFFFFFFFFFFFFFF AND PUSH32 0xBDAEC09F93A9E010D98B043DD79EFAAA052A0EED6B10C9FFE87C8F7E256DA56F PUSH1 0x40 MLOAD PUSH1 0x40 MLOAD DUP1 SWAP2 SUB SWAP1 LOG3 POP POP POP JUMP JUMPDEST PUSH1 0x4 PUSH1 0x20 MSTORE DUP1 PUSH1 0x0 MSTORE PUSH1 0x40 PUSH1 0x0 KECCAK256 PUSH1 0x0 SWAP2 POP SWAP1 POP DUP1 PUSH1 0x0 ADD SLOAD SWAP1 DUP1 PUSH1 0x1 ADD SLOAD SWAP1 DUP1 PUSH1 0x2 ADD SLOAD SWAP1 POP DUP4 JUMP JUMPDEST PUSH2 0x108A PUSH2 0x1FA3 JUMP JUMPDEST PUSH2 0x1094 PUSH1 0x0 PUSH2 0x202A JUMP JUMPDEST JUMP JUMPDEST PUSH2 0x10AA PUSH8 0x1C818C73F76D0F41 PUSH1 0xC0 SHL PUSH2 0x1E38 JUMP JUMPDEST PUSH2 0x10BE PUSH8 0x24F834C05185D308 PUSH1 0xC0 SHL PUSH2 0x1E38 JUMP JUMPDEST PUSH2 0x10D2 PUSH8 0x7FAFA5D15B3F0258 PUSH1 0xC0 SHL PUSH2 0x1E38 JUMP JUMPDEST PUSH2 0x10E6 PUSH8 0x4E32FA1A5645308A PUSH1 0xC0 SHL PUSH2 0x1E38 JUMP JUMPDEST PUSH1 0x0 PUSH1 0x3 PUSH1 0x0 DUP5 DUP2 MSTORE PUSH1 0x20 ADD SWAP1 DUP2 MSTORE PUSH1 0x20 ADD PUSH1 0x0 KECCAK256 PUSH1 0x0 ADD SLOAD SUB PUSH2 0x113F JUMPI PUSH1 0x40 MLOAD PUSH32 0x8C379A000000000000000000000000000000000000000000000000000000000 DUP2 MSTORE PUSH1 0x4 ADD PUSH2 0x1136 SWAP1 PUSH2 0x2DD3 JUMP JUMPDEST PUSH1 0x40 MLOAD DUP1 SWAP2 SUB SWAP1 REVERT JUMPDEST PUSH2 0x1153 PUSH8 0x2D7EB345E092A0C4 PUSH1 0xC0 SHL PUSH2 0x1E38 JUMP JUMPDEST PUSH2 0x1167 PUSH8 0xE5C4F1C7F40F30E PUSH1 0xC0 SHL PUSH2 0x1E38 JUMP JUMPDEST PUSH2 0x117B PUSH8 0xA584A98F5008BFE6 PUSH1 0xC0 SHL PUSH2 0x1E38 JUMP JUMPDEST PUSH2 0x118F PUSH8 0xABECA1FC2F9B846 PUSH1 0xC0 SHL PUSH2 0x1E38 JUMP JUMPDEST PUSH1 0x0 DUP2 GT PUSH2 0x11D2 JUMPI PUSH1 0x40 MLOAD PUSH32 0x8C379A000000000000000000000000000000000000000000000000000000000 DUP2 MSTORE PUSH1 0x4 ADD PUSH2 0x11C9 SWAP1 PUSH2 0x2E65 JUMP JUMPDEST PUSH1 0x40 MLOAD DUP1 SWAP2 SUB SWAP1 REVERT JUMPDEST PUSH2 0x11E6 PUSH8 0x7688887A3C14BC0B PUSH1 0xC0 SHL PUSH2 0x1E38 JUMP JUMPDEST PUSH2 0x11FA PUSH8 0x39C7EFB0EC85D434 PUSH1 0xC0 SHL PUSH2 0x1E38 JUMP JUMPDEST PUSH2 0x120E PUSH8 0xDAC76BEC70059F3D PUSH1 0xC0 SHL PUSH2 0x1E38 JUMP JUMPDEST PUSH2 0x1222 PUSH8 0xB767A8CC5527663C PUSH1 0xC0 SHL PUSH2 0x1E38 JUMP JUMPDEST CALLER PUSH20 0xFFFFFFFFFFFFFFFFFFFFFFFFFFFFFFFFFFFFFFFF AND PUSH1 0x3 PUSH1 0x0 DUP5 DUP2 MSTORE PUSH1 0x20 ADD SWAP1 DUP2 MSTORE PUSH1 0x20 ADD PUSH1 0x0 KECCAK256 PUSH1 0x1 ADD PUSH1 0x0 SWAP1 SLOAD SWAP1 PUSH2 0x100 EXP SWAP1 DIV PUSH20 0xFFFFFFFFFFFFFFFFFFFFFFFFFFFFFFFFFFFFFFFF AND PUSH20 0xFFFFFFFFFFFFFFFFFFFFFFFFFFFFFFFFFFFFFFFF AND SUB PUSH2 0x12C6 JUMPI PUSH1 0x40 MLOAD PUSH32 0x8C379A000000000000000000000000000000000000000000000000000000000 DUP2 MSTORE PUSH1 0x4 ADD PUSH2 0x12BD SWAP1 PUSH2 0x2ED1 JUMP JUMPDEST PUSH1 0x40 MLOAD DUP1 SWAP2 SUB SWAP1 REVERT JUMPDEST PUSH2 0x12DA PUSH8 0x474C8AE8769EF586 PUSH1 0xC0 SHL PUSH2 0x1E38 JUMP JUMPDEST PUSH2 0x12EE PUSH8 0xEA841ABC12ABC186 PUSH1 0xC0 SHL PUSH2 0x1E38 JUMP JUMPDEST PUSH2 0x1302 PUSH8 0xFE233ABEE8E97481 PUSH1 0xC0 SHL PUSH2 0x1E38 JUMP JUMPDEST PUSH2 0x130B CALLER PUSH2 0x1E3B JUMP JUMPDEST PUSH2 0x131F PUSH8 0x140E881C5DD0DFC9 PUSH1 0xC0 SHL PUSH2 0x1E38 JUMP JUMPDEST PUSH2 0x1333 PUSH8 0x9A92265C2DF8D85C PUSH1 0xC0 SHL PUSH2 0x1E38 JUMP JUMPDEST PUSH1 0x0 PUSH1 0x3 PUSH1 0x0 DUP5 DUP2 MSTORE PUSH1 0x20 ADD SWAP1 DUP2 MSTORE PUSH1 0x20 ADD PUSH1 0x0 KECCAK256 PUSH1 0x1 ADD PUSH1 0x0 SWAP1 SLOAD SWAP1 PUSH2 0x100 EXP SWAP1 DIV PUSH20 0xFFFFFFFFFFFFFFFFFFFFFFFFFFFFFFFFFFFFFFFF AND SWAP1 POP PUSH2 0x1382 PUSH8 0x87477FBE22053551 PUSH1 0xC0 SHL PUSH2 0x1E38 JUMP JUMPDEST PUSH2 0x1396 PUSH8 0x5DE960645F428493 PUSH1 0xC0 SHL PUSH2 0x1E38 JUMP JUMPDEST PUSH1 0x0 PUSH1 0x1 PUSH1 0x0 SWAP1 SLOAD SWAP1 PUSH2 0x100 EXP SWAP1 DIV PUSH20 0xFFFFFFFFFFFFFFFFFFFFFFFFFFFFFFFFFFFFFFFF AND PUSH20 0xFFFFFFFFFFFFFFFFFFFFFFFFFFFFFFFFFFFFFFFF AND PUSH4 0x23B872DD CALLER DUP5 DUP7 PUSH1 0x40 MLOAD DUP5 PUSH4 0xFFFFFFFF AND PUSH1 0xE0 SHL DUP2 MSTORE PUSH1 0x4 ADD PUSH2 0x13F7 SWAP4 SWAP3 SWAP2 SWAP1 PUSH2 0x2EF1 JUMP JUMPDEST PUSH1 0x20 PUSH1 0x40 MLOAD DUP1 DUP4 SUB DUP2 PUSH1 0x0 DUP8 GAS CALL ISZERO DUP1 ISZERO PUSH2 0x1416 JUMPI RETURNDATASIZE PUSH1 0x0 DUP1 RETURNDATACOPY RETURNDATASIZE PUSH1 0x0 REVERT JUMPDEST POP POP POP POP PUSH1 0x40 MLOAD RETURNDATASIZE PUSH1 0x1F NOT PUSH1 0x1F DUP3 ADD AND DUP3 ADD DUP1 PUSH1 0x40 MSTORE POP DUP2 ADD SWAP1 PUSH2 0x143A SWAP2 SWAP1 PUSH2 0x2F54 JUMP JUMPDEST SWAP1 POP PUSH2 0x1450 PUSH8 0x552107AC6FE1C26B PUSH1 0xC0 SHL PUSH2 0x1E38 JUMP JUMPDEST PUSH2 0x1464 PUSH8 0xFB57ADA67AB1C99C PUSH1 0xC0 SHL PUSH2 0x1E38 JUMP JUMPDEST PUSH2 0x1478 PUSH8 0x77F78947DF93A294 PUSH1 0xC0 SHL PUSH2 0x1E38 JUMP JUMPDEST DUP1 PUSH2 0x14B8 JUMPI PUSH1 0x40 MLOAD PUSH32 0x8C379A000000000000000000000000000000000000000000000000000000000 DUP2 MSTORE PUSH1 0x4 ADD PUSH2 0x14AF SWAP1 PUSH2 0x2FCD JUMP JUMPDEST PUSH1 0x40 MLOAD DUP1 SWAP2 SUB SWAP1 REVERT JUMPDEST PUSH2 0x14CC PUSH8 0xB242493CC6798E93 PUSH1 0xC0 SHL PUSH2 0x1E38 JUMP JUMPDEST PUSH2 0x14E0 PUSH8 0x7271F64A53DECE95 PUSH1 0xC0 SHL PUSH2 0x1E38 JUMP JUMPDEST DUP3 PUSH1 0x3 PUSH1 0x0 DUP7 DUP2 MSTORE PUSH1 0x20 ADD SWAP1 DUP2 MSTORE PUSH1 0x20 ADD PUSH1 0x0 KECCAK256 PUSH1 0x5 ADD PUSH1 0x0 DUP3 DUP3 SLOAD PUSH2 0x1506 SWAP2 SWAP1 PUSH2 0x2FED JUMP JUMPDEST SWAP3 POP POP DUP2 SWAP1 SSTORE POP PUSH2 0x1521 PUSH8 0x156ACB09F96D358 PUSH1 0xC0 SHL PUSH2 0x1E38 JUMP JUMPDEST DUP3 PUSH1 0x4 PUSH1 0x0 DUP5 PUSH20 0xFFFFFFFFFFFFFFFFFFFFFFFFFFFFFFFFFFFFFFFF AND PUSH20 0xFFFFFFFFFFFFFFFFFFFFFFFFFFFFFFFFFFFFFFFF AND DUP2 MSTORE PUSH1 0x20 ADD SWAP1 DUP2 MSTORE PUSH1 0x20 ADD PUSH1 0x0 KECCAK256 PUSH1 0x2 ADD PUSH1 0x0 DUP3 DUP3 SLOAD PUSH2 0x1573 SWAP2 SWAP1 PUSH2 0x2FED JUMP JUMPDEST SWAP3 POP POP DUP2 SWAP1 SSTORE POP PUSH2 0x158E PUSH8 0x970B8B2C549BD17 PUSH1 0xC0 SHL PUSH2 0x1E38 JUMP JUMPDEST DUP3 PUSH1 0x8 PUSH1 0x0 DUP3 DUP3 SLOAD PUSH2 0x15A0 SWAP2 SWAP1 PUSH2 0x2FED JUMP JUMPDEST SWAP3 POP POP DUP2 SWAP1 SSTORE POP PUSH2 0x15BB PUSH8 0x28E830B8305AB87 PUSH1 0xC0 SHL PUSH2 0x1E38 JUMP JUMPDEST PUSH2 0x15CF PUSH8 0x84A112BD454F9B47 PUSH1 0xC0 SHL PUSH2 0x1E38 JUMP JUMPDEST DUP2 PUSH20 0xFFFFFFFFFFFFFFFFFFFFFFFFFFFFFFFFFFFFFFFF AND CALLER PUSH20 0xFFFFFFFFFFFFFFFFFFFFFFFFFFFFFFFFFFFFFFFF AND DUP6 PUSH32 0x6272B66D083C9DF27986E8AE861A91622134F112B252F1BADF215C36A9399A43 DUP7 PUSH1 0x40 MLOAD PUSH2 0x162D SWAP2 SWAP1 PUSH2 0x277D JUMP JUMPDEST PUSH1 0x40 MLOAD DUP1 SWAP2 SUB SWAP1 LOG4 POP POP POP POP JUMP JUMPDEST PUSH1 0x0 DUP1 PUSH1 0x0 SWAP1 SLOAD SWAP1 PUSH2 0x100 EXP SWAP1 DIV PUSH20 0xFFFFFFFFFFFFFFFFFFFFFFFFFFFFFFFFFFFFFFFF AND SWAP1 POP SWAP1 JUMP JUMPDEST PUSH1 0x5 PUSH1 0x20 MSTORE DUP2 PUSH1 0x0 MSTORE PUSH1 0x40 PUSH1 0x0 KECCAK256 PUSH1 0x20 MSTORE DUP1 PUSH1 0x0 MSTORE PUSH1 0x40 PUSH1 0x0 KECCAK256 PUSH1 0x0 SWAP2 POP SWAP2 POP SWAP1 SLOAD SWAP1 PUSH2 0x100 EXP SWAP1 DIV PUSH1 0xFF AND DUP2 JUMP JUMPDEST PUSH1 0x0 DUP1 PUSH1 0x0 PUSH2 0x16AC PUSH8 0x8F8B79663870C1BF PUSH1 0xC0 SHL PUSH2 0x1E38 JUMP JUMPDEST PUSH2 0x16C0 PUSH8 0x391A60B004C41FCD PUSH1 0xC0 SHL PUSH2 0x1E38 JUMP JUMPDEST PUSH2 0x16D4 PUSH8 0xD6502E2B0C9E5677 PUSH1 0xC0 SHL PUSH2 0x1E38 JUMP JUMPDEST PUSH1 0x0 PUSH1 0x4 PUSH1 0x0 DUP7 PUSH20 0xFFFFFFFFFFFFFFFFFFFFFFFFFFFFFFFFFFFFFFFF AND PUSH20 0xFFFFFFFFFFFFFFFFFFFFFFFFFFFFFFFFFFFFFFFF AND DUP2 MSTORE PUSH1 0x20 ADD SWAP1 DUP2 MSTORE PUSH1 0x20 ADD PUSH1 0x0 KECCAK256 SWAP1 POP PUSH2 0x172B PUSH8 0x4D1E760943766B93 PUSH1 0xC0 SHL PUSH2 0x1E38 JUMP JUMPDEST PUSH2 0x173F PUSH8 0x7EE874FBC22B5568 PUSH1 0xC0 SHL PUSH2 0x1E38 JUMP JUMPDEST DUP1 PUSH1 0x0 ADD SLOAD DUP2 PUSH1 0x1 ADD SLOAD DUP3 PUSH1 0x2 ADD SLOAD SWAP4 POP SWAP4 POP SWAP4 POP POP SWAP2 SWAP4 SWAP1 SWAP3 POP JUMP JUMPDEST PUSH1 0x8 SLOAD DUP2 JUMP JUMPDEST PUSH1 0x3 PUSH1 0x20 MSTORE DUP1 PUSH1 0x0 MSTORE PUSH1 0x40 PUSH1 0x0 KECCAK256 PUSH1 0x0 SWAP2 POP SWAP1 POP DUP1 PUSH1 0x0 ADD SLOAD SWAP1 DUP1 PUSH1 0x1 ADD PUSH1 0x0 SWAP1 SLOAD SWAP1 PUSH2 0x100 EXP SWAP1 DIV PUSH20 0xFFFFFFFFFFFFFFFFFFFFFFFFFFFFFFFFFFFFFFFF AND SWAP1 DUP1 PUSH1 0x2 ADD DUP1 SLOAD PUSH2 0x17B1 SWAP1 PUSH2 0x28F0 JUMP JUMPDEST DUP1 PUSH1 0x1F ADD PUSH1 0x20 DUP1 SWAP2 DIV MUL PUSH1 0x20 ADD PUSH1 0x40 MLOAD SWAP1 DUP2 ADD PUSH1 0x40 MSTORE DUP1 SWAP3 SWAP2 SWAP1 DUP2 DUP2 MSTORE PUSH1 0x20 ADD DUP3 DUP1 SLOAD PUSH2 0x17DD SWAP1 PUSH2 0x28F0 JUMP JUMPDEST DUP1 ISZERO PUSH2 0x182A JUMPI DUP1 PUSH1 0x1F LT PUSH2 0x17FF JUMPI PUSH2 0x100 DUP1 DUP4 SLOAD DIV MUL DUP4 MSTORE SWAP2 PUSH1 0x20 ADD SWAP2 PUSH2 0x182A JUMP JUMPDEST DUP3 ADD SWAP2 SWAP1 PUSH1 0x0 MSTORE PUSH1 0x20 PUSH1 0x0 KECCAK256 SWAP1 JUMPDEST DUP2 SLOAD DUP2 MSTORE SWAP1 PUSH1 0x1 ADD SWAP1 PUSH1 0x20 ADD DUP1 DUP4 GT PUSH2 0x180D JUMPI DUP3 SWAP1 SUB PUSH1 0x1F AND DUP3 ADD SWAP2 JUMPDEST POP POP POP POP POP SWAP1 DUP1 PUSH1 0x3 ADD SLOAD SWAP1 DUP1 PUSH1 0x4 ADD SLOAD SWAP1 DUP1 PUSH1 0x5 ADD SLOAD SWAP1 POP DUP7 JUMP JUMPDEST PUSH1 0x2 PUSH1 0x0 SWAP1 SLOAD SWAP1 PUSH2 0x100 EXP SWAP1 DIV PUSH20 0xFFFFFFFFFFFFFFFFFFFFFFFFFFFFFFFFFFFFFFFF AND DUP2 JUMP JUMPDEST PUSH1 0x9 SLOAD DUP2 JUMP JUMPDEST PUSH2 0x1886 PUSH8 0x10A675DB2C510763 PUSH1 0xC0 SHL PUSH2 0x1E38 JUMP JUMPDEST PUSH2 0x188E PUSH2 0x1FA3 JUMP JUMPDEST PUSH2 0x18A2 PUSH8 0x61637D76353B0FA5 PUSH1 0xC0 SHL PUSH2 0x1E38 JUMP JUMPDEST PUSH2 0x18B6 PUSH8 0xC3908C961A9B02CE PUSH1 0xC0 SHL PUSH2 0x1E38 JUMP JUMPDEST PUSH2 0x18CA PUSH8 0x2385B7653747FEAF PUSH1 0xC0 SHL PUSH2 0x1E38 JUMP JUMPDEST DUP1 PUSH1 0x2 PUSH1 0x0 PUSH2 0x100 EXP DUP2 SLOAD DUP2 PUSH20 0xFFFFFFFFFFFFFFFFFFFFFFFFFFFFFFFFFFFFFFFF MUL NOT AND SWAP1 DUP4 PUSH20 0xFFFFFFFFFFFFFFFFFFFFFFFFFFFFFFFFFFFFFFFF AND MUL OR SWAP1 SSTORE POP POP JUMP JUMPDEST PUSH1 0x7 SLOAD DUP2 JUMP JUMPDEST PUSH2 0x191C PUSH2 0x1FA3 JUMP JUMPDEST PUSH1 0x0 PUSH20 0xFFFFFFFFFFFFFFFFFFFFFFFFFFFFFFFFFFFFFFFF AND DUP2 PUSH20 0xFFFFFFFFFFFFFFFFFFFFFFFFFFFFFFFFFFFFFFFF AND SUB PUSH2 0x198E JUMPI PUSH1 0x0 PUSH1 0x40 MLOAD PUSH32 0x1E4FBDF700000000000000000000000000000000000000000000000000000000 DUP2 MSTORE PUSH1 0x4 ADD PUSH2 0x1985 SWAP2 SWAP1 PUSH2 0x26EC JUMP JUMPDEST PUSH1 0x40 MLOAD DUP1 SWAP2 SUB SWAP1 REVERT JUMPDEST PUSH2 0x1997 DUP2 PUSH2 0x202A JUMP JUMPDEST POP JUMP JUMPDEST PUSH2 0x19AE PUSH8 0x35501BD0AB6324D6 PUSH1 0xC0 SHL PUSH2 0x1E38 JUMP JUMPDEST PUSH2 0x19C2 PUSH8 0x5A70DD5A114C83CE PUSH1 0xC0 SHL PUSH2 0x1E38 JUMP JUMPDEST PUSH2 0x19D6 PUSH8 0x635E4F2CDE7B2607 PUSH1 0xC0 SHL PUSH2 0x1E38 JUMP JUMPDEST PUSH2 0x19EA PUSH8 0x9B8246E4660CB945 PUSH1 0xC0 SHL PUSH2 0x1E38 JUMP JUMPDEST PUSH1 0x0 PUSH1 0x3 PUSH1 0x0 DUP4 DUP2 MSTORE PUSH1 0x20 ADD SWAP1 DUP2 MSTORE PUSH1 0x20 ADD PUSH1 0x0 KECCAK256 PUSH1 0x0 ADD SLOAD SUB PUSH2 0x1A43 JUMPI PUSH1 0x40 MLOAD PUSH32 0x8C379A000000000000000000000000000000000000000000000000000000000 DUP2 MSTORE PUSH1 0x4 ADD PUSH2 0x1A3A SWAP1 PUSH2 0x2DD3 JUMP JUMPDEST PUSH1 0x40 MLOAD DUP1 SWAP2 SUB SWAP1 REVERT JUMPDEST PUSH2 0x1A57 PUSH8 0xBE27713906126F62 PUSH1 0xC0 SHL PUSH2 0x1E38 JUMP JUMPDEST PUSH2 0x1A6B PUSH8 0x6F31F0A2D3FCBBE3 PUSH1 0xC0 SHL PUSH2 0x1E38 JUMP JUMPDEST PUSH2 0x1A7F PUSH8 0xA3ED0FEE1AC8369C PUSH1 0xC0 SHL PUSH2 0x1E38 JUMP JUMPDEST PUSH2 0x1A93 PUSH8 0x907E1C1B9274EEAF PUSH1 0xC0 SHL PUSH2 0x1E38 JUMP JUMPDEST CALLER PUSH20 0xFFFFFFFFFFFFFFFFFFFFFFFFFFFFFFFFFFFFFFFF AND PUSH1 0x3 PUSH1 0x0 DUP4 DUP2 MSTORE PUSH1 0x20 ADD SWAP1 DUP2 MSTORE PUSH1 0x20 ADD PUSH1 0x0 KECCAK256 PUSH1 0x1 ADD PUSH1 0x0 SWAP1 SLOAD SWAP1 PUSH2 0x100 EXP SWAP1 DIV PUSH20 0xFFFFFFFFFFFFFFFFFFFFFFFFFFFFFFFFFFFFFFFF AND PUSH20 0xFFFFFFFFFFFFFFFFFFFFFFFFFFFFFFFFFFFFFFFF AND SUB PUSH2 0x1B37 JUMPI PUSH1 0x40 MLOAD PUSH32 0x8C379A000000000000000000000000000000000000000000000000000000000 DUP2 MSTORE PUSH1 0x4 ADD PUSH2 0x1B2E SWAP1 PUSH2 0x306D JUMP JUMPDEST PUSH1 0x40 MLOAD DUP1 SWAP2 SUB SWAP1 REVERT JUMPDEST PUSH2 0x1B4B PUSH8 0x2BB40DFC15A8B813 PUSH1 0xC0 SHL PUSH2 0x1E38 JUMP JUMPDEST PUSH2 0x1B5F PUSH8 0xF70E9554D660A476 PUSH1 0xC0 SHL PUSH2 0x1E38 JUMP JUMPDEST PUSH2 0x1B73 PUSH8 0xE54F137DEFA5FDFE PUSH1 0xC0 SHL PUSH2 0x1E38 JUMP JUMPDEST PUSH2 0x1B87 PUSH8 0x230062E32EDCC2FD PUSH1 0xC0 SHL PUSH2 0x1E38 JUMP JUMPDEST PUSH1 0x5 PUSH1 0x0 DUP3 DUP2 MSTORE PUSH1 0x20 ADD SWAP1 DUP2 MSTORE PUSH1 0x20 ADD PUSH1 0x0 KECCAK256 PUSH1 0x0 CALLER PUSH20 0xFFFFFFFFFFFFFFFFFFFFFFFFFFFFFFFFFFFFFFFF AND PUSH20 0xFFFFFFFFFFFFFFFFFFFFFFFFFFFFFFFFFFFFFFFF AND DUP2 MSTORE PUSH1 0x20 ADD SWAP1 DUP2 MSTORE PUSH1 0x20 ADD PUSH1 0x0 KECCAK256 PUSH1 0x0 SWAP1 SLOAD SWAP1 PUSH2 0x100 EXP SWAP1 DIV PUSH1 0xFF AND ISZERO PUSH2 0x1C25 JUMPI PUSH1 0x40 MLOAD PUSH32 0x8C379A000000000000000000000000000000000000000000000000000000000 DUP2 MSTORE PUSH1 0x4 ADD PUSH2 0x1C1C SWAP1 PUSH2 0x30D9 JUMP JUMPDEST PUSH1 0x40 MLOAD DUP1 SWAP2 SUB SWAP1 REVERT JUMPDEST PUSH2 0x1C39 PUSH8 0x8396563224499455 PUSH1 0xC0 SHL PUSH2 0x1E38 JUMP JUMPDEST PUSH2 0x1C4D PUSH8 0xB4A27D1928AD0D7B PUSH1 0xC0 SHL PUSH2 0x1E38 JUMP JUMPDEST PUSH2 0x1C61 PUSH8 0xC7DFF3F5EA9C0BDC PUSH1 0xC0 SHL PUSH2 0x1E38 JUMP JUMPDEST PUSH2 0x1C6A CALLER PUSH2 0x1E3B JUMP JUMPDEST PUSH2 0x1C7E PUSH8 0x8ECB2A908E333E6F PUSH1 0xC0 SHL PUSH2 0x1E38 JUMP JUMPDEST PUSH1 0x3 PUSH1 0x0 DUP3 DUP2 MSTORE PUSH1 0x20 ADD SWAP1 DUP2 MSTORE PUSH1 0x20 ADD PUSH1 0x0 KECCAK256 PUSH1 0x4 ADD PUSH1 0x0 DUP2 SLOAD DUP1 SWAP3 SWAP2 SWAP1 PUSH2 0x1CA5 SWAP1 PUSH2 0x2879 JUMP JUMPDEST SWAP2 SWAP1 POP SSTORE POP PUSH2 0x1CBE PUSH8 0x7E611D0EC75C66BC PUSH1 0xC0 SHL PUSH2 0x1E38 JUMP JUMPDEST PUSH1 0x4 PUSH1 0x0 PUSH1 0x3 PUSH1 0x0 DUP5 DUP2 MSTORE PUSH1 0x20 ADD SWAP1 DUP2 MSTORE PUSH1 0x20 ADD PUSH1 0x0 KECCAK256 PUSH1 0x1 ADD PUSH1 0x0 SWAP1 SLOAD SWAP1 PUSH2 0x100 EXP SWAP1 DIV PUSH20 0xFFFFFFFFFFFFFFFFFFFFFFFFFFFFFFFFFFFFFFFF AND PUSH20 0xFFFFFFFFFFFFFFFFFFFFFFFFFFFFFFFFFFFFFFFF AND PUSH20 0xFFFFFFFFFFFFFFFFFFFFFFFFFFFFFFFFFFFFFFFF AND DUP2 MSTORE PUSH1 0x20 ADD SWAP1 DUP2 MSTORE PUSH1 0x20 ADD PUSH1 0x0 KECCAK256 PUSH1 0x1 ADD PUSH1 0x0 DUP2 SLOAD DUP1 SWAP3 SWAP2 SWAP1 PUSH2 0x1D47 SWAP1 PUSH2 0x2879 JUMP JUMPDEST SWAP2 SWAP1 POP SSTORE POP PUSH2 0x1D60 PUSH8 0x61E1A34F81C08B47 PUSH1 0xC0 SHL PUSH2 0x1E38 JUMP JUMPDEST PUSH1 0x1 PUSH1 0x5 PUSH1 0x0 DUP4 DUP2 MSTORE PUSH1 0x20 ADD SWAP1 DUP2 MSTORE PUSH1 0x20 ADD PUSH1 0x0 KECCAK256 PUSH1 0x0 CALLER PUSH20 0xFFFFFFFFFFFFFFFFFFFFFFFFFFFFFFFFFFFFFFFF AND PUSH20 0xFFFFFFFFFFFFFFFFFFFFFFFFFFFFFFFFFFFFFFFF AND DUP2 MSTORE PUSH1 0x20 ADD SWAP1 DUP2 MSTORE PUSH1 0x20 ADD PUSH1 0x0 KECCAK256 PUSH1 0x0 PUSH2 0x100 EXP DUP2 SLOAD DUP2 PUSH1 0xFF MUL NOT AND SWAP1 DUP4 ISZERO ISZERO MUL OR SWAP1 SSTORE POP PUSH2 0x1DDD PUSH8 0x242D08268803C485 PUSH1 0xC0 SHL PUSH2 0x1E38 JUMP JUMPDEST PUSH2 0x1DF1 PUSH8 0x7E74A98130A3B42E PUSH1 0xC0 SHL PUSH2 0x1E38 JUMP JUMPDEST CALLER PUSH20 0xFFFFFFFFFFFFFFFFFFFFFFFFFFFFFFFFFFFFFFFF AND DUP2 PUSH32 0x836976EAA7E1C8E3E2988ACEA5A119A89127D8965C1B61C071C787A21593F702 PUSH1 0x40 MLOAD PUSH1 0x40 MLOAD DUP1 SWAP2 SUB SWAP1 LOG3 POP JUMP JUMPDEST POP JUMP JUMPDEST PUSH2 0x1E4F PUSH8 0x3FB16E4EA9F75EB1 PUSH1 0xC0 SHL PUSH2 0x1E38 JUMP JUMPDEST PUSH2 0x1E63 PUSH8 0x5F166C6B6002C675 PUSH1 0xC0 SHL PUSH2 0x1E38 JUMP JUMPDEST PUSH2 0x1E77 PUSH8 0x425504BCF9BC5569 PUSH1 0xC0 SHL PUSH2 0x1E38 JUMP JUMPDEST PUSH1 0x6 PUSH1 0x0 DUP3 PUSH20 0xFFFFFFFFFFFFFFFFFFFFFFFFFFFFFFFFFFFFFFFF AND PUSH20 0xFFFFFFFFFFFFFFFFFFFFFFFFFFFFFFFFFFFFFFFF AND DUP2 MSTORE PUSH1 0x20 ADD SWAP1 DUP2 MSTORE PUSH1 0x20 ADD PUSH1 0x0 KECCAK256 PUSH1 0x0 SWAP1 SLOAD SWAP1 PUSH2 0x100 EXP SWAP1 DIV PUSH1 0xFF AND PUSH2 0x1F79 JUMPI PUSH2 0x1EDC PUSH8 0x2281D2A92785003A PUSH1 0xC0 SHL PUSH2 0x1E38 JUMP JUMPDEST PUSH2 0x1EF0 PUSH8 0x620C58AB63AC8D63 PUSH1 0xC0 SHL PUSH2 0x1E38 JUMP JUMPDEST PUSH1 0x1 PUSH1 0x6 PUSH1 0x0 DUP4 PUSH20 0xFFFFFFFFFFFFFFFFFFFFFFFFFFFFFFFFFFFFFFFF AND PUSH20 0xFFFFFFFFFFFFFFFFFFFFFFFFFFFFFFFFFFFFFFFF AND DUP2 MSTORE PUSH1 0x20 ADD SWAP1 DUP2 MSTORE PUSH1 0x20 ADD PUSH1 0x0 KECCAK256 PUSH1 0x0 PUSH2 0x100 EXP DUP2 SLOAD DUP2 PUSH1 0xFF MUL NOT AND SWAP1 DUP4 ISZERO ISZERO MUL OR SWAP1 SSTORE POP PUSH2 0x1F5C PUSH8 0x723E7BD3F5E9D64B PUSH1 0xC0 SHL PUSH2 0x1E38 JUMP JUMPDEST PUSH1 0x9 PUSH1 0x0 DUP2 SLOAD DUP1 SWAP3 SWAP2 SWAP1 PUSH2 0x1F6F SWAP1 PUSH2 0x2879 JUMP JUMPDEST SWAP2 SWAP1 POP SSTORE POP PUSH2 0x1F8E JUMP JUMPDEST PUSH2 0x1F8D PUSH8 0xC2E0538DC5951B3E PUSH1 0xC0 SHL PUSH2 0x1E38 JUMP JUMPDEST JUMPDEST POP JUMP JUMPDEST PUSH1 0x0 PUSH1 0x1 SWAP1 POP SWAP2 SWAP1 POP JUMP JUMPDEST PUSH1 0x0 SWAP2 SWAP1 POP JUMP JUMPDEST PUSH2 0x1FAB PUSH2 0x20EE JUMP JUMPDEST PUSH20 0xFFFFFFFFFFFFFFFFFFFFFFFFFFFFFFFFFFFFFFFF AND PUSH2 0x1FC9 PUSH2 0x163B JUMP JUMPDEST PUSH20 0xFFFFFFFFFFFFFFFFFFFFFFFFFFFFFFFFFFFFFFFF AND EQ PUSH2 0x2028 JUMPI PUSH2 0x1FEC PUSH2 0x20EE JUMP JUMPDEST PUSH1 0x40 MLOAD PUSH32 0x118CDAA700000000000000000000000000000000000000000000000000000000 DUP2 MSTORE PUSH1 0x4 ADD PUSH2 0x201F SWAP2 SWAP1 PUSH2 0x26EC JUMP JUMPDEST PUSH1 0x40 MLOAD DUP1 SWAP2 SUB SWAP1 REVERT JUMPDEST JUMP JUMPDEST PUSH1 0x0 DUP1 PUSH1 0x0 SWAP1 SLOAD SWAP1 PUSH2 0x100 EXP SWAP1 DIV PUSH20 0xFFFFFFFFFFFFFFFFFFFFFFFFFFFFFFFFFFFFFFFF AND SWAP1 POP DUP2 PUSH1 0x0 DUP1 PUSH2 0x100 EXP DUP2 SLOAD DUP2 PUSH20 0xFFFFFFFFFFFFFFFFFFFFFFFFFFFFFFFFFFFFFFFF MUL NOT AND SWAP1 DUP4 PUSH20 0xFFFFFFFFFFFFFFFFFFFFFFFFFFFFFFFFFFFFFFFF AND MUL OR SWAP1 SSTORE POP DUP2 PUSH20 0xFFFFFFFFFFFFFFFFFFFFFFFFFFFFFFFFFFFFFFFF AND DUP2 PUSH20 0xFFFFFFFFFFFFFFFFFFFFFFFFFFFFFFFFFFFFFFFF AND PUSH32 0x8BE0079C531659141344CD1FD0A4F28419497F9722A3DAAFE3B4186F6B6457E0 PUSH1 0x40 MLOAD PUSH1 0x40 MLOAD DUP1 SWAP2 SUB SWAP1 LOG3 POP POP JUMP JUMPDEST PUSH1 0x0 CALLER SWAP1 POP SWAP1 JUMP JUMPDEST PUSH1 0x40 MLOAD DUP1 PUSH1 0xC0 ADD PUSH1 0x40 MSTORE DUP1 PUSH1 0x0 DUP2 MSTORE PUSH1 0x20 ADD PUSH1 0x0 PUSH20 0xFFFFFFFFFFFFFFFFFFFFFFFFFFFFFFFFFFFFFFFF AND DUP2 MSTORE PUSH1 0x20 ADD PUSH1 0x60 DUP2 MSTORE PUSH1 0x20 ADD PUSH1 0x0 DUP2 MSTORE PUSH1 0x20 ADD PUSH1 0x0 DUP2 MSTORE PUSH1 0x20 ADD PUSH1 0x0 DUP2 MSTORE POP SWAP1 JUMP JUMPDEST PUSH1 0x0 PUSH1 0x40 MLOAD SWAP1 POP SWAP1 JUMP JUMPDEST PUSH1 0x0 DUP1 REVERT JUMPDEST PUSH1 0x0 DUP1 REVERT JUMPDEST PUSH1 0x0 DUP1 REVERT JUMPDEST PUSH1 0x0 DUP1 REVERT JUMPDEST PUSH1 0x0 PUSH1 0x1F NOT PUSH1 0x1F DUP4 ADD AND SWAP1 POP SWAP2 SWAP1 POP JUMP JUMPDEST PUSH32 0x4E487B7100000000000000000000000000000000000000000000000000000000 PUSH1 0x0 MSTORE PUSH1 0x41 PUSH1 0x4 MSTORE PUSH1 0x24 PUSH1 0x0 REVERT JUMPDEST PUSH2 0x21A9 DUP3 PUSH2 0x2160 JUMP JUMPDEST DUP2 ADD DUP2 DUP2 LT PUSH8 0xFFFFFFFFFFFFFFFF DUP3 GT OR ISZERO PUSH2 0x21C8 JUMPI PUSH2 0x21C7 PUSH2 0x2171 JUMP JUMPDEST JUMPDEST DUP1 PUSH1 0x40 MSTORE POP POP POP JUMP JUMPDEST PUSH1 0x0 PUSH2 0x21DB PUSH2 0x2142 JUMP JUMPDEST SWAP1 POP PUSH2 0x21E7 DUP3 DUP3 PUSH2 0x21A0 JUMP JUMPDEST SWAP2 SWAP1 POP JUMP JUMPDEST PUSH1 0x0 PUSH8 0xFFFFFFFFFFFFFFFF DUP3 GT ISZERO PUSH2 0x2207 JUMPI PUSH2 0x2206 PUSH2 0x2171 JUMP JUMPDEST JUMPDEST PUSH2 0x2210 DUP3 PUSH2 0x2160 JUMP JUMPDEST SWAP1 POP PUSH1 0x20 DUP2 ADD SWAP1 POP SWAP2 SWAP1 POP JUMP JUMPDEST DUP3 DUP2 DUP4 CALLDATACOPY PUSH1 0x0 DUP4 DUP4 ADD MSTORE POP POP POP JUMP JUMPDEST PUSH1 0x0 PUSH2 0x223F PUSH2 0x223A DUP5 PUSH2 0x21EC JUMP JUMPDEST PUSH2 0x21D1 JUMP JUMPDEST SWAP1 POP DUP3 DUP2 MSTORE PUSH1 0x20 DUP2 ADD DUP5 DUP5 DUP5 ADD GT ISZERO PUSH2 0x225B JUMPI PUSH2 0x225A PUSH2 0x215B JUMP JUMPDEST JUMPDEST PUSH2 0x2266 DUP5 DUP3 DUP6 PUSH2 0x221D JUMP JUMPDEST POP SWAP4 SWAP3 POP POP POP JUMP JUMPDEST PUSH1 0x0 DUP3 PUSH1 0x1F DUP4 ADD SLT PUSH2 0x2283 JUMPI PUSH2 0x2282 PUSH2 0x2156 JUMP JUMPDEST JUMPDEST DUP2 CALLDATALOAD PUSH2 0x2293 DUP5 DUP3 PUSH1 0x20 DUP7 ADD PUSH2 0x222C JUMP JUMPDEST SWAP2 POP POP SWAP3 SWAP2 POP POP JUMP JUMPDEST PUSH1 0x0 PUSH1 0x20 DUP3 DUP5 SUB SLT ISZERO PUSH2 0x22B2 JUMPI PUSH2 0x22B1 PUSH2 0x214C JUMP JUMPDEST JUMPDEST PUSH1 0x0 DUP3 ADD CALLDATALOAD PUSH8 0xFFFFFFFFFFFFFFFF DUP2 GT ISZERO PUSH2 0x22D0 JUMPI PUSH2 0x22CF PUSH2 0x2151 JUMP JUMPDEST JUMPDEST PUSH2 0x22DC DUP5 DUP3 DUP6 ADD PUSH2 0x226E JUMP JUMPDEST SWAP2 POP POP SWAP3 SWAP2 POP POP JUMP JUMPDEST PUSH1 0x0 PUSH20 0xFFFFFFFFFFFFFFFFFFFFFFFFFFFFFFFFFFFFFFFF DUP3 AND SWAP1 POP SWAP2 SWAP1 POP JUMP JUMPDEST PUSH1 0x0 DUP2 SWAP1 POP SWAP2 SWAP1 POP JUMP JUMPDEST PUSH1 0x0 PUSH2 0x232A PUSH2 0x2325 PUSH2 0x2320 DUP5 PUSH2 0x22E5 JUMP JUMPDEST PUSH2 0x2305 JUMP JUMPDEST PUSH2 0x22E5 JUMP JUMPDEST SWAP1 POP SWAP2 SWAP1 POP JUMP JUMPDEST PUSH1 0x0 PUSH2 0x233C DUP3 PUSH2 0x230F JUMP JUMPDEST SWAP1 POP SWAP2 SWAP1 POP JUMP JUMPDEST PUSH1 0x0 PUSH2 0x234E DUP3 PUSH2 0x2331 JUMP JUMPDEST SWAP1 POP SWAP2 SWAP1 POP JUMP JUMPDEST PUSH2 0x235E DUP2 PUSH2 0x2343 JUMP JUMPDEST DUP3 MSTORE POP POP JUMP JUMPDEST PUSH1 0x0 PUSH1 0x20 DUP3 ADD SWAP1 POP PUSH2 0x2379 PUSH1 0x0 DUP4 ADD DUP5 PUSH2 0x2355 JUMP JUMPDEST SWAP3 SWAP2 POP POP JUMP JUMPDEST PUSH1 0x0 DUP2 SWAP1 POP SWAP2 SWAP1 POP JUMP JUMPDEST PUSH2 0x2392 DUP2 PUSH2 0x237F JUMP JUMPDEST DUP2 EQ PUSH2 0x239D JUMPI PUSH1 0x0 DUP1 REVERT JUMPDEST POP JUMP JUMPDEST PUSH1 0x0 DUP2 CALLDATALOAD SWAP1 POP PUSH2 0x23AF DUP2 PUSH2 0x2389 JUMP JUMPDEST SWAP3 SWAP2 POP POP JUMP JUMPDEST PUSH1 0x0 DUP1 PUSH1 0x40 DUP4 DUP6 SUB SLT ISZERO PUSH2 0x23CC JUMPI PUSH2 0x23CB PUSH2 0x214C JUMP JUMPDEST JUMPDEST PUSH1 0x0 PUSH2 0x23DA DUP6 DUP3 DUP7 ADD PUSH2 0x23A0 JUMP JUMPDEST SWAP3 POP POP PUSH1 0x20 PUSH2 0x23EB DUP6 DUP3 DUP7 ADD PUSH2 0x23A0 JUMP JUMPDEST SWAP2 POP POP SWAP3 POP SWAP3 SWAP1 POP JUMP JUMPDEST PUSH1 0x0 DUP2 MLOAD SWAP1 POP SWAP2 SWAP1 POP JUMP JUMPDEST PUSH1 0x0 DUP3 DUP3 MSTORE PUSH1 0x20 DUP3 ADD SWAP1 POP SWAP3 SWAP2 POP POP JUMP JUMPDEST PUSH1 0x0 DUP2 SWAP1 POP PUSH1 0x20 DUP3 ADD SWAP1 POP SWAP2 SWAP1 POP JUMP JUMPDEST PUSH2 0x242A DUP2 PUSH2 0x237F JUMP JUMPDEST DUP3 MSTORE POP POP JUMP JUMPDEST PUSH1 0x0 PUSH2 0x243B DUP3 PUSH2 0x22E5 JUMP JUMPDEST SWAP1 POP SWAP2 SWAP1 POP JUMP JUMPDEST PUSH2 0x244B DUP2 PUSH2 0x2430 JUMP JUMPDEST DUP3 MSTORE POP POP JUMP JUMPDEST PUSH1 0x0 DUP2 MLOAD SWAP1 POP SWAP2 SWAP1 POP JUMP JUMPDEST PUSH1 0x0 DUP3 DUP3 MSTORE PUSH1 0x20 DUP3 ADD SWAP1 POP SWAP3 SWAP2 POP POP JUMP JUMPDEST PUSH1 0x0 JUMPDEST DUP4 DUP2 LT ISZERO PUSH2 0x248B JUMPI DUP1 DUP3 ADD MLOAD DUP2 DUP5 ADD MSTORE PUSH1 0x20 DUP2 ADD SWAP1 POP PUSH2 0x2470 JUMP JUMPDEST PUSH1 0x0 DUP5 DUP5 ADD MSTORE POP POP POP POP JUMP JUMPDEST PUSH1 0x0 PUSH2 0x24A2 DUP3 PUSH2 0x2451 JUMP JUMPDEST PUSH2 0x24AC DUP2 DUP6 PUSH2 0x245C JUMP JUMPDEST SWAP4 POP PUSH2 0x24BC DUP2 DUP6 PUSH1 0x20 DUP7 ADD PUSH2 0x246D JUMP JUMPDEST PUSH2 0x24C5 DUP2 PUSH2 0x2160 JUMP JUMPDEST DUP5 ADD SWAP2 POP POP SWAP3 SWAP2 POP POP JUMP JUMPDEST PUSH1 0x0 PUSH1 0xC0 DUP4 ADD PUSH1 0x0 DUP4 ADD MLOAD PUSH2 0x24E8 PUSH1 0x0 DUP7 ADD DUP3 PUSH2 0x2421 JUMP JUMPDEST POP PUSH1 0x20 DUP4 ADD MLOAD PUSH2 0x24FB PUSH1 0x20 DUP7 ADD DUP3 PUSH2 0x2442 JUMP JUMPDEST POP PUSH1 0x40 DUP4 ADD MLOAD DUP5 DUP3 SUB PUSH1 0x40 DUP7 ADD MSTORE PUSH2 0x2513 DUP3 DUP3 PUSH2 0x2497 JUMP JUMPDEST SWAP2 POP POP PUSH1 0x60 DUP4 ADD MLOAD PUSH2 0x2528 PUSH1 0x60 DUP7 ADD DUP3 PUSH2 0x2421 JUMP JUMPDEST POP PUSH1 0x80 DUP4 ADD MLOAD PUSH2 0x253B PUSH1 0x80 DUP7 ADD DUP3 PUSH2 0x2421 JUMP JUMPDEST POP PUSH1 0xA0 DUP4 ADD MLOAD PUSH2 0x254E PUSH1 0xA0 DUP7 ADD DUP3 PUSH2 0x2421 JUMP JUMPDEST POP DUP1 SWAP2 POP POP SWAP3 SWAP2 POP POP JUMP JUMPDEST PUSH1 0x0 PUSH2 0x2565 DUP4 DUP4 PUSH2 0x24D0 JUMP JUMPDEST SWAP1 POP SWAP3 SWAP2 POP POP JUMP JUMPDEST PUSH1 0x0 PUSH1 0x20 DUP3 ADD SWAP1 POP SWAP2 SWAP1 POP JUMP JUMPDEST PUSH1 0x0 PUSH2 0x2585 DUP3 PUSH2 0x23F5 JUMP JUMPDEST PUSH2 0x258F DUP2 DUP6 PUSH2 0x2400 JUMP JUMPDEST SWAP4 POP DUP4 PUSH1 0x20 DUP3 MUL DUP6 ADD PUSH2 0x25A1 DUP6 PUSH2 0x2411 JUMP JUMPDEST DUP1 PUSH1 0x0 JUMPDEST DUP6 DUP2 LT ISZERO PUSH2 0x25DD JUMPI DUP5 DUP5 SUB DUP10 MSTORE DUP2 MLOAD PUSH2 0x25BE DUP6 DUP3 PUSH2 0x2559 JUMP JUMPDEST SWAP5 POP PUSH2 0x25C9 DUP4 PUSH2 0x256D JUMP JUMPDEST SWAP3 POP PUSH1 0x20 DUP11 ADD SWAP10 POP POP PUSH1 0x1 DUP2 ADD SWAP1 POP PUSH2 0x25A5 JUMP JUMPDEST POP DUP3 SWAP8 POP DUP8 SWAP6 POP POP POP POP POP POP SWAP3 SWAP2 POP POP JUMP JUMPDEST PUSH1 0x0 PUSH1 0x20 DUP3 ADD SWAP1 POP DUP2 DUP2 SUB PUSH1 0x0 DUP4 ADD MSTORE PUSH2 0x2609 DUP2 DUP5 PUSH2 0x257A JUMP JUMPDEST SWAP1 POP SWAP3 SWAP2 POP POP JUMP JUMPDEST PUSH1 0x0 PUSH1 0x20 DUP3 DUP5 SUB SLT ISZERO PUSH2 0x2627 JUMPI PUSH2 0x2626 PUSH2 0x214C JUMP JUMPDEST JUMPDEST PUSH1 0x0 PUSH2 0x2635 DUP5 DUP3 DUP6 ADD PUSH2 0x23A0 JUMP JUMPDEST SWAP2 POP POP SWAP3 SWAP2 POP POP JUMP JUMPDEST PUSH2 0x2647 DUP2 PUSH2 0x2430 JUMP JUMPDEST DUP2 EQ PUSH2 0x2652 JUMPI PUSH1 0x0 DUP1 REVERT JUMPDEST POP JUMP JUMPDEST PUSH1 0x0 DUP2 CALLDATALOAD SWAP1 POP PUSH2 0x2664 DUP2 PUSH2 0x263E JUMP JUMPDEST SWAP3 SWAP2 POP POP JUMP JUMPDEST PUSH1 0x0 PUSH1 0x20 DUP3 DUP5 SUB SLT ISZERO PUSH2 0x2680 JUMPI PUSH2 0x267F PUSH2 0x214C JUMP JUMPDEST JUMPDEST PUSH1 0x0 PUSH2 0x268E DUP5 DUP3 DUP6 ADD PUSH2 0x2655 JUMP JUMPDEST SWAP2 POP POP SWAP3 SWAP2 POP POP JUMP JUMPDEST PUSH2 0x26A0 DUP2 PUSH2 0x237F JUMP JUMPDEST DUP3 MSTORE POP POP JUMP JUMPDEST PUSH1 0x0 PUSH1 0x60 DUP3 ADD SWAP1 POP PUSH2 0x26BB PUSH1 0x0 DUP4 ADD DUP7 PUSH2 0x2697 JUMP JUMPDEST PUSH2 0x26C8 PUSH1 0x20 DUP4 ADD DUP6 PUSH2 0x2697 JUMP JUMPDEST PUSH2 0x26D5 PUSH1 0x40 DUP4 ADD DUP5 PUSH2 0x2697 JUMP JUMPDEST SWAP5 SWAP4 POP POP POP POP JUMP JUMPDEST PUSH2 0x26E6 DUP2 PUSH2 0x2430 JUMP JUMPDEST DUP3 MSTORE POP POP JUMP JUMPDEST PUSH1 0x0 PUSH1 0x20 DUP3 ADD SWAP1 POP PUSH2 0x2701 PUSH1 0x0 DUP4 ADD DUP5 PUSH2 0x26DD JUMP JUMPDEST SWAP3 SWAP2 POP POP JUMP JUMPDEST PUSH1 0x0 DUP1 PUSH1 0x40 DUP4 DUP6 SUB SLT ISZERO PUSH2 0x271E JUMPI PUSH2 0x271D PUSH2 0x214C JUMP JUMPDEST JUMPDEST PUSH1 0x0 PUSH2 0x272C DUP6 DUP3 DUP7 ADD PUSH2 0x23A0 JUMP JUMPDEST SWAP3 POP POP PUSH1 0x20 PUSH2 0x273D DUP6 DUP3 DUP7 ADD PUSH2 0x2655 JUMP JUMPDEST SWAP2 POP POP SWAP3 POP SWAP3 SWAP1 POP JUMP JUMPDEST PUSH1 0x0 DUP2 ISZERO ISZERO SWAP1 POP SWAP2 SWAP1 POP JUMP JUMPDEST PUSH2 0x275C DUP2 PUSH2 0x2747 JUMP JUMPDEST DUP3 MSTORE POP POP JUMP JUMPDEST PUSH1 0x0 PUSH1 0x20 DUP3 ADD SWAP1 POP PUSH2 0x2777 PUSH1 0x0 DUP4 ADD DUP5 PUSH2 0x2753 JUMP JUMPDEST SWAP3 SWAP2 POP POP JUMP JUMPDEST PUSH1 0x0 PUSH1 0x20 DUP3 ADD SWAP1 POP PUSH2 0x2792 PUSH1 0x0 DUP4 ADD DUP5 PUSH2 0x2697 JUMP JUMPDEST SWAP3 SWAP2 POP POP JUMP JUMPDEST PUSH1 0x0 DUP3 DUP3 MSTORE PUSH1 0x20 DUP3 ADD SWAP1 POP SWAP3 SWAP2 POP POP JUMP JUMPDEST PUSH1 0x0 PUSH2 0x27B4 DUP3 PUSH2 0x2451 JUMP JUMPDEST PUSH2 0x27BE DUP2 DUP6 PUSH2 0x2798 JUMP JUMPDEST SWAP4 POP PUSH2 0x27CE DUP2 DUP6 PUSH1 0x20 DUP7 ADD PUSH2 0x246D JUMP JUMPDEST PUSH2 0x27D7 DUP2 PUSH2 0x2160 JUMP JUMPDEST DUP5 ADD SWAP2 POP POP SWAP3 SWAP2 POP POP JUMP JUMPDEST PUSH1 0x0 PUSH1 0xC0 DUP3 ADD SWAP1 POP PUSH2 0x27F7 PUSH1 0x0 DUP4 ADD DUP10 PUSH2 0x2697 JUMP JUMPDEST PUSH2 0x2804 PUSH1 0x20 DUP4 ADD DUP9 PUSH2 0x26DD JUMP JUMPDEST DUP2 DUP2 SUB PUSH1 0x40 DUP4 ADD MSTORE PUSH2 0x2816 DUP2 DUP8 PUSH2 0x27A9 JUMP JUMPDEST SWAP1 POP PUSH2 0x2825 PUSH1 0x60 DUP4 ADD DUP7 PUSH2 0x2697 JUMP JUMPDEST PUSH2 0x2832 PUSH1 0x80 DUP4 ADD DUP6 PUSH2 0x2697 JUMP JUMPDEST PUSH2 0x283F PUSH1 0xA0 DUP4 ADD DUP5 PUSH2 0x2697 JUMP JUMPDEST SWAP8 SWAP7 POP POP POP POP POP POP POP JUMP JUMPDEST PUSH32 0x4E487B7100000000000000000000000000000000000000000000000000000000 PUSH1 0x0 MSTORE PUSH1 0x11 PUSH1 0x4 MSTORE PUSH1 0x24 PUSH1 0x0 REVERT JUMPDEST PUSH1 0x0 PUSH2 0x2884 DUP3 PUSH2 0x237F JUMP JUMPDEST SWAP2 POP PUSH32 0xFFFFFFFFFFFFFFFFFFFFFFFFFFFFFFFFFFFFFFFFFFFFFFFFFFFFFFFFFFFFFFFF DUP3 SUB PUSH2 0x28B6 JUMPI PUSH2 0x28B5 PUSH2 0x284A JUMP JUMPDEST JUMPDEST PUSH1 0x1 DUP3 ADD SWAP1 POP SWAP2 SWAP1 POP JUMP JUMPDEST PUSH32 0x4E487B7100000000000000000000000000000000000000000000000000000000 PUSH1 0x0 MSTORE PUSH1 0x22 PUSH1 0x4 MSTORE PUSH1 0x24 PUSH1 0x0 REVERT JUMPDEST PUSH1 0x0 PUSH1 0x2 DUP3 DIV SWAP1 POP PUSH1 0x1 DUP3 AND DUP1 PUSH2 0x2908 JUMPI PUSH1 0x7F DUP3 AND SWAP2 POP JUMPDEST PUSH1 0x20 DUP3 LT DUP2 SUB PUSH2 0x291B JUMPI PUSH2 0x291A PUSH2 0x28C1 JUMP JUMPDEST JUMPDEST POP SWAP2 SWAP1 POP JUMP JUMPDEST PUSH1 0x0 DUP2 SWAP1 POP DUP2 PUSH1 0x0 MSTORE PUSH1 0x20 PUSH1 0x0 KECCAK256 SWAP1 POP SWAP2 SWAP1 POP JUMP JUMPDEST PUSH1 0x0 PUSH1 0x20 PUSH1 0x1F DUP4 ADD DIV SWAP1 POP SWAP2 SWAP1 POP JUMP JUMPDEST PUSH1 0x0 DUP3 DUP3 SHL SWAP1 POP SWAP3 SWAP2 POP POP JUMP JUMPDEST PUSH1 0x0 PUSH1 0x8 DUP4 MUL PUSH2 0x2983 PUSH32 0xFFFFFFFFFFFFFFFFFFFFFFFFFFFFFFFFFFFFFFFFFFFFFFFFFFFFFFFFFFFFFFFF DUP3 PUSH2 0x2946 JUMP JUMPDEST PUSH2 0x298D DUP7 DUP4 PUSH2 0x2946 JUMP JUMPDEST SWAP6 POP DUP1 NOT DUP5 AND SWAP4 POP DUP1 DUP7 AND DUP5 OR SWAP3 POP POP POP SWAP4 SWAP3 POP POP POP JUMP JUMPDEST PUSH1 0x0 PUSH2 0x29C0 PUSH2 0x29BB PUSH2 0x29B6 DUP5 PUSH2 0x237F JUMP JUMPDEST PUSH2 0x2305 JUMP JUMPDEST PUSH2 0x237F JUMP JUMPDEST SWAP1 POP SWAP2 SWAP1 POP JUMP JUMPDEST PUSH1 0x0 DUP2 SWAP1 POP SWAP2 SWAP1 POP JUMP JUMPDEST PUSH2 0x29DA DUP4 PUSH2 0x29A5 JUMP JUMPDEST PUSH2 0x29EE PUSH2 0x29E6 DUP3 PUSH2 0x29C7 JUMP JUMPDEST DUP5 DUP5 SLOAD PUSH2 0x2953 JUMP JUMPDEST DUP3 SSTORE POP POP POP POP JUMP JUMPDEST PUSH1 0x0 SWAP1 JUMP JUMPDEST PUSH2 0x2A03 PUSH2 0x29F6 JUMP JUMPDEST PUSH2 0x2A0E DUP2 DUP5 DUP5 PUSH2 0x29D1 JUMP JUMPDEST POP POP POP JUMP JUMPDEST JUMPDEST DUP2 DUP2 LT ISZERO PUSH2 0x2A32 JUMPI PUSH2 0x2A27 PUSH1 0x0 DUP3 PUSH2 0x29FB JUMP JUMPDEST PUSH1 0x1 DUP2 ADD SWAP1 POP PUSH2 0x2A14 JUMP JUMPDEST POP POP JUMP JUMPDEST PUSH1 0x1F DUP3 GT ISZERO PUSH2 0x2A77 JUMPI PUSH2 0x2A48 DUP2 PUSH2 0x2921 JUMP JUMPDEST PUSH2 0x2A51 DUP5 PUSH2 0x2936 JUMP JUMPDEST DUP2 ADD PUSH1 0x20 DUP6 LT ISZERO PUSH2 0x2A60 JUMPI DUP2 SWAP1 POP JUMPDEST PUSH2 0x2A74 PUSH2 0x2A6C DUP6 PUSH2 0x2936 JUMP JUMPDEST DUP4 ADD DUP3 PUSH2 0x2A13 JUMP JUMPDEST POP POP JUMPDEST POP POP POP JUMP JUMPDEST PUSH1 0x0 DUP3 DUP3 SHR SWAP1 POP SWAP3 SWAP2 POP POP JUMP JUMPDEST PUSH1 0x0 PUSH2 0x2A9A PUSH1 0x0 NOT DUP5 PUSH1 0x8 MUL PUSH2 0x2A7C JUMP JUMPDEST NOT DUP1 DUP4 AND SWAP2 POP POP SWAP3 SWAP2 POP POP JUMP JUMPDEST PUSH1 0x0 PUSH2 0x2AB3 DUP4 DUP4 PUSH2 0x2A89 JUMP JUMPDEST SWAP2 POP DUP3 PUSH1 0x2 MUL DUP3 OR SWAP1 POP SWAP3 SWAP2 POP POP JUMP JUMPDEST PUSH2 0x2ACC DUP3 PUSH2 0x2451 JUMP JUMPDEST PUSH8 0xFFFFFFFFFFFFFFFF DUP2 GT ISZERO PUSH2 0x2AE5 JUMPI PUSH2 0x2AE4 PUSH2 0x2171 JUMP JUMPDEST JUMPDEST PUSH2 0x2AEF DUP3 SLOAD PUSH2 0x28F0 JUMP JUMPDEST PUSH2 0x2AFA DUP3 DUP3 DUP6 PUSH2 0x2A36 JUMP JUMPDEST PUSH1 0x0 PUSH1 0x20 SWAP1 POP PUSH1 0x1F DUP4 GT PUSH1 0x1 DUP2 EQ PUSH2 0x2B2D JUMPI PUSH1 0x0 DUP5 ISZERO PUSH2 0x2B1B JUMPI DUP3 DUP8 ADD MLOAD SWAP1 POP JUMPDEST PUSH2 0x2B25 DUP6 DUP3 PUSH2 0x2AA7 JUMP JUMPDEST DUP7 SSTORE POP PUSH2 0x2B8D JUMP JUMPDEST PUSH1 0x1F NOT DUP5 AND PUSH2 0x2B3B DUP7 PUSH2 0x2921 JUMP JUMPDEST PUSH1 0x0 JUMPDEST DUP3 DUP2 LT ISZERO PUSH2 0x2B63 JUMPI DUP5 DUP10 ADD MLOAD DUP3 SSTORE PUSH1 0x1 DUP3 ADD SWAP2 POP PUSH1 0x20 DUP6 ADD SWAP5 POP PUSH1 0x20 DUP2 ADD SWAP1 POP PUSH2 0x2B3E JUMP JUMPDEST DUP7 DUP4 LT ISZERO PUSH2 0x2B80 JUMPI DUP5 DUP10 ADD MLOAD PUSH2 0x2B7C PUSH1 0x1F DUP10 AND DUP3 PUSH2 0x2A89 JUMP JUMPDEST DUP4 SSTORE POP JUMPDEST PUSH1 0x1 PUSH1 0x2 DUP9 MUL ADD DUP9 SSTORE POP POP POP JUMPDEST POP POP POP POP POP POP JUMP JUMPDEST PUSH1 0x0 PUSH1 0x20 DUP3 ADD SWAP1 POP DUP2 DUP2 SUB PUSH1 0x0 DUP4 ADD MSTORE PUSH2 0x2BAF DUP2 DUP5 PUSH2 0x27A9 JUMP JUMPDEST SWAP1 POP SWAP3 SWAP2 POP POP JUMP JUMPDEST PUSH1 0x0 PUSH2 0x2BC2 DUP3 PUSH2 0x237F JUMP JUMPDEST SWAP2 POP PUSH2 0x2BCD DUP4 PUSH2 0x237F JUMP JUMPDEST SWAP3 POP DUP3 DUP3 SUB SWAP1 POP DUP2 DUP2 GT ISZERO PUSH2 0x2BE5 JUMPI PUSH2 0x2BE4 PUSH2 0x284A JUMP JUMPDEST JUMPDEST SWAP3 SWAP2 POP POP JUMP JUMPDEST PUSH32 0x4E487B7100000000000000000000000000000000000000000000000000000000 PUSH1 0x0 MSTORE PUSH1 0x32 PUSH1 0x4 MSTORE PUSH1 0x24 PUSH1 0x0 REVERT JUMPDEST PUSH32 0x4E465420636F6E7472616374206E6F7420736574000000000000000000000000 PUSH1 0x0 DUP3 ADD MSTORE POP JUMP JUMPDEST PUSH1 0x0 PUSH2 0x2C50 PUSH1 0x14 DUP4 PUSH2 0x2798 JUMP JUMPDEST SWAP2 POP PUSH2 0x2C5B DUP3 PUSH2 0x2C1A JUMP JUMPDEST PUSH1 0x20 DUP3 ADD SWAP1 POP SWAP2 SWAP1 POP JUMP JUMPDEST PUSH1 0x0 PUSH1 0x20 DUP3 ADD SWAP1 POP DUP2 DUP2 SUB PUSH1 0x0 DUP4 ADD MSTORE PUSH2 0x2C7F DUP2 PUSH2 0x2C43 JUMP JUMPDEST SWAP1 POP SWAP2 SWAP1 POP JUMP JUMPDEST PUSH32 0x426164676520616C726561647920636C61696D65640000000000000000000000 PUSH1 0x0 DUP3 ADD MSTORE POP JUMP JUMPDEST PUSH1 0x0 PUSH2 0x2CBC PUSH1 0x15 DUP4 PUSH2 0x2798 JUMP JUMPDEST SWAP2 POP PUSH2 0x2CC7 DUP3 PUSH2 0x2C86 JUMP JUMPDEST PUSH1 0x20 DUP3 ADD SWAP1 POP SWAP2 SWAP1 POP JUMP JUMPDEST PUSH1 0x0 PUSH1 0x20 DUP3 ADD SWAP1 POP DUP2 DUP2 SUB PUSH1 0x0 DUP4 ADD MSTORE PUSH2 0x2CEB DUP2 PUSH2 0x2CAF JUMP JUMPDEST SWAP1 POP SWAP2 SWAP1 POP JUMP JUMPDEST PUSH32 0x4E6F7420656C696769626C6520666F7220746869732062616467650000000000 PUSH1 0x0 DUP3 ADD MSTORE POP JUMP JUMPDEST PUSH1 0x0 PUSH2 0x2D28 PUSH1 0x1B DUP4 PUSH2 0x2798 JUMP JUMPDEST SWAP2 POP PUSH2 0x2D33 DUP3 PUSH2 0x2CF2 JUMP JUMPDEST PUSH1 0x20 DUP3 ADD SWAP1 POP SWAP2 SWAP1 POP JUMP JUMPDEST PUSH1 0x0 PUSH1 0x20 DUP3 ADD SWAP1 POP DUP2 DUP2 SUB PUSH1 0x0 DUP4 ADD MSTORE PUSH2 0x2D57 DUP2 PUSH2 0x2D1B JUMP JUMPDEST SWAP1 POP SWAP2 SWAP1 POP JUMP JUMPDEST PUSH1 0x0 PUSH1 0x40 DUP3 ADD SWAP1 POP PUSH2 0x2D73 PUSH1 0x0 DUP4 ADD DUP6 PUSH2 0x26DD JUMP JUMPDEST PUSH2 0x2D80 PUSH1 0x20 DUP4 ADD DUP5 PUSH2 0x2697 JUMP JUMPDEST SWAP4 SWAP3 POP POP POP JUMP JUMPDEST PUSH32 0x4A6F6B6520646F6573206E6F7420657869737400000000000000000000000000 PUSH1 0x0 DUP3 ADD MSTORE POP JUMP JUMPDEST PUSH1 0x0 PUSH2 0x2DBD PUSH1 0x13 DUP4 PUSH2 0x2798 JUMP JUMPDEST SWAP2 POP PUSH2 0x2DC8 DUP3 PUSH2 0x2D87 JUMP JUMPDEST PUSH1 0x20 DUP3 ADD SWAP1 POP SWAP2 SWAP1 POP JUMP JUMPDEST PUSH1 0x0 PUSH1 0x20 DUP3 ADD SWAP1 POP DUP2 DUP2 SUB PUSH1 0x0 DUP4 ADD MSTORE PUSH2 0x2DEC DUP2 PUSH2 0x2DB0 JUMP JUMPDEST SWAP1 POP SWAP2 SWAP1 POP JUMP JUMPDEST PUSH32 0x54697020616D6F756E74206D7573742062652067726561746572207468616E20 PUSH1 0x0 DUP3 ADD MSTORE PUSH32 0x7A65726F00000000000000000000000000000000000000000000000000000000 PUSH1 0x20 DUP3 ADD MSTORE POP JUMP JUMPDEST PUSH1 0x0 PUSH2 0x2E4F PUSH1 0x24 DUP4 PUSH2 0x2798 JUMP JUMPDEST SWAP2 POP PUSH2 0x2E5A DUP3 PUSH2 0x2DF3 JUMP JUMPDEST PUSH1 0x40 DUP3 ADD SWAP1 POP SWAP2 SWAP1 POP JUMP JUMPDEST PUSH1 0x0 PUSH1 0x20 DUP3 ADD SWAP1 POP DUP2 DUP2 SUB PUSH1 0x0 DUP4 ADD MSTORE PUSH2 0x2E7E DUP2 PUSH2 0x2E42 JUMP JUMPDEST SWAP1 POP SWAP2 SWAP1 POP JUMP JUMPDEST PUSH32 0x43616E6E6F742074697020796F7572206F776E206A6F6B650000000000000000 PUSH1 0x0 DUP3 ADD MSTORE POP JUMP JUMPDEST PUSH1 0x0 PUSH2 0x2EBB PUSH1 0x18 DUP4 PUSH2 0x2798 JUMP JUMPDEST SWAP2 POP PUSH2 0x2EC6 DUP3 PUSH2 0x2E85 JUMP JUMPDEST PUSH1 0x20 DUP3 ADD SWAP1 POP SWAP2 SWAP1 POP JUMP JUMPDEST PUSH1 0x0 PUSH1 0x20 DUP3 ADD SWAP1 POP DUP2 DUP2 SUB PUSH1 0x0 DUP4 ADD MSTORE PUSH2 0x2EEA DUP2 PUSH2 0x2EAE JUMP JUMPDEST SWAP1 POP SWAP2 SWAP1 POP JUMP JUMPDEST PUSH1 0x0 PUSH1 0x60 DUP3 ADD SWAP1 POP PUSH2 0x2F06 PUSH1 0x0 DUP4 ADD DUP7 PUSH2 0x26DD JUMP JUMPDEST PUSH2 0x2F13 PUSH1 0x20 DUP4 ADD DUP6 PUSH2 0x26DD JUMP JUMPDEST PUSH2 0x2F20 PUSH1 0x40 DUP4 ADD DUP5 PUSH2 0x2697 JUMP JUMPDEST SWAP5 SWAP4 POP POP POP POP JUMP JUMPDEST PUSH2 0x2F31 DUP2 PUSH2 0x2747 JUMP JUMPDEST DUP2 EQ PUSH2 0x2F3C JUMPI PUSH1 0x0 DUP1 REVERT JUMPDEST POP JUMP JUMPDEST PUSH1 0x0 DUP2 MLOAD SWAP1 POP PUSH2 0x2F4E DUP2 PUSH2 0x2F28 JUMP JUMPDEST SWAP3 SWAP2 POP POP JUMP JUMPDEST PUSH1 0x0 PUSH1 0x20 DUP3 DUP5 SUB SLT ISZERO PUSH2 0x2F6A JUMPI PUSH2 0x2F69 PUSH2 0x214C JUMP JUMPDEST JUMPDEST PUSH1 0x0 PUSH2 0x2F78 DUP5 DUP3 DUP6 ADD PUSH2 0x2F3F JUMP JUMPDEST SWAP2 POP POP SWAP3 SWAP2 POP POP JUMP JUMPDEST PUSH32 0x55534443207472616E73666572206661696C6564000000000000000000000000 PUSH1 0x0 DUP3 ADD MSTORE POP JUMP JUMPDEST PUSH1 0x0 PUSH2 0x2FB7 PUSH1 0x14 DUP4 PUSH2 0x2798 JUMP JUMPDEST SWAP2 POP PUSH2 0x2FC2 DUP3 PUSH2 0x2F81 JUMP JUMPDEST PUSH1 0x20 DUP3 ADD SWAP1 POP SWAP2 SWAP1 POP JUMP JUMPDEST PUSH1 0x0 PUSH1 0x20 DUP3 ADD SWAP1 POP DUP2 DUP2 SUB PUSH1 0x0 DUP4 ADD MSTORE PUSH2 0x2FE6 DUP2 PUSH2 0x2FAA JUMP JUMPDEST SWAP1 POP SWAP2 SWAP1 POP JUMP JUMPDEST PUSH1 0x0 PUSH2 0x2FF8 DUP3 PUSH2 0x237F JUMP JUMPDEST SWAP2 POP PUSH2 0x3003 DUP4 PUSH2 0x237F JUMP JUMPDEST SWAP3 POP DUP3 DUP3 ADD SWAP1 POP DUP1 DUP3 GT ISZERO PUSH2 0x301B JUMPI PUSH2 0x301A PUSH2 0x284A JUMP JUMPDEST JUMPDEST SWAP3 SWAP2 POP POP JUMP JUMPDEST PUSH32 0x43616E6E6F74206C696B6520796F7572206F776E206A6F6B6500000000000000 PUSH1 0x0 DUP3 ADD MSTORE POP JUMP JUMPDEST PUSH1 0x0 PUSH2 0x3057 PUSH1 0x19 DUP4 PUSH2 0x2798 JUMP JUMPDEST SWAP2 POP PUSH2 0x3062 DUP3 PUSH2 0x3021 JUMP JUMPDEST PUSH1 0x20 DUP3 ADD SWAP1 POP SWAP2 SWAP1 POP JUMP JUMPDEST PUSH1 0x0 PUSH1 0x20 DUP3 ADD SWAP1 POP DUP2 DUP2 SUB PUSH1 0x0 DUP4 ADD MSTORE PUSH2 0x3086 DUP2 PUSH2 0x304A JUMP JUMPDEST SWAP1 POP SWAP2 SWAP1 POP JUMP JUMPDEST PUSH32 0x416C7265616479206C696B656400000000000000000000000000000000000000 PUSH1 0x0 DUP3 ADD MSTORE POP JUMP JUMPDEST PUSH1 0x0 PUSH2 0x30C3 PUSH1 0xD DUP4 PUSH2 0x2798 JUMP JUMPDEST SWAP2 POP PUSH2 0x30CE DUP3 PUSH2 0x308D JUMP JUMPDEST PUSH1 0x20 DUP3 ADD SWAP1 POP SWAP2 SWAP1 POP JUMP JUMPDEST PUSH1 0x0 PUSH1 0x20 DUP3 ADD SWAP1 POP DUP2 DUP2 SUB PUSH1 0x0 DUP4 ADD MSTORE PUSH2 0x30F2 DUP2 PUSH2 0x30B6 JUMP JUMPDEST SWAP1 POP SWAP2 SWAP1 POP JUMP INVALID LOG2 PUSH5 0x6970667358 0x22 SLT KECCAK256 0x24 MLOAD EXP 0xAA 0xC0 SWAP12 0xE6 BYTE 0xE5 0xDC 0xB0 PUSH16 0xA7DA201DE7FBDC6DD02D0D09B1AFB5ED 0x2A SSTORE RETURNDATACOPY 0xB9 PUSH5 0x736F6C6343 STOP ADDMOD EQ STOP CALLER "},"methodIdentifiers":{"claimBadge(uint256)":"23415135","getJokesPaginated(uint256,uint256)":"1810e77a","getUserProfile(address)":"987ee156","hasLiked(uint256,address)":"8fb7092c","jokes(uint256)":"a64d4998","likeJoke(uint256)":"f8085c28","nftContractAddress()":"aae282e1","owner()":"8da5cb5b","renounceOwnership()":"715018a6","setNftContractAddress(address)":"da31d640","submitJoke(string)":"0283a03a","tipJoke(uint256,uint256)":"8070e600","totalJokes()":"ebdd3748","totalTips()":"990de8ae","totalUsers()":"bff1f9e1","transferOwnership(address)":"f2fde38b","usdcToken()":"11eac855","userProfiles(address)":"332d56d7"}}}}}