{"src/Counter.sol":{"Counter":{"abi":[{"inputs":[],"name":"increment","outputs":[],"stateMutability":"nonpayable","type":"function"},{"inputs":[],"name":"number","outputs":[{"internalType":"uint256","name":"","type":"uint256"}],"stateMutability":"view","type":"function"},{"inputs":[{"internalType":"uint256","name":"newNumber","type":"uint256"}],"name":"setNumber","outputs":[],"stateMutability":"nonpayable","type":"function"}],"evm":{"bytecode":{"linkReferences":{},"object":"608060405234801561001057600080fd5b50610245806100206000396000f3fe608060405234801561001057600080fd5b50600436106100415760003560e01c80633fb5c1cb146100465780638381f58a14610062578063d09de08a14610080575b600080fd5b610060600480360381019061005b9190610141565b61008a565b005b61006a6100bc565b604051610077919061017d565b60405180910390f35b6100886100c2565b005b61009e67e7fbf6006a61290a60c01b610103565b6100b26740ba6cd75479977e60c01b610103565b8060008190555050565b60005481565b6100d667e80eec00ec1323a860c01b610103565b6100ea6717f46b95d94c072460c01b610103565b6000808154809291906100fc906101c7565b9190505550565b50565b600080fd5b6000819050919050565b61011e8161010b565b811461012957600080fd5b50565b60008135905061013b81610115565b92915050565b60006020828403121561015757610156610106565b5b60006101658482850161012c565b91505092915050565b6101778161010b565b82525050565b6000602082019050610192600083018461016e565b92915050565b7f4e487b7100000000000000000000000000000000000000000000000000000000600052601160045260246000fd5b60006101d28261010b565b91507fffffffffffffffffffffffffffffffffffffffffffffffffffffffffffffffff820361020457610203610198565b5b60018201905091905056fea2646970667358221220127a84e768342a323ff4182ccf5280887cfa6f4c2e537ed1daec0605e84dd57c64736f6c63430008140033","opcodes":"PUSH1 0x80 PUSH1 0x40 MSTORE CALLVALUE DUP1 ISZERO PUSH2 0x10 JUMPI PUSH1 0x0 DUP1 REVERT JUMPDEST POP PUSH2 0x245 DUP1 PUSH2 0x20 PUSH1 0x0 CODECOPY PUSH1 0x0 RETURN INVALID PUSH1 0x80 PUSH1 0x40 MSTORE CALLVALUE DUP1 ISZERO PUSH2 0x10 JUMPI PUSH1 0x0 DUP1 REVERT JUMPDEST POP PUSH1 0x4 CALLDATASIZE LT PUSH2 0x41 JUMPI PUSH1 0x0 CALLDATALOAD PUSH1 0xE0 SHR DUP1 PUSH4 0x3FB5C1CB EQ PUSH2 0x46 JUMPI DUP1 PUSH4 0x8381F58A EQ PUSH2 0x62 JUMPI DUP1 PUSH4 0xD09DE08A EQ PUSH2 0x80 JUMPI JUMPDEST PUSH1 0x0 DUP1 REVERT JUMPDEST PUSH2 0x60 PUSH1 0x4 DUP1 CALLDATASIZE SUB DUP2 ADD SWAP1 PUSH2 0x5B SWAP2 SWAP1 PUSH2 0x141 JUMP JUMPDEST PUSH2 0x8A JUMP JUMPDEST STOP JUMPDEST PUSH2 0x6A PUSH2 0xBC JUMP JUMPDEST PUSH1 0x40 MLOAD PUSH2 0x77 SWAP2 SWAP1 PUSH2 0x17D JUMP JUMPDEST PUSH1 0x40 MLOAD DUP1 SWAP2 SUB SWAP1 RETURN JUMPDEST PUSH2 0x88 PUSH2 0xC2 JUMP JUMPDEST STOP JUMPDEST PUSH2 0x9E PUSH8 0xE7FBF6006A61290A PUSH1 0xC0 SHL PUSH2 0x103 JUMP JUMPDEST PUSH2 0xB2 PUSH8 0x40BA6CD75479977E PUSH1 0xC0 SHL PUSH2 0x103 JUMP JUMPDEST DUP1 PUSH1 0x0 DUP2 SWAP1 SSTORE POP POP JUMP JUMPDEST PUSH1 0x0 SLOAD DUP2 JUMP JUMPDEST PUSH2 0xD6 PUSH8 0xE80EEC00EC1323A8 PUSH1 0xC0 SHL PUSH2 0x103 JUMP JUMPDEST PUSH2 0xEA PUSH8 0x17F46B95D94C0724 PUSH1 0xC0 SHL PUSH2 0x103 JUMP JUMPDEST PUSH1 0x0 DUP1 DUP2 SLOAD DUP1 SWAP3 SWAP2 SWAP1 PUSH2 0xFC SWAP1 PUSH2 0x1C7 JUMP JUMPDEST SWAP2 SWAP1 POP SSTORE POP JUMP JUMPDEST POP JUMP JUMPDEST PUSH1 0x0 DUP1 REVERT JUMPDEST PUSH1 0x0 DUP2 SWAP1 POP SWAP2 SWAP1 POP JUMP JUMPDEST PUSH2 0x11E DUP2 PUSH2 0x10B JUMP JUMPDEST DUP2 EQ PUSH2 0x129 JUMPI PUSH1 0x0 DUP1 REVERT JUMPDEST POP JUMP JUMPDEST PUSH1 0x0 DUP2 CALLDATALOAD SWAP1 POP PUSH2 0x13B DUP2 PUSH2 0x115 JUMP JUMPDEST SWAP3 SWAP2 POP POP JUMP JUMPDEST PUSH1 0x0 PUSH1 0x20 DUP3 DUP5 SUB SLT ISZERO PUSH2 0x157 JUMPI PUSH2 0x156 PUSH2 0x106 JUMP JUMPDEST JUMPDEST PUSH1 0x0 PUSH2 0x165 DUP5 DUP3 DUP6 ADD PUSH2 0x12C JUMP JUMPDEST SWAP2 POP POP SWAP3 SWAP2 POP POP JUMP JUMPDEST PUSH2 0x177 DUP2 PUSH2 0x10B JUMP JUMPDEST DUP3 MSTORE POP POP JUMP JUMPDEST PUSH1 0x0 PUSH1 0x20 DUP3 ADD SWAP1 POP PUSH2 0x192 PUSH1 0x0 DUP4 ADD DUP5 PUSH2 0x16E JUMP JUMPDEST SWAP3 SWAP2 POP POP JUMP JUMPDEST PUSH32 0x4E487B7100000000000000000000000000000000000000000000000000000000 PUSH1 0x0 MSTORE PUSH1 0x11 PUSH1 0x4 MSTORE PUSH1 0x24 PUSH1 0x0 REVERT JUMPDEST PUSH1 0x0 PUSH2 0x1D2 DUP3 PUSH2 0x10B JUMP JUMPDEST SWAP2 POP PUSH32 0xFFFFFFFFFFFFFFFFFFFFFFFFFFFFFFFFFFFFFFFFFFFFFFFFFFFFFFFFFFFFFFFF DUP3 SUB PUSH2 0x204 JUMPI PUSH2 0x203 PUSH2 0x198 JUMP JUMPDEST JUMPDEST PUSH1 0x1 DUP3 ADD SWAP1 POP SWAP2 SWAP1 POP JUMP INVALID LOG2 PUSH5 0x6970667358 0x22 SLT KECCAK256 SLT PUSH27 0x84E768342A323FF4182CCF5280887CFA6F4C2E537ED1DAEC0605E8 0x4D 0xD5 PUSH29 0x64736F6C63430008140033000000000000000000000000000000000000 "},"methodIdentifiers":{"increment()":"d09de08a","number()":"8381f58a","setNumber(uint256)":"3fb5c1cb"}}}}}