{
  "_format": "hh-sol-artifact-1",
  "contractName": "Counter",
  "sourceName": "src/Counter.sol",
  "abi": [
    {
      "inputs": [],
      "name": "increment",
      "outputs": [],
      "stateMutability": "nonpayable",
      "type": "function"
    },
    {
      "inputs": [],
      "name": "number",
      "outputs": [
        {
          "internalType": "uint256",
          "name": "",
          "type": "uint256"
        }
      ],
      "stateMutability": "view",
      "type": "function"
    },
    {
      "inputs": [
        {
          "internalType": "uint256",
          "name": "newNumber",
          "type": "uint256"
        }
      ],
      "name": "setNumber",
      "outputs": [],
      "stateMutability": "nonpayable",
      "type": "function"
    }
  ],
  "bytecode": "0x608060405234801561001057600080fd5b50610245806100206000396000f3fe608060405234801561001057600080fd5b50600436106100415760003560e01c80633fb5c1cb146100465780638381f58a14610062578063d09de08a14610080575b600080fd5b610060600480360381019061005b9190610141565b61008a565b005b61006a6100bc565b604051610077919061017d565b60405180910390f35b6100886100c2565b005b61009e67e7fbf6006a61290a60c01b610103565b6100b26740ba6cd75479977e60c01b610103565b8060008190555050565b60005481565b6100d667e80eec00ec1323a860c01b610103565b6100ea6717f46b95d94c072460c01b610103565b6000808154809291906100fc906101c7565b9190505550565b50565b600080fd5b6000819050919050565b61011e8161010b565b811461012957600080fd5b50565b60008135905061013b81610115565b92915050565b60006020828403121561015757610156610106565b5b60006101658482850161012c565b91505092915050565b6101778161010b565b82525050565b6000602082019050610192600083018461016e565b92915050565b7f4e487b7100000000000000000000000000000000000000000000000000000000600052601160045260246000fd5b60006101d28261010b565b91507fffffffffffffffffffffffffffffffffffffffffffffffffffffffffffffffff820361020457610203610198565b5b60018201905091905056fea2646970667358221220127a84e768342a323ff4182ccf5280887cfa6f4c2e537ed1daec0605e84dd57c64736f6c63430008140033",
  "linkReferences": {},
  "deployedLinkReferences": {}
}