{
  "_format": "hh-sol-artifact-1",
  "contractName": "DadChainCore",
  "sourceName": "src/DadChainCore.sol",
  "abi": [
    {
      "inputs": [
        {
          "internalType": "address",
          "name": "_usdcTokenAddress",
          "type": "address"
        }
      ],
      "stateMutability": "nonpayable",
      "type": "constructor"
    },
    {
      "inputs": [
        {
          "internalType": "address",
          "name": "owner",
          "type": "address"
        }
      ],
      "name": "OwnableInvalidOwner",
      "type": "error"
    },
    {
      "inputs": [
        {
          "internalType": "address",
          "name": "account",
          "type": "address"
        }
      ],
      "name": "OwnableUnauthorizedAccount",
      "type": "error"
    },
    {
      "anonymous": false,
      "inputs": [
        {
          "indexed": true,
          "internalType": "address",
          "name": "user",
          "type": "address"
        },
        {
          "indexed": true,
          "internalType": "uint256",
          "name": "badgeId",
          "type": "uint256"
        }
      ],
      "name": "BadgeClaimed",
      "type": "event"
    },
    {
      "anonymous": false,
      "inputs": [
        {
          "indexed": true,
          "internalType": "uint256",
          "name": "jokeId",
          "type": "uint256"
        },
        {
          "indexed": true,
          "internalType": "address",
          "name": "liker",
          "type": "address"
        }
      ],
      "name": "JokeLiked",
      "type": "event"
    },
    {
      "anonymous": false,
      "inputs": [
        {
          "indexed": true,
          "internalType": "uint256",
          "name": "jokeId",
          "type": "uint256"
        },
        {
          "indexed": true,
          "internalType": "address",
          "name": "creator",
          "type": "address"
        },
        {
          "indexed": false,
          "internalType": "string",
          "name": "content",
          "type": "string"
        },
        {
          "indexed": false,
          "internalType": "string",
          "name": "imageURI",
          "type": "string"
        }
      ],
      "name": "JokeSubmitted",
      "type": "event"
    },
    {
      "anonymous": false,
      "inputs": [
        {
          "indexed": true,
          "internalType": "uint256",
          "name": "jokeId",
          "type": "uint256"
        },
        {
          "indexed": true,
          "internalType": "address",
          "name": "tipper",
          "type": "address"
        },
        {
          "indexed": true,
          "internalType": "address",
          "name": "creator",
          "type": "address"
        },
        {
          "indexed": false,
          "internalType": "uint256",
          "name": "amount",
          "type": "uint256"
        }
      ],
      "name": "JokeTipped",
      "type": "event"
    },
    {
      "anonymous": false,
      "inputs": [
        {
          "indexed": true,
          "internalType": "address",
          "name": "previousOwner",
          "type": "address"
        },
        {
          "indexed": true,
          "internalType": "address",
          "name": "newOwner",
          "type": "address"
        }
      ],
      "name": "OwnershipTransferred",
      "type": "event"
    },
    {
      "inputs": [
        {
          "internalType": "uint256",
          "name": "_badgeId",
          "type": "uint256"
        }
      ],
      "name": "claimBadge",
      "outputs": [],
      "stateMutability": "nonpayable",
      "type": "function"
    },
    {
      "inputs": [
        {
          "internalType": "uint256",
          "name": "_cursor",
          "type": "uint256"
        },
        {
          "internalType": "uint256",
          "name": "_pageSize",
          "type": "uint256"
        }
      ],
      "name": "getJokesPaginated",
      "outputs": [
        {
          "components": [
            {
              "internalType": "uint256",
              "name": "id",
              "type": "uint256"
            },
            {
              "internalType": "address",
              "name": "creator",
              "type": "address"
            },
            {
              "internalType": "string",
              "name": "content",
              "type": "string"
            },
            {
              "internalType": "string",
              "name": "imageURI",
              "type": "string"
            },
            {
              "internalType": "uint256",
              "name": "timestamp",
              "type": "uint256"
            },
            {
              "internalType": "uint256",
              "name": "likeCount",
              "type": "uint256"
            },
            {
              "internalType": "uint256",
              "name": "tipAmount",
              "type": "uint256"
            }
          ],
          "internalType": "struct DadChainCore.Joke[]",
          "name": "",
          "type": "tuple[]"
        }
      ],
      "stateMutability": "view",
      "type": "function"
    },
    {
      "inputs": [
        {
          "internalType": "address",
          "name": "_user",
          "type": "address"
        }
      ],
      "name": "getUserProfile",
      "outputs": [
        {
          "internalType": "uint256",
          "name": "",
          "type": "uint256"
        },
        {
          "internalType": "uint256",
          "name": "",
          "type": "uint256"
        },
        {
          "internalType": "uint256",
          "name": "",
          "type": "uint256"
        }
      ],
      "stateMutability": "view",
      "type": "function"
    },
    {
      "inputs": [
        {
          "internalType": "uint256",
          "name": "",
          "type": "uint256"
        },
        {
          "internalType": "address",
          "name": "",
          "type": "address"
        }
      ],
      "name": "hasLiked",
      "outputs": [
        {
          "internalType": "bool",
          "name": "",
          "type": "bool"
        }
      ],
      "stateMutability": "view",
      "type": "function"
    },
    {
      "inputs": [
        {
          "internalType": "address",
          "name": "_user",
          "type": "address"
        },
        {
          "internalType": "uint256",
          "name": "_badgeId",
          "type": "uint256"
        }
      ],
      "name": "hasUserClaimedBadge",
      "outputs": [
        {
          "internalType": "bool",
          "name": "",
          "type": "bool"
        }
      ],
      "stateMutability": "view",
      "type": "function"
    },
    {
      "inputs": [
        {
          "internalType": "uint256",
          "name": "",
          "type": "uint256"
        }
      ],
      "name": "jokes",
      "outputs": [
        {
          "internalType": "uint256",
          "name": "id",
          "type": "uint256"
        },
        {
          "internalType": "address",
          "name": "creator",
          "type": "address"
        },
        {
          "internalType": "string",
          "name": "content",
          "type": "string"
        },
        {
          "internalType": "string",
          "name": "imageURI",
          "type": "string"
        },
        {
          "internalType": "uint256",
          "name": "timestamp",
          "type": "uint256"
        },
        {
          "internalType": "uint256",
          "name": "likeCount",
          "type": "uint256"
        },
        {
          "internalType": "uint256",
          "name": "tipAmount",
          "type": "uint256"
        }
      ],
      "stateMutability": "view",
      "type": "function"
    },
    {
      "inputs": [
        {
          "internalType": "uint256",
          "name": "_jokeId",
          "type": "uint256"
        }
      ],
      "name": "likeJoke",
      "outputs": [],
      "stateMutability": "nonpayable",
      "type": "function"
    },
    {
      "inputs": [],
      "name": "nftContractAddress",
      "outputs": [
        {
          "internalType": "address",
          "name": "",
          "type": "address"
        }
      ],
      "stateMutability": "view",
      "type": "function"
    },
    {
      "inputs": [],
      "name": "owner",
      "outputs": [
        {
          "internalType": "address",
          "name": "",
          "type": "address"
        }
      ],
      "stateMutability": "view",
      "type": "function"
    },
    {
      "inputs": [],
      "name": "renounceOwnership",
      "outputs": [],
      "stateMutability": "nonpayable",
      "type": "function"
    },
    {
      "inputs": [
        {
          "internalType": "address",
          "name": "_nftContractAddress",
          "type": "address"
        }
      ],
      "name": "setNftContractAddress",
      "outputs": [],
      "stateMutability": "nonpayable",
      "type": "function"
    },
    {
      "inputs": [
        {
          "internalType": "string",
          "name": "_content",
          "type": "string"
        },
        {
          "internalType": "string",
          "name": "_imageURI",
          "type": "string"
        }
      ],
      "name": "submitJoke",
      "outputs": [],
      "stateMutability": "nonpayable",
      "type": "function"
    },
    {
      "inputs": [
        {
          "internalType": "uint256",
          "name": "_jokeId",
          "type": "uint256"
        },
        {
          "internalType": "uint256",
          "name": "_amount",
          "type": "uint256"
        }
      ],
      "name": "tipJoke",
      "outputs": [],
      "stateMutability": "nonpayable",
      "type": "function"
    },
    {
      "inputs": [],
      "name": "totalJokes",
      "outputs": [
        {
          "internalType": "uint256",
          "name": "",
          "type": "uint256"
        }
      ],
      "stateMutability": "view",
      "type": "function"
    },
    {
      "inputs": [],
      "name": "totalTips",
      "outputs": [
        {
          "internalType": "uint256",
          "name": "",
          "type": "uint256"
        }
      ],
      "stateMutability": "view",
      "type": "function"
    },
    {
      "inputs": [],
      "name": "totalUsers",
      "outputs": [
        {
          "internalType": "uint256",
          "name": "",
          "type": "uint256"
        }
      ],
      "stateMutability": "view",
      "type": "function"
    },
    {
      "inputs": [
        {
          "internalType": "address",
          "name": "newOwner",
          "type": "address"
        }
      ],
      "name": "transferOwnership",
      "outputs": [],
      "stateMutability": "nonpayable",
      "type": "function"
    },
    {
      "inputs": [],
      "name": "usdcToken",
      "outputs": [
        {
          "internalType": "contract IERC20",
          "name": "",
          "type": "address"
        }
      ],
      "stateMutability": "view",
      "type": "function"
    },
    {
      "inputs": [
        {
          "internalType": "address",
          "name": "",
          "type": "address"
        }
      ],
      "name": "userProfiles",
      "outputs": [
        {
          "internalType": "uint256",
          "name": "jokeCount",
          "type": "uint256"
        },
        {
          "internalType": "uint256",
          "name": "totalLikesReceived",
          "type": "uint256"
        },
        {
          "internalType": "uint256",
          "name": "totalTipsReceived",
          "type": "uint256"
        }
      ],
      "stateMutability": "view",
      "type": "function"
    }
  ],
  "bytecode": "0x60806040523480156200001157600080fd5b5060405162002b4538038062002b45833981810160405281019062000037919062000235565b33600073ffffffffffffffffffffffffffffffffffffffff168173ffffffffffffffffffffffffffffffffffffffff1603620000ad5760006040517f1e4fbdf7000000000000000000000000000000000000000000000000000000008152600401620000a4919062000278565b60405180910390fd5b620000be816200010760201b60201c565b5080600160006101000a81548173ffffffffffffffffffffffffffffffffffffffff021916908373ffffffffffffffffffffffffffffffffffffffff1602179055505062000295565b60008060009054906101000a900473ffffffffffffffffffffffffffffffffffffffff169050816000806101000a81548173ffffffffffffffffffffffffffffffffffffffff021916908373ffffffffffffffffffffffffffffffffffffffff1602179055508173ffffffffffffffffffffffffffffffffffffffff168173ffffffffffffffffffffffffffffffffffffffff167f8be0079c531659141344cd1fd0a4f28419497f9722a3daafe3b4186f6b6457e060405160405180910390a35050565b600080fd5b600073ffffffffffffffffffffffffffffffffffffffff82169050919050565b6000620001fd82620001d0565b9050919050565b6200020f81620001f0565b81146200021b57600080fd5b50565b6000815190506200022f8162000204565b92915050565b6000602082840312156200024e576200024d620001cb565b5b60006200025e848285016200021e565b91505092915050565b6200027281620001f0565b82525050565b60006020820190506200028f600083018462000267565b92915050565b6128a080620002a56000396000f3fe608060405234801561001057600080fd5b50600436106101215760003560e01c8063987ee156116100ad578063d40ac90911610071578063d40ac90914610328578063da31d64014610344578063ebdd374814610360578063f2fde38b1461037e578063f8085c281461039a57610121565b8063987ee15614610266578063990de8ae14610298578063a64d4998146102b6578063aae282e1146102ec578063bff1f9e11461030a57610121565b8063332d56d7116100f4578063332d56d7146101c0578063715018a6146101f25780638070e600146101fc5780638da5cb5b146102185780638fb7092c1461023657610121565b806311eac855146101265780631810e77a146101445780631bca81b81461017457806323415135146101a4575b600080fd5b61012e6103b6565b60405161013b919061187f565b60405180910390f35b61015e600480360381019061015991906118e4565b6103dc565b60405161016b9190611b49565b60405180910390f35b61018e60048036038101906101899190611b97565b610688565b60405161019b9190611bf2565b60405180910390f35b6101be60048036038101906101b99190611c0d565b6106f3565b005b6101da60048036038101906101d59190611c3a565b6109ca565b6040516101e993929190611c76565b60405180910390f35b6101fa6109f4565b005b610216600480360381019061021191906118e4565b610a08565b005b610220610d7d565b60405161022d9190611cbc565b60405180910390f35b610250600480360381019061024b9190611cd7565b610da6565b60405161025d9190611bf2565b60405180910390f35b610280600480360381019061027b9190611c3a565b610dd5565b60405161028f93929190611c76565b60405180910390f35b6102a0610e39565b6040516102ad9190611d17565b60405180910390f35b6102d060048036038101906102cb9190611c0d565b610e3f565b6040516102e39796959493929190611d7c565b60405180910390f35b6102f4610fb1565b6040516103019190611cbc565b60405180910390f35b610312610fd7565b60405161031f9190611d17565b60405180910390f35b610342600480360381019061033d9190611f2e565b610fdd565b005b61035e60048036038101906103599190611c3a565b6111af565b005b6103686111fb565b6040516103759190611d17565b60405180910390f35b61039860048036038101906103939190611c3a565b611201565b005b6103b460048036038101906103af9190611c0d565b611287565b005b600160009054906101000a900473ffffffffffffffffffffffffffffffffffffffff1681565b606060008290506000808514806103f4575060075485115b61040a576001856104059190611fd5565b61040e565b6007545b90508082111561041c578091505b60008267ffffffffffffffff81111561043857610437611e03565b5b60405190808252806020026020018201604052801561047157816020015b61045e6117ad565b8152602001906001900390816104565790505b50905060005b8381101561067b5760036000828561048f9190611fd5565b81526020019081526020016000206040518060e0016040529081600082015481526020016001820160009054906101000a900473ffffffffffffffffffffffffffffffffffffffff1673ffffffffffffffffffffffffffffffffffffffff1673ffffffffffffffffffffffffffffffffffffffff16815260200160028201805461051890612038565b80601f016020809104026020016040519081016040528092919081815260200182805461054490612038565b80156105915780601f1061056657610100808354040283529160200191610591565b820191906000526020600020905b81548152906001019060200180831161057457829003601f168201915b505050505081526020016003820180546105aa90612038565b80601f01602080910402602001604051908101604052809291908181526020018280546105d690612038565b80156106235780601f106105f857610100808354040283529160200191610623565b820191906000526020600020905b81548152906001019060200180831161060657829003601f168201915b50505050508152602001600482015481526020016005820154815260200160068201548152505082828151811061065d5761065c612069565b5b6020026020010181905250808061067390612098565b915050610477565b5080935050505092915050565b6000600460008473ffffffffffffffffffffffffffffffffffffffff1673ffffffffffffffffffffffffffffffffffffffff168152602001908152602001600020600301600083815260200190815260200160002060009054906101000a900460ff16905092915050565b600073ffffffffffffffffffffffffffffffffffffffff16600260009054906101000a900473ffffffffffffffffffffffffffffffffffffffff1673ffffffffffffffffffffffffffffffffffffffff1603610784576040517f08c379a000000000000000000000000000000000000000000000000000000000815260040161077b9061212c565b60405180910390fd5b6000600460003373ffffffffffffffffffffffffffffffffffffffff1673ffffffffffffffffffffffffffffffffffffffff168152602001908152602001600020905080600301600083815260200190815260200160002060009054906101000a900460ff161561082a576040517f08c379a000000000000000000000000000000000000000000000000000000000815260040161082190612198565b60405180910390fd5b60006001830361084a57600182600001541061084557600190505b610884565b6002830361086857600582600001541061086357600190505b610883565b6003830361088257600a82600001541061088157600190505b5b5b5b806108c4576040517f08c379a00000000000000000000000000000000000000000000000000000000081526004016108bb90612204565b60405180910390fd5b600182600301600085815260200190815260200160002060006101000a81548160ff021916908315150217905550600260009054906101000a900473ffffffffffffffffffffffffffffffffffffffff1673ffffffffffffffffffffffffffffffffffffffff166340c10f1933856040518363ffffffff1660e01b815260040161094f929190612224565b600060405180830381600087803b15801561096957600080fd5b505af115801561097d573d6000803e3d6000fd5b50505050823373ffffffffffffffffffffffffffffffffffffffff167fbdaec09f93a9e010d98b043dd79efaaa052a0eed6b10c9ffe87c8f7e256da56f60405160405180910390a3505050565b60046020528060005260406000206000915090508060000154908060010154908060020154905083565b6109fc611595565b610a06600061161c565b565b6000600360008481526020019081526020016000206000015403610a61576040517f08c379a0000000000000000000000000000000000000000000000000000000008152600401610a5890612299565b60405180910390fd5b60008111610aa4576040517f08c379a0000000000000000000000000000000000000000000000000000000008152600401610a9b9061232b565b60405180910390fd5b3373ffffffffffffffffffffffffffffffffffffffff166003600084815260200190815260200160002060010160009054906101000a900473ffffffffffffffffffffffffffffffffffffffff1673ffffffffffffffffffffffffffffffffffffffff1603610b48576040517f08c379a0000000000000000000000000000000000000000000000000000000008152600401610b3f90612397565b60405180910390fd5b610b51336116e0565b60006003600084815260200190815260200160002060010160009054906101000a900473ffffffffffffffffffffffffffffffffffffffff1690506000600160009054906101000a900473ffffffffffffffffffffffffffffffffffffffff1673ffffffffffffffffffffffffffffffffffffffff166323b872dd3384866040518463ffffffff1660e01b8152600401610bed939291906123b7565b6020604051808303816000875af1158015610c0c573d6000803e3d6000fd5b505050506040513d601f19601f82011682018060405250810190610c30919061241a565b905080610c72576040517f08c379a0000000000000000000000000000000000000000000000000000000008152600401610c6990612493565b60405180910390fd5b82600360008681526020019081526020016000206006016000828254610c9891906124b3565b9250508190555082600460008473ffffffffffffffffffffffffffffffffffffffff1673ffffffffffffffffffffffffffffffffffffffff1681526020019081526020016000206002016000828254610cf191906124b3565b925050819055508260086000828254610d0a91906124b3565b925050819055508173ffffffffffffffffffffffffffffffffffffffff163373ffffffffffffffffffffffffffffffffffffffff16857f6272b66d083c9df27986e8ae861a91622134f112b252f1badf215c36a9399a4386604051610d6f9190611d17565b60405180910390a450505050565b60008060009054906101000a900473ffffffffffffffffffffffffffffffffffffffff16905090565b60056020528160005260406000206020528060005260406000206000915091509054906101000a900460ff1681565b600080600080600460008673ffffffffffffffffffffffffffffffffffffffff1673ffffffffffffffffffffffffffffffffffffffff1681526020019081526020016000209050806000015481600101548260020154935093509350509193909250565b60085481565b60036020528060005260406000206000915090508060000154908060010160009054906101000a900473ffffffffffffffffffffffffffffffffffffffff1690806002018054610e8e90612038565b80601f0160208091040260200160405190810160405280929190818152602001828054610eba90612038565b8015610f075780601f10610edc57610100808354040283529160200191610f07565b820191906000526020600020905b815481529060010190602001808311610eea57829003601f168201915b505050505090806003018054610f1c90612038565b80601f0160208091040260200160405190810160405280929190818152602001828054610f4890612038565b8015610f955780601f10610f6a57610100808354040283529160200191610f95565b820191906000526020600020905b815481529060010190602001808311610f7857829003601f168201915b5050505050908060040154908060050154908060060154905087565b600260009054906101000a900473ffffffffffffffffffffffffffffffffffffffff1681565b60095481565b610fe6336116e0565b60076000815480929190610ff990612098565b9190505550600060075490506040518060e001604052808281526020013373ffffffffffffffffffffffffffffffffffffffff168152602001848152602001838152602001428152602001600081526020016000815250600360008381526020019081526020016000206000820151816000015560208201518160010160006101000a81548173ffffffffffffffffffffffffffffffffffffffff021916908373ffffffffffffffffffffffffffffffffffffffff16021790555060408201518160020190816110c99190612689565b5060608201518160030190816110df9190612689565b506080820151816004015560a0820151816005015560c08201518160060155905050600460003373ffffffffffffffffffffffffffffffffffffffff1673ffffffffffffffffffffffffffffffffffffffff168152602001908152602001600020600001600081548092919061115490612098565b91905055503373ffffffffffffffffffffffffffffffffffffffff16817ff16173137d9b7abc07fd54984762b43cf65c3fe6afc58356838f2e9551f0262a85856040516111a292919061275b565b60405180910390a3505050565b6111b7611595565b80600260006101000a81548173ffffffffffffffffffffffffffffffffffffffff021916908373ffffffffffffffffffffffffffffffffffffffff16021790555050565b60075481565b611209611595565b600073ffffffffffffffffffffffffffffffffffffffff168173ffffffffffffffffffffffffffffffffffffffff160361127b5760006040517f1e4fbdf70000000000000000000000000000000000000000000000000000000081526004016112729190611cbc565b60405180910390fd5b6112848161161c565b50565b60006003600083815260200190815260200160002060000154036112e0576040517f08c379a00000000000000000000000000000000000000000000000000000000081526004016112d790612299565b60405180910390fd5b3373ffffffffffffffffffffffffffffffffffffffff166003600083815260200190815260200160002060010160009054906101000a900473ffffffffffffffffffffffffffffffffffffffff1673ffffffffffffffffffffffffffffffffffffffff1603611384576040517f08c379a000000000000000000000000000000000000000000000000000000000815260040161137b906127de565b60405180910390fd5b6005600082815260200190815260200160002060003373ffffffffffffffffffffffffffffffffffffffff1673ffffffffffffffffffffffffffffffffffffffff16815260200190815260200160002060009054906101000a900460ff1615611422576040517f08c379a00000000000000000000000000000000000000000000000000000000081526004016114199061284a565b60405180910390fd5b61142b336116e0565b60036000828152602001908152602001600020600501600081548092919061145290612098565b9190505550600460006003600084815260200190815260200160002060010160009054906101000a900473ffffffffffffffffffffffffffffffffffffffff1673ffffffffffffffffffffffffffffffffffffffff1673ffffffffffffffffffffffffffffffffffffffff16815260200190815260200160002060010160008154809291906114e090612098565b919050555060016005600083815260200190815260200160002060003373ffffffffffffffffffffffffffffffffffffffff1673ffffffffffffffffffffffffffffffffffffffff16815260200190815260200160002060006101000a81548160ff0219169083151502179055503373ffffffffffffffffffffffffffffffffffffffff16817f836976eaa7e1c8e3e2988acea5a119a89127d8965c1b61c071c787a21593f70260405160405180910390a350565b61159d6117a5565b73ffffffffffffffffffffffffffffffffffffffff166115bb610d7d565b73ffffffffffffffffffffffffffffffffffffffff161461161a576115de6117a5565b6040517f118cdaa70000000000000000000000000000000000000000000000000000000081526004016116119190611cbc565b60405180910390fd5b565b60008060009054906101000a900473ffffffffffffffffffffffffffffffffffffffff169050816000806101000a81548173ffffffffffffffffffffffffffffffffffffffff021916908373ffffffffffffffffffffffffffffffffffffffff1602179055508173ffffffffffffffffffffffffffffffffffffffff168173ffffffffffffffffffffffffffffffffffffffff167f8be0079c531659141344cd1fd0a4f28419497f9722a3daafe3b4186f6b6457e060405160405180910390a35050565b600660008273ffffffffffffffffffffffffffffffffffffffff1673ffffffffffffffffffffffffffffffffffffffff16815260200190815260200160002060009054906101000a900460ff166117a2576001600660008373ffffffffffffffffffffffffffffffffffffffff1673ffffffffffffffffffffffffffffffffffffffff16815260200190815260200160002060006101000a81548160ff0219169083151502179055506009600081548092919061179c90612098565b91905055505b50565b600033905090565b6040518060e0016040528060008152602001600073ffffffffffffffffffffffffffffffffffffffff16815260200160608152602001606081526020016000815260200160008152602001600081525090565b600073ffffffffffffffffffffffffffffffffffffffff82169050919050565b6000819050919050565b600061184561184061183b84611800565b611820565b611800565b9050919050565b60006118578261182a565b9050919050565b60006118698261184c565b9050919050565b6118798161185e565b82525050565b60006020820190506118946000830184611870565b92915050565b6000604051905090565b600080fd5b600080fd5b6000819050919050565b6118c1816118ae565b81146118cc57600080fd5b50565b6000813590506118de816118b8565b92915050565b600080604083850312156118fb576118fa6118a4565b5b6000611909858286016118cf565b925050602061191a858286016118cf565b9150509250929050565b600081519050919050565b600082825260208201905092915050565b6000819050602082019050919050565b611959816118ae565b82525050565b600061196a82611800565b9050919050565b61197a8161195f565b82525050565b600081519050919050565b600082825260208201905092915050565b60005b838110156119ba57808201518184015260208101905061199f565b60008484015250505050565b6000601f19601f8301169050919050565b60006119e282611980565b6119ec818561198b565b93506119fc81856020860161199c565b611a05816119c6565b840191505092915050565b600060e083016000830151611a286000860182611950565b506020830151611a3b6020860182611971565b5060408301518482036040860152611a5382826119d7565b91505060608301518482036060860152611a6d82826119d7565b9150506080830151611a826080860182611950565b5060a0830151611a9560a0860182611950565b5060c0830151611aa860c0860182611950565b508091505092915050565b6000611abf8383611a10565b905092915050565b6000602082019050919050565b6000611adf82611924565b611ae9818561192f565b935083602082028501611afb85611940565b8060005b85811015611b375784840389528151611b188582611ab3565b9450611b2383611ac7565b925060208a01995050600181019050611aff565b50829750879550505050505092915050565b60006020820190508181036000830152611b638184611ad4565b905092915050565b611b748161195f565b8114611b7f57600080fd5b50565b600081359050611b9181611b6b565b92915050565b60008060408385031215611bae57611bad6118a4565b5b6000611bbc85828601611b82565b9250506020611bcd858286016118cf565b9150509250929050565b60008115159050919050565b611bec81611bd7565b82525050565b6000602082019050611c076000830184611be3565b92915050565b600060208284031215611c2357611c226118a4565b5b6000611c31848285016118cf565b91505092915050565b600060208284031215611c5057611c4f6118a4565b5b6000611c5e84828501611b82565b91505092915050565b611c70816118ae565b82525050565b6000606082019050611c8b6000830186611c67565b611c986020830185611c67565b611ca56040830184611c67565b949350505050565b611cb68161195f565b82525050565b6000602082019050611cd16000830184611cad565b92915050565b60008060408385031215611cee57611ced6118a4565b5b6000611cfc858286016118cf565b9250506020611d0d85828601611b82565b9150509250929050565b6000602082019050611d2c6000830184611c67565b92915050565b600082825260208201905092915050565b6000611d4e82611980565b611d588185611d32565b9350611d6881856020860161199c565b611d71816119c6565b840191505092915050565b600060e082019050611d91600083018a611c67565b611d9e6020830189611cad565b8181036040830152611db08188611d43565b90508181036060830152611dc48187611d43565b9050611dd36080830186611c67565b611de060a0830185611c67565b611ded60c0830184611c67565b98975050505050505050565b600080fd5b600080fd5b7f4e487b7100000000000000000000000000000000000000000000000000000000600052604160045260246000fd5b611e3b826119c6565b810181811067ffffffffffffffff82111715611e5a57611e59611e03565b5b80604052505050565b6000611e6d61189a565b9050611e798282611e32565b919050565b600067ffffffffffffffff821115611e9957611e98611e03565b5b611ea2826119c6565b9050602081019050919050565b82818337600083830152505050565b6000611ed1611ecc84611e7e565b611e63565b905082815260208101848484011115611eed57611eec611dfe565b5b611ef8848285611eaf565b509392505050565b600082601f830112611f1557611f14611df9565b5b8135611f25848260208601611ebe565b91505092915050565b60008060408385031215611f4557611f446118a4565b5b600083013567ffffffffffffffff811115611f6357611f626118a9565b5b611f6f85828601611f00565b925050602083013567ffffffffffffffff811115611f9057611f8f6118a9565b5b611f9c85828601611f00565b9150509250929050565b7f4e487b7100000000000000000000000000000000000000000000000000000000600052601160045260246000fd5b6000611fe0826118ae565b9150611feb836118ae565b925082820390508181111561200357612002611fa6565b5b92915050565b7f4e487b7100000000000000000000000000000000000000000000000000000000600052602260045260246000fd5b6000600282049050600182168061205057607f821691505b60208210810361206357612062612009565b5b50919050565b7f4e487b7100000000000000000000000000000000000000000000000000000000600052603260045260246000fd5b60006120a3826118ae565b91507fffffffffffffffffffffffffffffffffffffffffffffffffffffffffffffffff82036120d5576120d4611fa6565b5b600182019050919050565b7f4e465420636f6e7472616374206e6f7420736574000000000000000000000000600082015250565b6000612116601483611d32565b9150612121826120e0565b602082019050919050565b6000602082019050818103600083015261214581612109565b9050919050565b7f426164676520616c726561647920636c61696d65640000000000000000000000600082015250565b6000612182601583611d32565b915061218d8261214c565b602082019050919050565b600060208201905081810360008301526121b181612175565b9050919050565b7f4e6f7420656c696769626c6520666f7220746869732062616467650000000000600082015250565b60006121ee601b83611d32565b91506121f9826121b8565b602082019050919050565b6000602082019050818103600083015261221d816121e1565b9050919050565b60006040820190506122396000830185611cad565b6122466020830184611c67565b9392505050565b7f4a6f6b6520646f6573206e6f7420657869737400000000000000000000000000600082015250565b6000612283601383611d32565b915061228e8261224d565b602082019050919050565b600060208201905081810360008301526122b281612276565b9050919050565b7f54697020616d6f756e74206d7573742062652067726561746572207468616e2060008201527f7a65726f00000000000000000000000000000000000000000000000000000000602082015250565b6000612315602483611d32565b9150612320826122b9565b604082019050919050565b6000602082019050818103600083015261234481612308565b9050919050565b7f43616e6e6f742074697020796f7572206f776e206a6f6b650000000000000000600082015250565b6000612381601883611d32565b915061238c8261234b565b602082019050919050565b600060208201905081810360008301526123b081612374565b9050919050565b60006060820190506123cc6000830186611cad565b6123d96020830185611cad565b6123e66040830184611c67565b949350505050565b6123f781611bd7565b811461240257600080fd5b50565b600081519050612414816123ee565b92915050565b6000602082840312156124305761242f6118a4565b5b600061243e84828501612405565b91505092915050565b7f55534443207472616e73666572206661696c6564000000000000000000000000600082015250565b600061247d601483611d32565b915061248882612447565b602082019050919050565b600060208201905081810360008301526124ac81612470565b9050919050565b60006124be826118ae565b91506124c9836118ae565b92508282019050808211156124e1576124e0611fa6565b5b92915050565b60008190508160005260206000209050919050565b60006020601f8301049050919050565b600082821b905092915050565b6000600883026125497fffffffffffffffffffffffffffffffffffffffffffffffffffffffffffffffff8261250c565b612553868361250c565b95508019841693508086168417925050509392505050565b600061258661258161257c846118ae565b611820565b6118ae565b9050919050565b6000819050919050565b6125a08361256b565b6125b46125ac8261258d565b848454612519565b825550505050565b600090565b6125c96125bc565b6125d4818484612597565b505050565b5b818110156125f8576125ed6000826125c1565b6001810190506125da565b5050565b601f82111561263d5761260e816124e7565b612617846124fc565b81016020851015612626578190505b61263a612632856124fc565b8301826125d9565b50505b505050565b600082821c905092915050565b600061266060001984600802612642565b1980831691505092915050565b6000612679838361264f565b9150826002028217905092915050565b61269282611980565b67ffffffffffffffff8111156126ab576126aa611e03565b5b6126b58254612038565b6126c08282856125fc565b600060209050601f8311600181146126f357600084156126e1578287015190505b6126eb858261266d565b865550612753565b601f198416612701866124e7565b60005b8281101561272957848901518255600182019150602085019450602081019050612704565b868310156127465784890151612742601f89168261264f565b8355505b6001600288020188555050505b505050505050565b600060408201905081810360008301526127758185611d43565b905081810360208301526127898184611d43565b90509392505050565b7f43616e6e6f74206c696b6520796f7572206f776e206a6f6b6500000000000000600082015250565b60006127c8601983611d32565b91506127d382612792565b602082019050919050565b600060208201905081810360008301526127f7816127bb565b9050919050565b7f416c7265616479206c696b656400000000000000000000000000000000000000600082015250565b6000612834600d83611d32565b915061283f826127fe565b602082019050919050565b6000602082019050818103600083015261286381612827565b905091905056fea2646970667358221220ab1f755d107ed8b969d84925d09c1c0f17a2037368b841fa6aa4e8105f632e2e64736f6c63430008140033",
  "linkReferences": {},
  "deployedLinkReferences": {}
}