{
  "_format": "hh-sol-artifact-1",
  "contractName": "DadChainCore",
  "sourceName": "src/DadChainCore.sol",
  "abi": [
    {
      "inputs": [
        {
          "internalType": "address",
          "name": "_usdcTokenAddress",
          "type": "address"
        }
      ],
      "stateMutability": "nonpayable",
      "type": "constructor"
    },
    {
      "inputs": [
        {
          "internalType": "address",
          "name": "owner",
          "type": "address"
        }
      ],
      "name": "OwnableInvalidOwner",
      "type": "error"
    },
    {
      "inputs": [
        {
          "internalType": "address",
          "name": "account",
          "type": "address"
        }
      ],
      "name": "OwnableUnauthorizedAccount",
      "type": "error"
    },
    {
      "anonymous": false,
      "inputs": [
        {
          "indexed": true,
          "internalType": "address",
          "name": "user",
          "type": "address"
        },
        {
          "indexed": true,
          "internalType": "uint256",
          "name": "badgeId",
          "type": "uint256"
        }
      ],
      "name": "BadgeClaimed",
      "type": "event"
    },
    {
      "anonymous": false,
      "inputs": [
        {
          "indexed": true,
          "internalType": "uint256",
          "name": "jokeId",
          "type": "uint256"
        },
        {
          "indexed": true,
          "internalType": "address",
          "name": "liker",
          "type": "address"
        }
      ],
      "name": "JokeLiked",
      "type": "event"
    },
    {
      "anonymous": false,
      "inputs": [
        {
          "indexed": true,
          "internalType": "uint256",
          "name": "jokeId",
          "type": "uint256"
        },
        {
          "indexed": true,
          "internalType": "address",
          "name": "creator",
          "type": "address"
        },
        {
          "indexed": false,
          "internalType": "string",
          "name": "content",
          "type": "string"
        }
      ],
      "name": "JokeSubmitted",
      "type": "event"
    },
    {
      "anonymous": false,
      "inputs": [
        {
          "indexed": true,
          "internalType": "uint256",
          "name": "jokeId",
          "type": "uint256"
        },
        {
          "indexed": true,
          "internalType": "address",
          "name": "tipper",
          "type": "address"
        },
        {
          "indexed": true,
          "internalType": "address",
          "name": "creator",
          "type": "address"
        },
        {
          "indexed": false,
          "internalType": "uint256",
          "name": "amount",
          "type": "uint256"
        }
      ],
      "name": "JokeTipped",
      "type": "event"
    },
    {
      "anonymous": false,
      "inputs": [
        {
          "indexed": true,
          "internalType": "address",
          "name": "previousOwner",
          "type": "address"
        },
        {
          "indexed": true,
          "internalType": "address",
          "name": "newOwner",
          "type": "address"
        }
      ],
      "name": "OwnershipTransferred",
      "type": "event"
    },
    {
      "inputs": [
        {
          "internalType": "uint256",
          "name": "_badgeId",
          "type": "uint256"
        }
      ],
      "name": "claimBadge",
      "outputs": [],
      "stateMutability": "nonpayable",
      "type": "function"
    },
    {
      "inputs": [
        {
          "internalType": "uint256",
          "name": "_cursor",
          "type": "uint256"
        },
        {
          "internalType": "uint256",
          "name": "_pageSize",
          "type": "uint256"
        }
      ],
      "name": "getJokesPaginated",
      "outputs": [
        {
          "components": [
            {
              "internalType": "uint256",
              "name": "id",
              "type": "uint256"
            },
            {
              "internalType": "address",
              "name": "creator",
              "type": "address"
            },
            {
              "internalType": "string",
              "name": "content",
              "type": "string"
            },
            {
              "internalType": "uint256",
              "name": "timestamp",
              "type": "uint256"
            },
            {
              "internalType": "uint256",
              "name": "likeCount",
              "type": "uint256"
            },
            {
              "internalType": "uint256",
              "name": "tipAmount",
              "type": "uint256"
            }
          ],
          "internalType": "struct DadChainCore.Joke[]",
          "name": "",
          "type": "tuple[]"
        }
      ],
      "stateMutability": "view",
      "type": "function"
    },
    {
      "inputs": [
        {
          "internalType": "address",
          "name": "_user",
          "type": "address"
        }
      ],
      "name": "getUserProfile",
      "outputs": [
        {
          "internalType": "uint256",
          "name": "",
          "type": "uint256"
        },
        {
          "internalType": "uint256",
          "name": "",
          "type": "uint256"
        },
        {
          "internalType": "uint256",
          "name": "",
          "type": "uint256"
        }
      ],
      "stateMutability": "view",
      "type": "function"
    },
    {
      "inputs": [
        {
          "internalType": "uint256",
          "name": "",
          "type": "uint256"
        },
        {
          "internalType": "address",
          "name": "",
          "type": "address"
        }
      ],
      "name": "hasLiked",
      "outputs": [
        {
          "internalType": "bool",
          "name": "",
          "type": "bool"
        }
      ],
      "stateMutability": "view",
      "type": "function"
    },
    {
      "inputs": [
        {
          "internalType": "uint256",
          "name": "",
          "type": "uint256"
        }
      ],
      "name": "jokes",
      "outputs": [
        {
          "internalType": "uint256",
          "name": "id",
          "type": "uint256"
        },
        {
          "internalType": "address",
          "name": "creator",
          "type": "address"
        },
        {
          "internalType": "string",
          "name": "content",
          "type": "string"
        },
        {
          "internalType": "uint256",
          "name": "timestamp",
          "type": "uint256"
        },
        {
          "internalType": "uint256",
          "name": "likeCount",
          "type": "uint256"
        },
        {
          "internalType": "uint256",
          "name": "tipAmount",
          "type": "uint256"
        }
      ],
      "stateMutability": "view",
      "type": "function"
    },
    {
      "inputs": [
        {
          "internalType": "uint256",
          "name": "_jokeId",
          "type": "uint256"
        }
      ],
      "name": "likeJoke",
      "outputs": [],
      "stateMutability": "nonpayable",
      "type": "function"
    },
    {
      "inputs": [],
      "name": "nftContractAddress",
      "outputs": [
        {
          "internalType": "address",
          "name": "",
          "type": "address"
        }
      ],
      "stateMutability": "view",
      "type": "function"
    },
    {
      "inputs": [],
      "name": "owner",
      "outputs": [
        {
          "internalType": "address",
          "name": "",
          "type": "address"
        }
      ],
      "stateMutability": "view",
      "type": "function"
    },
    {
      "inputs": [],
      "name": "renounceOwnership",
      "outputs": [],
      "stateMutability": "nonpayable",
      "type": "function"
    },
    {
      "inputs": [
        {
          "internalType": "address",
          "name": "_nftContractAddress",
          "type": "address"
        }
      ],
      "name": "setNftContractAddress",
      "outputs": [],
      "stateMutability": "nonpayable",
      "type": "function"
    },
    {
      "inputs": [
        {
          "internalType": "string",
          "name": "_content",
          "type": "string"
        }
      ],
      "name": "submitJoke",
      "outputs": [],
      "stateMutability": "nonpayable",
      "type": "function"
    },
    {
      "inputs": [
        {
          "internalType": "uint256",
          "name": "_jokeId",
          "type": "uint256"
        },
        {
          "internalType": "uint256",
          "name": "_amount",
          "type": "uint256"
        }
      ],
      "name": "tipJoke",
      "outputs": [],
      "stateMutability": "nonpayable",
      "type": "function"
    },
    {
      "inputs": [],
      "name": "totalJokes",
      "outputs": [
        {
          "internalType": "uint256",
          "name": "",
          "type": "uint256"
        }
      ],
      "stateMutability": "view",
      "type": "function"
    },
    {
      "inputs": [],
      "name": "totalTips",
      "outputs": [
        {
          "internalType": "uint256",
          "name": "",
          "type": "uint256"
        }
      ],
      "stateMutability": "view",
      "type": "function"
    },
    {
      "inputs": [],
      "name": "totalUsers",
      "outputs": [
        {
          "internalType": "uint256",
          "name": "",
          "type": "uint256"
        }
      ],
      "stateMutability": "view",
      "type": "function"
    },
    {
      "inputs": [
        {
          "internalType": "address",
          "name": "newOwner",
          "type": "address"
        }
      ],
      "name": "transferOwnership",
      "outputs": [],
      "stateMutability": "nonpayable",
      "type": "function"
    },
    {
      "inputs": [],
      "name": "usdcToken",
      "outputs": [
        {
          "internalType": "contract IERC20",
          "name": "",
          "type": "address"
        }
      ],
      "stateMutability": "view",
      "type": "function"
    },
    {
      "inputs": [
        {
          "internalType": "address",
          "name": "",
          "type": "address"
        }
      ],
      "name": "userProfiles",
      "outputs": [
        {
          "internalType": "uint256",
          "name": "jokeCount",
          "type": "uint256"
        },
        {
          "internalType": "uint256",
          "name": "totalLikesReceived",
          "type": "uint256"
        },
        {
          "internalType": "uint256",
          "name": "totalTipsReceived",
          "type": "uint256"
        }
      ],
      "stateMutability": "view",
      "type": "function"
    }
  ],
  "bytecode": "0x60806040523480156200001157600080fd5b506040516200340f3803806200340f833981810160405281019062000037919062000270565b33600073ffffffffffffffffffffffffffffffffffffffff168173ffffffffffffffffffffffffffffffffffffffff1603620000ad5760006040517f1e4fbdf7000000000000000000000000000000000000000000000000000000008152600401620000a49190620002b3565b60405180910390fd5b620000be816200013f60201b60201c565b50620000db67374147445b1ac2cc60c01b6200020360201b60201c565b620000f767ff9c0778a23372eb60c01b6200020360201b60201c565b80600160006101000a81548173ffffffffffffffffffffffffffffffffffffffff021916908373ffffffffffffffffffffffffffffffffffffffff16021790555050620002d0565b60008060009054906101000a900473ffffffffffffffffffffffffffffffffffffffff169050816000806101000a81548173ffffffffffffffffffffffffffffffffffffffff021916908373ffffffffffffffffffffffffffffffffffffffff1602179055508173ffffffffffffffffffffffffffffffffffffffff168173ffffffffffffffffffffffffffffffffffffffff167f8be0079c531659141344cd1fd0a4f28419497f9722a3daafe3b4186f6b6457e060405160405180910390a35050565b50565b600080fd5b600073ffffffffffffffffffffffffffffffffffffffff82169050919050565b600062000238826200020b565b9050919050565b6200024a816200022b565b81146200025657600080fd5b50565b6000815190506200026a816200023f565b92915050565b60006020828403121562000289576200028862000206565b5b6000620002998482850162000259565b91505092915050565b620002ad816200022b565b82525050565b6000602082019050620002ca6000830184620002a2565b92915050565b61312f80620002e06000396000f3fe608060405234801561001057600080fd5b50600436106101165760003560e01c8063987ee156116100a2578063bff1f9e111610071578063bff1f9e1146102ea578063da31d64014610308578063ebdd374814610324578063f2fde38b14610342578063f8085c281461035e57610116565b8063987ee15614610247578063990de8ae14610279578063a64d499814610297578063aae282e1146102cc57610116565b8063332d56d7116100e9578063332d56d7146101a1578063715018a6146101d35780638070e600146101dd5780638da5cb5b146101f95780638fb7092c1461021757610116565b80630283a03a1461011b57806311eac855146101375780631810e77a146101555780632341513514610185575b600080fd5b6101356004803603810190610130919061229c565b61037a565b005b61013f6105f5565b60405161014c9190612364565b60405180910390f35b61016f600480360381019061016a91906123b5565b61061b565b60405161017c91906125ef565b60405180910390f35b61019f600480360381019061019a9190612611565b6109fd565b005b6101bb60048036038101906101b6919061266a565b611058565b6040516101ca939291906126a6565b60405180910390f35b6101db611082565b005b6101f760048036038101906101f291906123b5565b611096565b005b61020161163b565b60405161020e91906126ec565b60405180910390f35b610231600480360381019061022c9190612707565b611664565b60405161023e9190612762565b60405180910390f35b610261600480360381019061025c919061266a565b611693565b604051610270939291906126a6565b60405180910390f35b61028161175c565b60405161028e919061277d565b60405180910390f35b6102b160048036038101906102ac9190612611565b611762565b6040516102c3969594939291906127e2565b60405180910390f35b6102d4611846565b6040516102e191906126ec565b60405180910390f35b6102f261186c565b6040516102ff919061277d565b60405180910390f35b610322600480360381019061031d919061266a565b611872565b005b61032c61190e565b604051610339919061277d565b60405180910390f35b61035c6004803603810190610357919061266a565b611914565b005b61037860048036038101906103739190612611565b61199a565b005b61038e67e26b501fef4f3b9f60c01b611e38565b6103a267f846a34ae9b0875460c01b611e38565b6103b667bf770a00ca8ab64560c01b611e38565b6103bf33611e3b565b6103d367b4144ee048f48d6060c01b611e38565b600760008154809291906103e690612879565b91905055506103ff67c141c80ada59d66360c01b611e38565b61041367303c38153ec9a28f60c01b611e38565b6000600754905061042e678437d731b58832e460c01b611e38565b6040518060c001604052808281526020013373ffffffffffffffffffffffffffffffffffffffff168152602001838152602001428152602001600081526020016000815250600360008381526020019081526020016000206000820151816000015560208201518160010160006101000a81548173ffffffffffffffffffffffffffffffffffffffff021916908373ffffffffffffffffffffffffffffffffffffffff16021790555060408201518160020190816104ec9190612ac3565b50606082015181600301556080820151816004015560a082015181600501559050506105226749e4ba7e6df9a63460c01b611e38565b600460003373ffffffffffffffffffffffffffffffffffffffff1673ffffffffffffffffffffffffffffffffffffffff168152602001908152602001600020600001600081548092919061057590612879565b919050555061058e6723f8d67c24ef9bc360c01b611e38565b6105a26793bfa8d7acf31e8660c01b611e38565b3373ffffffffffffffffffffffffffffffffffffffff16817f24486924eacd07687dccf5c775fa30be15faa7aea35002f47ca0b468f3e2729b846040516105e99190612b95565b60405180910390a35050565b600160009054906101000a900473ffffffffffffffffffffffffffffffffffffffff1681565b6060610631677cfd9f6864ae875260c01b611e38565b610645673d4870f44762526f60c01b611e38565b610659672d045eee35ede51160c01b611e38565b6000829050610672677792b49177ecdc6060c01b611e38565b61068667fe86c326f7b7685860c01b611e38565b600080851480156106a757506106a6670daf1de37270525660c01b611f91565b5b806106cf5750600754851180156106ce57506106cd67a861d0643eb31eb660c01b611f91565b5b5b806106ea57506106e967f5cbb845bd0c978b60c01b611f9c565b5b8015610706575061070567a2e10e6ef1ef2dc560c01b611f91565b5b61071c576001856107179190612bb7565b610720565b6007545b9050610736679794e8d0c2cc6aea60c01b611e38565b61074a6744b249018473031360c01b611e38565b8082111561078257610766675082461dbe7886b260c01b611e38565b61077a6701285dbf3b30faed60c01b611e38565b809150610797565b610796672635159d8087249e60c01b611e38565b5b6107ab67f631965575deaee660c01b611e38565b6107bf6716b8d8fc02a4eb7860c01b611e38565b60008267ffffffffffffffff8111156107db576107da612171565b5b60405190808252806020026020018201604052801561081457816020015b6108016120f6565b8152602001906001900390816107f95790505b50905061082b67a22ea34468ca858360c01b611e38565b61083f672374c262a78ca79660c01b611e38565b60005b838110156109c85761085e67ebbe5a8d0e1296ce60c01b611e38565b60036000828561086e9190612bb7565b81526020019081526020016000206040518060c0016040529081600082015481526020016001820160009054906101000a900473ffffffffffffffffffffffffffffffffffffffff1673ffffffffffffffffffffffffffffffffffffffff1673ffffffffffffffffffffffffffffffffffffffff1681526020016002820180546108f7906128f0565b80601f0160208091040260200160405190810160405280929190818152602001828054610923906128f0565b80156109705780601f1061094557610100808354040283529160200191610970565b820191906000526020600020905b81548152906001019060200180831161095357829003601f168201915b5050505050815260200160038201548152602001600482015481526020016005820154815250508282815181106109aa576109a9612beb565b5b602002602001018190525080806109c090612879565b915050610842565b506109dd670c7ef62643d8894460c01b611e38565b6109f167ee857b73311887b860c01b611e38565b80935050505092915050565b610a1167dc58fdfa7644e53560c01b611e38565b610a2567105cd185cac7e4ba60c01b611e38565b610a3967370c99e7ec11c9e660c01b611e38565b610a4d6733c020f31afa87b160c01b611e38565b600073ffffffffffffffffffffffffffffffffffffffff16600260009054906101000a900473ffffffffffffffffffffffffffffffffffffffff1673ffffffffffffffffffffffffffffffffffffffff1603610ade576040517f08c379a0000000000000000000000000000000000000000000000000000000008152600401610ad590612c66565b60405180910390fd5b610af2673b34da9ddeef2a3e60c01b611e38565b610b06676f1f56213ecda15a60c01b611e38565b610b1a67e833f26a62b10e8d60c01b611e38565b6000600460003373ffffffffffffffffffffffffffffffffffffffff1673ffffffffffffffffffffffffffffffffffffffff1681526020019081526020016000209050610b7167eca3e44f37f6094760c01b611e38565b610b8567184fc756b99c3b4460c01b611e38565b610b99676074bf75fae518bd60c01b611e38565b80600301600083815260200190815260200160002060009054906101000a900460ff1615610bfc576040517f08c379a0000000000000000000000000000000000000000000000000000000008152600401610bf390612cd2565b60405180910390fd5b610c1067e39f2a257a26c82760c01b611e38565b610c24679bb8d684fb7b2c6560c01b611e38565b610c38679ba3a2e95e96f64c60c01b611e38565b6000610c4e67b4cd9dd2aeb9be7160c01b611e38565b610c626767084111b050376260c01b611e38565b60018303610ce957610c7e670a7fdc327fc5693b60c01b611e38565b610c9267b6f2f9b46dd1948460c01b611e38565b610ca6676b6bb4a0a51a315660c01b611e38565b6001826000015410610ccf57610cc6670bceb6c7223d848e60c01b611e38565b60019050610ce4565b610ce36728ffaadfe4f5b4fc60c01b611e38565b5b610e5e565b610cfd6715972bc05cfbadd260c01b611e38565b610d1167c4fff1cf6bb1397f60c01b611e38565b60028303610d9857610d2d670a39bd33d4eefdb760c01b611e38565b610d416794f1592249232be560c01b611e38565b610d55673e4a31f82de83e0760c01b611e38565b6005826000015410610d7e57610d7567bc988067c4dc8bbf60c01b611e38565b60019050610d93565b610d9267977005c080bd3e6d60c01b611e38565b5b610e5d565b610dac67238ba7a4fb2acbbf60c01b611e38565b610dc0678b96ac5e2fff2aad60c01b611e38565b60038303610e4757610ddc67263b2c42af90978160c01b611e38565b610df0677cf9c53b1d4c116360c01b611e38565b610e0467a2eacdb98a7e541960c01b611e38565b600a826000015410610e2d57610e246704999a9073127ca760c01b611e38565b60019050610e42565b610e4167c74fe2b9d91e9b4160c01b611e38565b5b610e5c565b610e5b678556177559288e4660c01b611e38565b5b5b5b610e72675b80a8dd875f49c560c01b611e38565b610e8667e7dbe7eba6dffc0160c01b611e38565b610e9a678045f986ba2dfcbb60c01b611e38565b80610eda576040517f08c379a0000000000000000000000000000000000000000000000000000000008152600401610ed190612d3e565b60405180910390fd5b610eee67f0ec77823be17d0160c01b611e38565b610f0267ccc8e75afacbf5ff60c01b611e38565b600182600301600085815260200190815260200160002060006101000a81548160ff021916908315150217905550610f4467e26e5d86c2fbb0e360c01b611e38565b610f586798514dbbe101a8bf60c01b611e38565b600260009054906101000a900473ffffffffffffffffffffffffffffffffffffffff1673ffffffffffffffffffffffffffffffffffffffff166340c10f1933856040518363ffffffff1660e01b8152600401610fb5929190612d5e565b600060405180830381600087803b158015610fcf57600080fd5b505af1158015610fe3573d6000803e3d6000fd5b50505050610ffb6743f4324e28daa2e960c01b611e38565b61100f6787616f287fca150260c01b611e38565b823373ffffffffffffffffffffffffffffffffffffffff167fbdaec09f93a9e010d98b043dd79efaaa052a0eed6b10c9ffe87c8f7e256da56f60405160405180910390a3505050565b60046020528060005260406000206000915090508060000154908060010154908060020154905083565b61108a611fa3565b611094600061202a565b565b6110aa671c818c73f76d0f4160c01b611e38565b6110be6724f834c05185d30860c01b611e38565b6110d2677fafa5d15b3f025860c01b611e38565b6110e6674e32fa1a5645308a60c01b611e38565b600060036000848152602001908152602001600020600001540361113f576040517f08c379a000000000000000000000000000000000000000000000000000000000815260040161113690612dd3565b60405180910390fd5b611153672d7eb345e092a0c460c01b611e38565b611167670e5c4f1c7f40f30e60c01b611e38565b61117b67a584a98f5008bfe660c01b611e38565b61118f670abeca1fc2f9b84660c01b611e38565b600081116111d2576040517f08c379a00000000000000000000000000000000000000000000000000000000081526004016111c990612e65565b60405180910390fd5b6111e6677688887a3c14bc0b60c01b611e38565b6111fa6739c7efb0ec85d43460c01b611e38565b61120e67dac76bec70059f3d60c01b611e38565b61122267b767a8cc5527663c60c01b611e38565b3373ffffffffffffffffffffffffffffffffffffffff166003600084815260200190815260200160002060010160009054906101000a900473ffffffffffffffffffffffffffffffffffffffff1673ffffffffffffffffffffffffffffffffffffffff16036112c6576040517f08c379a00000000000000000000000000000000000000000000000000000000081526004016112bd90612ed1565b60405180910390fd5b6112da67474c8ae8769ef58660c01b611e38565b6112ee67ea841abc12abc18660c01b611e38565b61130267fe233abee8e9748160c01b611e38565b61130b33611e3b565b61131f67140e881c5dd0dfc960c01b611e38565b611333679a92265c2df8d85c60c01b611e38565b60006003600084815260200190815260200160002060010160009054906101000a900473ffffffffffffffffffffffffffffffffffffffff1690506113826787477fbe2205355160c01b611e38565b611396675de960645f42849360c01b611e38565b6000600160009054906101000a900473ffffffffffffffffffffffffffffffffffffffff1673ffffffffffffffffffffffffffffffffffffffff166323b872dd3384866040518463ffffffff1660e01b81526004016113f793929190612ef1565b6020604051808303816000875af1158015611416573d6000803e3d6000fd5b505050506040513d601f19601f8201168201806040525081019061143a9190612f54565b905061145067552107ac6fe1c26b60c01b611e38565b61146467fb57ada67ab1c99c60c01b611e38565b6114786777f78947df93a29460c01b611e38565b806114b8576040517f08c379a00000000000000000000000000000000000000000000000000000000081526004016114af90612fcd565b60405180910390fd5b6114cc67b242493cc6798e9360c01b611e38565b6114e0677271f64a53dece9560c01b611e38565b826003600086815260200190815260200160002060050160008282546115069190612fed565b92505081905550611521670156acb09f96d35860c01b611e38565b82600460008473ffffffffffffffffffffffffffffffffffffffff1673ffffffffffffffffffffffffffffffffffffffff16815260200190815260200160002060020160008282546115739190612fed565b9250508190555061158e670970b8b2c549bd1760c01b611e38565b82600860008282546115a09190612fed565b925050819055506115bb67028e830b8305ab8760c01b611e38565b6115cf6784a112bd454f9b4760c01b611e38565b8173ffffffffffffffffffffffffffffffffffffffff163373ffffffffffffffffffffffffffffffffffffffff16857f6272b66d083c9df27986e8ae861a91622134f112b252f1badf215c36a9399a438660405161162d919061277d565b60405180910390a450505050565b60008060009054906101000a900473ffffffffffffffffffffffffffffffffffffffff16905090565b60056020528160005260406000206020528060005260406000206000915091509054906101000a900460ff1681565b60008060006116ac678f8b79663870c1bf60c01b611e38565b6116c067391a60b004c41fcd60c01b611e38565b6116d467d6502e2b0c9e567760c01b611e38565b6000600460008673ffffffffffffffffffffffffffffffffffffffff1673ffffffffffffffffffffffffffffffffffffffff168152602001908152602001600020905061172b674d1e760943766b9360c01b611e38565b61173f677ee874fbc22b556860c01b611e38565b806000015481600101548260020154935093509350509193909250565b60085481565b60036020528060005260406000206000915090508060000154908060010160009054906101000a900473ffffffffffffffffffffffffffffffffffffffff16908060020180546117b1906128f0565b80601f01602080910402602001604051908101604052809291908181526020018280546117dd906128f0565b801561182a5780601f106117ff5761010080835404028352916020019161182a565b820191906000526020600020905b81548152906001019060200180831161180d57829003601f168201915b5050505050908060030154908060040154908060050154905086565b600260009054906101000a900473ffffffffffffffffffffffffffffffffffffffff1681565b60095481565b6118866710a675db2c51076360c01b611e38565b61188e611fa3565b6118a26761637d76353b0fa560c01b611e38565b6118b667c3908c961a9b02ce60c01b611e38565b6118ca672385b7653747feaf60c01b611e38565b80600260006101000a81548173ffffffffffffffffffffffffffffffffffffffff021916908373ffffffffffffffffffffffffffffffffffffffff16021790555050565b60075481565b61191c611fa3565b600073ffffffffffffffffffffffffffffffffffffffff168173ffffffffffffffffffffffffffffffffffffffff160361198e5760006040517f1e4fbdf700000000000000000000000000000000000000000000000000000000815260040161198591906126ec565b60405180910390fd5b6119978161202a565b50565b6119ae6735501bd0ab6324d660c01b611e38565b6119c2675a70dd5a114c83ce60c01b611e38565b6119d667635e4f2cde7b260760c01b611e38565b6119ea679b8246e4660cb94560c01b611e38565b6000600360008381526020019081526020016000206000015403611a43576040517f08c379a0000000000000000000000000000000000000000000000000000000008152600401611a3a90612dd3565b60405180910390fd5b611a5767be27713906126f6260c01b611e38565b611a6b676f31f0a2d3fcbbe360c01b611e38565b611a7f67a3ed0fee1ac8369c60c01b611e38565b611a9367907e1c1b9274eeaf60c01b611e38565b3373ffffffffffffffffffffffffffffffffffffffff166003600083815260200190815260200160002060010160009054906101000a900473ffffffffffffffffffffffffffffffffffffffff1673ffffffffffffffffffffffffffffffffffffffff1603611b37576040517f08c379a0000000000000000000000000000000000000000000000000000000008152600401611b2e9061306d565b60405180910390fd5b611b4b672bb40dfc15a8b81360c01b611e38565b611b5f67f70e9554d660a47660c01b611e38565b611b7367e54f137defa5fdfe60c01b611e38565b611b8767230062e32edcc2fd60c01b611e38565b6005600082815260200190815260200160002060003373ffffffffffffffffffffffffffffffffffffffff1673ffffffffffffffffffffffffffffffffffffffff16815260200190815260200160002060009054906101000a900460ff1615611c25576040517f08c379a0000000000000000000000000000000000000000000000000000000008152600401611c1c906130d9565b60405180910390fd5b611c3967839656322449945560c01b611e38565b611c4d67b4a27d1928ad0d7b60c01b611e38565b611c6167c7dff3f5ea9c0bdc60c01b611e38565b611c6a33611e3b565b611c7e678ecb2a908e333e6f60c01b611e38565b600360008281526020019081526020016000206004016000815480929190611ca590612879565b9190505550611cbe677e611d0ec75c66bc60c01b611e38565b600460006003600084815260200190815260200160002060010160009054906101000a900473ffffffffffffffffffffffffffffffffffffffff1673ffffffffffffffffffffffffffffffffffffffff1673ffffffffffffffffffffffffffffffffffffffff1681526020019081526020016000206001016000815480929190611d4790612879565b9190505550611d606761e1a34f81c08b4760c01b611e38565b60016005600083815260200190815260200160002060003373ffffffffffffffffffffffffffffffffffffffff1673ffffffffffffffffffffffffffffffffffffffff16815260200190815260200160002060006101000a81548160ff021916908315150217905550611ddd67242d08268803c48560c01b611e38565b611df1677e74a98130a3b42e60c01b611e38565b3373ffffffffffffffffffffffffffffffffffffffff16817f836976eaa7e1c8e3e2988acea5a119a89127d8965c1b61c071c787a21593f70260405160405180910390a350565b50565b611e4f673fb16e4ea9f75eb160c01b611e38565b611e63675f166c6b6002c67560c01b611e38565b611e7767425504bcf9bc556960c01b611e38565b600660008273ffffffffffffffffffffffffffffffffffffffff1673ffffffffffffffffffffffffffffffffffffffff16815260200190815260200160002060009054906101000a900460ff16611f7957611edc672281d2a92785003a60c01b611e38565b611ef067620c58ab63ac8d6360c01b611e38565b6001600660008373ffffffffffffffffffffffffffffffffffffffff1673ffffffffffffffffffffffffffffffffffffffff16815260200190815260200160002060006101000a81548160ff021916908315150217905550611f5c67723e7bd3f5e9d64b60c01b611e38565b60096000815480929190611f6f90612879565b9190505550611f8e565b611f8d67c2e0538dc5951b3e60c01b611e38565b5b50565b600060019050919050565b6000919050565b611fab6120ee565b73ffffffffffffffffffffffffffffffffffffffff16611fc961163b565b73ffffffffffffffffffffffffffffffffffffffff161461202857611fec6120ee565b6040517f118cdaa700000000000000000000000000000000000000000000000000000000815260040161201f91906126ec565b60405180910390fd5b565b60008060009054906101000a900473ffffffffffffffffffffffffffffffffffffffff169050816000806101000a81548173ffffffffffffffffffffffffffffffffffffffff021916908373ffffffffffffffffffffffffffffffffffffffff1602179055508173ffffffffffffffffffffffffffffffffffffffff168173ffffffffffffffffffffffffffffffffffffffff167f8be0079c531659141344cd1fd0a4f28419497f9722a3daafe3b4186f6b6457e060405160405180910390a35050565b600033905090565b6040518060c0016040528060008152602001600073ffffffffffffffffffffffffffffffffffffffff168152602001606081526020016000815260200160008152602001600081525090565b6000604051905090565b600080fd5b600080fd5b600080fd5b600080fd5b6000601f19601f8301169050919050565b7f4e487b7100000000000000000000000000000000000000000000000000000000600052604160045260246000fd5b6121a982612160565b810181811067ffffffffffffffff821117156121c8576121c7612171565b5b80604052505050565b60006121db612142565b90506121e782826121a0565b919050565b600067ffffffffffffffff82111561220757612206612171565b5b61221082612160565b9050602081019050919050565b82818337600083830152505050565b600061223f61223a846121ec565b6121d1565b90508281526020810184848401111561225b5761225a61215b565b5b61226684828561221d565b509392505050565b600082601f83011261228357612282612156565b5b813561229384826020860161222c565b91505092915050565b6000602082840312156122b2576122b161214c565b5b600082013567ffffffffffffffff8111156122d0576122cf612151565b5b6122dc8482850161226e565b91505092915050565b600073ffffffffffffffffffffffffffffffffffffffff82169050919050565b6000819050919050565b600061232a612325612320846122e5565b612305565b6122e5565b9050919050565b600061233c8261230f565b9050919050565b600061234e82612331565b9050919050565b61235e81612343565b82525050565b60006020820190506123796000830184612355565b92915050565b6000819050919050565b6123928161237f565b811461239d57600080fd5b50565b6000813590506123af81612389565b92915050565b600080604083850312156123cc576123cb61214c565b5b60006123da858286016123a0565b92505060206123eb858286016123a0565b9150509250929050565b600081519050919050565b600082825260208201905092915050565b6000819050602082019050919050565b61242a8161237f565b82525050565b600061243b826122e5565b9050919050565b61244b81612430565b82525050565b600081519050919050565b600082825260208201905092915050565b60005b8381101561248b578082015181840152602081019050612470565b60008484015250505050565b60006124a282612451565b6124ac818561245c565b93506124bc81856020860161246d565b6124c581612160565b840191505092915050565b600060c0830160008301516124e86000860182612421565b5060208301516124fb6020860182612442565b50604083015184820360408601526125138282612497565b91505060608301516125286060860182612421565b50608083015161253b6080860182612421565b5060a083015161254e60a0860182612421565b508091505092915050565b600061256583836124d0565b905092915050565b6000602082019050919050565b6000612585826123f5565b61258f8185612400565b9350836020820285016125a185612411565b8060005b858110156125dd57848403895281516125be8582612559565b94506125c98361256d565b925060208a019950506001810190506125a5565b50829750879550505050505092915050565b60006020820190508181036000830152612609818461257a565b905092915050565b6000602082840312156126275761262661214c565b5b6000612635848285016123a0565b91505092915050565b61264781612430565b811461265257600080fd5b50565b6000813590506126648161263e565b92915050565b6000602082840312156126805761267f61214c565b5b600061268e84828501612655565b91505092915050565b6126a08161237f565b82525050565b60006060820190506126bb6000830186612697565b6126c86020830185612697565b6126d56040830184612697565b949350505050565b6126e681612430565b82525050565b600060208201905061270160008301846126dd565b92915050565b6000806040838503121561271e5761271d61214c565b5b600061272c858286016123a0565b925050602061273d85828601612655565b9150509250929050565b60008115159050919050565b61275c81612747565b82525050565b60006020820190506127776000830184612753565b92915050565b60006020820190506127926000830184612697565b92915050565b600082825260208201905092915050565b60006127b482612451565b6127be8185612798565b93506127ce81856020860161246d565b6127d781612160565b840191505092915050565b600060c0820190506127f76000830189612697565b61280460208301886126dd565b818103604083015261281681876127a9565b90506128256060830186612697565b6128326080830185612697565b61283f60a0830184612697565b979650505050505050565b7f4e487b7100000000000000000000000000000000000000000000000000000000600052601160045260246000fd5b60006128848261237f565b91507fffffffffffffffffffffffffffffffffffffffffffffffffffffffffffffffff82036128b6576128b561284a565b5b600182019050919050565b7f4e487b7100000000000000000000000000000000000000000000000000000000600052602260045260246000fd5b6000600282049050600182168061290857607f821691505b60208210810361291b5761291a6128c1565b5b50919050565b60008190508160005260206000209050919050565b60006020601f8301049050919050565b600082821b905092915050565b6000600883026129837fffffffffffffffffffffffffffffffffffffffffffffffffffffffffffffffff82612946565b61298d8683612946565b95508019841693508086168417925050509392505050565b60006129c06129bb6129b68461237f565b612305565b61237f565b9050919050565b6000819050919050565b6129da836129a5565b6129ee6129e6826129c7565b848454612953565b825550505050565b600090565b612a036129f6565b612a0e8184846129d1565b505050565b5b81811015612a3257612a276000826129fb565b600181019050612a14565b5050565b601f821115612a7757612a4881612921565b612a5184612936565b81016020851015612a60578190505b612a74612a6c85612936565b830182612a13565b50505b505050565b600082821c905092915050565b6000612a9a60001984600802612a7c565b1980831691505092915050565b6000612ab38383612a89565b9150826002028217905092915050565b612acc82612451565b67ffffffffffffffff811115612ae557612ae4612171565b5b612aef82546128f0565b612afa828285612a36565b600060209050601f831160018114612b2d5760008415612b1b578287015190505b612b258582612aa7565b865550612b8d565b601f198416612b3b86612921565b60005b82811015612b6357848901518255600182019150602085019450602081019050612b3e565b86831015612b805784890151612b7c601f891682612a89565b8355505b6001600288020188555050505b505050505050565b60006020820190508181036000830152612baf81846127a9565b905092915050565b6000612bc28261237f565b9150612bcd8361237f565b9250828203905081811115612be557612be461284a565b5b92915050565b7f4e487b7100000000000000000000000000000000000000000000000000000000600052603260045260246000fd5b7f4e465420636f6e7472616374206e6f7420736574000000000000000000000000600082015250565b6000612c50601483612798565b9150612c5b82612c1a565b602082019050919050565b60006020820190508181036000830152612c7f81612c43565b9050919050565b7f426164676520616c726561647920636c61696d65640000000000000000000000600082015250565b6000612cbc601583612798565b9150612cc782612c86565b602082019050919050565b60006020820190508181036000830152612ceb81612caf565b9050919050565b7f4e6f7420656c696769626c6520666f7220746869732062616467650000000000600082015250565b6000612d28601b83612798565b9150612d3382612cf2565b602082019050919050565b60006020820190508181036000830152612d5781612d1b565b9050919050565b6000604082019050612d7360008301856126dd565b612d806020830184612697565b9392505050565b7f4a6f6b6520646f6573206e6f7420657869737400000000000000000000000000600082015250565b6000612dbd601383612798565b9150612dc882612d87565b602082019050919050565b60006020820190508181036000830152612dec81612db0565b9050919050565b7f54697020616d6f756e74206d7573742062652067726561746572207468616e2060008201527f7a65726f00000000000000000000000000000000000000000000000000000000602082015250565b6000612e4f602483612798565b9150612e5a82612df3565b604082019050919050565b60006020820190508181036000830152612e7e81612e42565b9050919050565b7f43616e6e6f742074697020796f7572206f776e206a6f6b650000000000000000600082015250565b6000612ebb601883612798565b9150612ec682612e85565b602082019050919050565b60006020820190508181036000830152612eea81612eae565b9050919050565b6000606082019050612f0660008301866126dd565b612f1360208301856126dd565b612f206040830184612697565b949350505050565b612f3181612747565b8114612f3c57600080fd5b50565b600081519050612f4e81612f28565b92915050565b600060208284031215612f6a57612f6961214c565b5b6000612f7884828501612f3f565b91505092915050565b7f55534443207472616e73666572206661696c6564000000000000000000000000600082015250565b6000612fb7601483612798565b9150612fc282612f81565b602082019050919050565b60006020820190508181036000830152612fe681612faa565b9050919050565b6000612ff88261237f565b91506130038361237f565b925082820190508082111561301b5761301a61284a565b5b92915050565b7f43616e6e6f74206c696b6520796f7572206f776e206a6f6b6500000000000000600082015250565b6000613057601983612798565b915061306282613021565b602082019050919050565b600060208201905081810360008301526130868161304a565b9050919050565b7f416c7265616479206c696b656400000000000000000000000000000000000000600082015250565b60006130c3600d83612798565b91506130ce8261308d565b602082019050919050565b600060208201905081810360008301526130f2816130b6565b905091905056fea264697066735822122024510aaac09be61ae5dcb06fa7da201de7fbdc6dd02d0d09b1afb5ed2a553eb964736f6c63430008140033",
  "linkReferences": {},
  "deployedLinkReferences": {}
}