{
  "_format": "hh-sol-artifact-1",
  "contractName": "DadChainCore",
  "sourceName": "src/DadChainCore.sol",
  "abi": [
    {
      "inputs": [
        {
          "internalType": "address",
          "name": "_usdcTokenAddress",
          "type": "address"
        }
      ],
      "stateMutability": "nonpayable",
      "type": "constructor"
    },
    {
      "inputs": [
        {
          "internalType": "address",
          "name": "owner",
          "type": "address"
        }
      ],
      "name": "OwnableInvalidOwner",
      "type": "error"
    },
    {
      "inputs": [
        {
          "internalType": "address",
          "name": "account",
          "type": "address"
        }
      ],
      "name": "OwnableUnauthorizedAccount",
      "type": "error"
    },
    {
      "anonymous": false,
      "inputs": [
        {
          "indexed": true,
          "internalType": "address",
          "name": "user",
          "type": "address"
        },
        {
          "indexed": true,
          "internalType": "uint256",
          "name": "badgeId",
          "type": "uint256"
        }
      ],
      "name": "BadgeClaimed",
      "type": "event"
    },
    {
      "anonymous": false,
      "inputs": [
        {
          "indexed": true,
          "internalType": "uint256",
          "name": "jokeId",
          "type": "uint256"
        },
        {
          "indexed": true,
          "internalType": "address",
          "name": "liker",
          "type": "address"
        }
      ],
      "name": "JokeLiked",
      "type": "event"
    },
    {
      "anonymous": false,
      "inputs": [
        {
          "indexed": true,
          "internalType": "uint256",
          "name": "jokeId",
          "type": "uint256"
        },
        {
          "indexed": true,
          "internalType": "address",
          "name": "creator",
          "type": "address"
        },
        {
          "indexed": false,
          "internalType": "string",
          "name": "content",
          "type": "string"
        },
        {
          "indexed": false,
          "internalType": "string",
          "name": "imageURI",
          "type": "string"
        }
      ],
      "name": "JokeSubmitted",
      "type": "event"
    },
    {
      "anonymous": false,
      "inputs": [
        {
          "indexed": true,
          "internalType": "uint256",
          "name": "jokeId",
          "type": "uint256"
        },
        {
          "indexed": true,
          "internalType": "address",
          "name": "tipper",
          "type": "address"
        },
        {
          "indexed": true,
          "internalType": "address",
          "name": "creator",
          "type": "address"
        },
        {
          "indexed": false,
          "internalType": "uint256",
          "name": "amount",
          "type": "uint256"
        }
      ],
      "name": "JokeTipped",
      "type": "event"
    },
    {
      "anonymous": false,
      "inputs": [
        {
          "indexed": true,
          "internalType": "address",
          "name": "previousOwner",
          "type": "address"
        },
        {
          "indexed": true,
          "internalType": "address",
          "name": "newOwner",
          "type": "address"
        }
      ],
      "name": "OwnershipTransferred",
      "type": "event"
    },
    {
      "inputs": [
        {
          "internalType": "uint256",
          "name": "_badgeId",
          "type": "uint256"
        }
      ],
      "name": "claimBadge",
      "outputs": [],
      "stateMutability": "nonpayable",
      "type": "function"
    },
    {
      "inputs": [
        {
          "internalType": "address",
          "name": "_creator",
          "type": "address"
        }
      ],
      "name": "getJokesByCreator",
      "outputs": [
        {
          "internalType": "uint256[]",
          "name": "",
          "type": "uint256[]"
        }
      ],
      "stateMutability": "view",
      "type": "function"
    },
    {
      "inputs": [
        {
          "internalType": "uint256",
          "name": "_cursor",
          "type": "uint256"
        },
        {
          "internalType": "uint256",
          "name": "_pageSize",
          "type": "uint256"
        }
      ],
      "name": "getJokesPaginated",
      "outputs": [
        {
          "components": [
            {
              "internalType": "uint256",
              "name": "id",
              "type": "uint256"
            },
            {
              "internalType": "address",
              "name": "creator",
              "type": "address"
            },
            {
              "internalType": "string",
              "name": "content",
              "type": "string"
            },
            {
              "internalType": "string",
              "name": "imageURI",
              "type": "string"
            },
            {
              "internalType": "uint256",
              "name": "timestamp",
              "type": "uint256"
            },
            {
              "internalType": "uint256",
              "name": "likeCount",
              "type": "uint256"
            },
            {
              "internalType": "uint256",
              "name": "tipAmount",
              "type": "uint256"
            }
          ],
          "internalType": "struct DadChainCore.Joke[]",
          "name": "",
          "type": "tuple[]"
        }
      ],
      "stateMutability": "view",
      "type": "function"
    },
    {
      "inputs": [
        {
          "internalType": "address",
          "name": "_user",
          "type": "address"
        }
      ],
      "name": "getUserProfile",
      "outputs": [
        {
          "internalType": "uint256",
          "name": "",
          "type": "uint256"
        },
        {
          "internalType": "uint256",
          "name": "",
          "type": "uint256"
        },
        {
          "internalType": "uint256",
          "name": "",
          "type": "uint256"
        }
      ],
      "stateMutability": "view",
      "type": "function"
    },
    {
      "inputs": [
        {
          "internalType": "uint256",
          "name": "",
          "type": "uint256"
        },
        {
          "internalType": "address",
          "name": "",
          "type": "address"
        }
      ],
      "name": "hasLiked",
      "outputs": [
        {
          "internalType": "bool",
          "name": "",
          "type": "bool"
        }
      ],
      "stateMutability": "view",
      "type": "function"
    },
    {
      "inputs": [
        {
          "internalType": "address",
          "name": "_user",
          "type": "address"
        },
        {
          "internalType": "uint256",
          "name": "_badgeId",
          "type": "uint256"
        }
      ],
      "name": "hasUserClaimedBadge",
      "outputs": [
        {
          "internalType": "bool",
          "name": "",
          "type": "bool"
        }
      ],
      "stateMutability": "view",
      "type": "function"
    },
    {
      "inputs": [
        {
          "internalType": "uint256",
          "name": "",
          "type": "uint256"
        }
      ],
      "name": "jokes",
      "outputs": [
        {
          "internalType": "uint256",
          "name": "id",
          "type": "uint256"
        },
        {
          "internalType": "address",
          "name": "creator",
          "type": "address"
        },
        {
          "internalType": "string",
          "name": "content",
          "type": "string"
        },
        {
          "internalType": "string",
          "name": "imageURI",
          "type": "string"
        },
        {
          "internalType": "uint256",
          "name": "timestamp",
          "type": "uint256"
        },
        {
          "internalType": "uint256",
          "name": "likeCount",
          "type": "uint256"
        },
        {
          "internalType": "uint256",
          "name": "tipAmount",
          "type": "uint256"
        }
      ],
      "stateMutability": "view",
      "type": "function"
    },
    {
      "inputs": [
        {
          "internalType": "address",
          "name": "",
          "type": "address"
        },
        {
          "internalType": "uint256",
          "name": "",
          "type": "uint256"
        }
      ],
      "name": "jokesByCreator",
      "outputs": [
        {
          "internalType": "uint256",
          "name": "",
          "type": "uint256"
        }
      ],
      "stateMutability": "view",
      "type": "function"
    },
    {
      "inputs": [
        {
          "internalType": "uint256",
          "name": "_jokeId",
          "type": "uint256"
        }
      ],
      "name": "likeJoke",
      "outputs": [],
      "stateMutability": "nonpayable",
      "type": "function"
    },
    {
      "inputs": [],
      "name": "nftContractAddress",
      "outputs": [
        {
          "internalType": "address",
          "name": "",
          "type": "address"
        }
      ],
      "stateMutability": "view",
      "type": "function"
    },
    {
      "inputs": [],
      "name": "owner",
      "outputs": [
        {
          "internalType": "address",
          "name": "",
          "type": "address"
        }
      ],
      "stateMutability": "view",
      "type": "function"
    },
    {
      "inputs": [],
      "name": "renounceOwnership",
      "outputs": [],
      "stateMutability": "nonpayable",
      "type": "function"
    },
    {
      "inputs": [
        {
          "internalType": "address",
          "name": "_nftContractAddress",
          "type": "address"
        }
      ],
      "name": "setNftContractAddress",
      "outputs": [],
      "stateMutability": "nonpayable",
      "type": "function"
    },
    {
      "inputs": [
        {
          "internalType": "string",
          "name": "_content",
          "type": "string"
        },
        {
          "internalType": "string",
          "name": "_imageURI",
          "type": "string"
        }
      ],
      "name": "submitJoke",
      "outputs": [],
      "stateMutability": "nonpayable",
      "type": "function"
    },
    {
      "inputs": [
        {
          "internalType": "uint256",
          "name": "_jokeId",
          "type": "uint256"
        },
        {
          "internalType": "uint256",
          "name": "_amount",
          "type": "uint256"
        }
      ],
      "name": "tipJoke",
      "outputs": [],
      "stateMutability": "nonpayable",
      "type": "function"
    },
    {
      "inputs": [],
      "name": "totalJokes",
      "outputs": [
        {
          "internalType": "uint256",
          "name": "",
          "type": "uint256"
        }
      ],
      "stateMutability": "view",
      "type": "function"
    },
    {
      "inputs": [],
      "name": "totalTips",
      "outputs": [
        {
          "internalType": "uint256",
          "name": "",
          "type": "uint256"
        }
      ],
      "stateMutability": "view",
      "type": "function"
    },
    {
      "inputs": [],
      "name": "totalUsers",
      "outputs": [
        {
          "internalType": "uint256",
          "name": "",
          "type": "uint256"
        }
      ],
      "stateMutability": "view",
      "type": "function"
    },
    {
      "inputs": [
        {
          "internalType": "address",
          "name": "newOwner",
          "type": "address"
        }
      ],
      "name": "transferOwnership",
      "outputs": [],
      "stateMutability": "nonpayable",
      "type": "function"
    },
    {
      "inputs": [],
      "name": "usdcToken",
      "outputs": [
        {
          "internalType": "contract IERC20",
          "name": "",
          "type": "address"
        }
      ],
      "stateMutability": "view",
      "type": "function"
    },
    {
      "inputs": [
        {
          "internalType": "address",
          "name": "",
          "type": "address"
        }
      ],
      "name": "userProfiles",
      "outputs": [
        {
          "internalType": "uint256",
          "name": "jokeCount",
          "type": "uint256"
        },
        {
          "internalType": "uint256",
          "name": "totalLikesReceived",
          "type": "uint256"
        },
        {
          "internalType": "uint256",
          "name": "totalTipsReceived",
          "type": "uint256"
        }
      ],
      "stateMutability": "view",
      "type": "function"
    }
  ],
  "bytecode": "0x60806040523480156200001157600080fd5b5060405162002dc938038062002dc9833981810160405281019062000037919062000235565b33600073ffffffffffffffffffffffffffffffffffffffff168173ffffffffffffffffffffffffffffffffffffffff1603620000ad5760006040517f1e4fbdf7000000000000000000000000000000000000000000000000000000008152600401620000a4919062000278565b60405180910390fd5b620000be816200010760201b60201c565b5080600160006101000a81548173ffffffffffffffffffffffffffffffffffffffff021916908373ffffffffffffffffffffffffffffffffffffffff1602179055505062000295565b60008060009054906101000a900473ffffffffffffffffffffffffffffffffffffffff169050816000806101000a81548173ffffffffffffffffffffffffffffffffffffffff021916908373ffffffffffffffffffffffffffffffffffffffff1602179055508173ffffffffffffffffffffffffffffffffffffffff168173ffffffffffffffffffffffffffffffffffffffff167f8be0079c531659141344cd1fd0a4f28419497f9722a3daafe3b4186f6b6457e060405160405180910390a35050565b600080fd5b600073ffffffffffffffffffffffffffffffffffffffff82169050919050565b6000620001fd82620001d0565b9050919050565b6200020f81620001f0565b81146200021b57600080fd5b50565b6000815190506200022f8162000204565b92915050565b6000602082840312156200024e576200024d620001cb565b5b60006200025e848285016200021e565b91505092915050565b6200027281620001f0565b82525050565b60006020820190506200028f600083018462000267565b92915050565b612b2480620002a56000396000f3fe608060405234801561001057600080fd5b50600436106101375760003560e01c8063987ee156116100b8578063d1f9ed461161007c578063d1f9ed461461036e578063d40ac9091461039e578063da31d640146103ba578063ebdd3748146103d6578063f2fde38b146103f4578063f8085c281461041057610137565b8063987ee156146102ac578063990de8ae146102de578063a64d4998146102fc578063aae282e114610332578063bff1f9e11461035057610137565b8063599ae207116100ff578063599ae20714610208578063715018a6146102385780638070e600146102425780638da5cb5b1461025e5780638fb7092c1461027c57610137565b806311eac8551461013c5780631810e77a1461015a5780631bca81b81461018a57806323415135146101ba578063332d56d7146101d6575b600080fd5b61014461042c565b6040516101519190611a32565b60405180910390f35b610174600480360381019061016f9190611a97565b610452565b6040516101819190611cfc565b60405180910390f35b6101a4600480360381019061019f9190611d4a565b6106fe565b6040516101b19190611da5565b60405180910390f35b6101d460048036038101906101cf9190611dc0565b610769565b005b6101f060048036038101906101eb9190611ded565b610a40565b6040516101ff93929190611e29565b60405180910390f35b610222600480360381019061021d9190611ded565b610a6a565b60405161022f9190611f0f565b60405180910390f35b610240610b01565b005b61025c60048036038101906102579190611a97565b610b15565b005b610266610e8a565b6040516102739190611f40565b60405180910390f35b61029660048036038101906102919190611f5b565b610eb3565b6040516102a39190611da5565b60405180910390f35b6102c660048036038101906102c19190611ded565b610ee2565b6040516102d593929190611e29565b60405180910390f35b6102e6610f46565b6040516102f39190611f9b565b60405180910390f35b61031660048036038101906103119190611dc0565b610f4c565b6040516103299796959493929190612000565b60405180910390f35b61033a6110be565b6040516103479190611f40565b60405180910390f35b6103586110e4565b6040516103659190611f9b565b60405180910390f35b61038860048036038101906103839190611d4a565b6110ea565b6040516103959190611f9b565b60405180910390f35b6103b860048036038101906103b391906121b2565b61111b565b005b6103d460048036038101906103cf9190611ded565b611362565b005b6103de6113ae565b6040516103eb9190611f9b565b60405180910390f35b61040e60048036038101906104099190611ded565b6113b4565b005b61042a60048036038101906104259190611dc0565b61143a565b005b600160009054906101000a900473ffffffffffffffffffffffffffffffffffffffff1681565b6060600082905060008085148061046a575060085485115b6104805760018561047b9190612259565b610484565b6008545b905080821115610492578091505b60008267ffffffffffffffff8111156104ae576104ad612087565b5b6040519080825280602002602001820160405280156104e757816020015b6104d4611960565b8152602001906001900390816104cc5790505b50905060005b838110156106f1576003600082856105059190612259565b81526020019081526020016000206040518060e0016040529081600082015481526020016001820160009054906101000a900473ffffffffffffffffffffffffffffffffffffffff1673ffffffffffffffffffffffffffffffffffffffff1673ffffffffffffffffffffffffffffffffffffffff16815260200160028201805461058e906122bc565b80601f01602080910402602001604051908101604052809291908181526020018280546105ba906122bc565b80156106075780601f106105dc57610100808354040283529160200191610607565b820191906000526020600020905b8154815290600101906020018083116105ea57829003601f168201915b50505050508152602001600382018054610620906122bc565b80601f016020809104026020016040519081016040528092919081815260200182805461064c906122bc565b80156106995780601f1061066e57610100808354040283529160200191610699565b820191906000526020600020905b81548152906001019060200180831161067c57829003601f168201915b5050505050815260200160048201548152602001600582015481526020016006820154815250508282815181106106d3576106d26122ed565b5b602002602001018190525080806106e99061231c565b9150506104ed565b5080935050505092915050565b6000600560008473ffffffffffffffffffffffffffffffffffffffff1673ffffffffffffffffffffffffffffffffffffffff168152602001908152602001600020600301600083815260200190815260200160002060009054906101000a900460ff16905092915050565b600073ffffffffffffffffffffffffffffffffffffffff16600260009054906101000a900473ffffffffffffffffffffffffffffffffffffffff1673ffffffffffffffffffffffffffffffffffffffff16036107fa576040517f08c379a00000000000000000000000000000000000000000000000000000000081526004016107f1906123b0565b60405180910390fd5b6000600560003373ffffffffffffffffffffffffffffffffffffffff1673ffffffffffffffffffffffffffffffffffffffff168152602001908152602001600020905080600301600083815260200190815260200160002060009054906101000a900460ff16156108a0576040517f08c379a00000000000000000000000000000000000000000000000000000000081526004016108979061241c565b60405180910390fd5b6000600183036108c05760018260000154106108bb57600190505b6108fa565b600283036108de5760058260000154106108d957600190505b6108f9565b600383036108f857600a8260000154106108f757600190505b5b5b5b8061093a576040517f08c379a000000000000000000000000000000000000000000000000000000000815260040161093190612488565b60405180910390fd5b600182600301600085815260200190815260200160002060006101000a81548160ff021916908315150217905550600260009054906101000a900473ffffffffffffffffffffffffffffffffffffffff1673ffffffffffffffffffffffffffffffffffffffff166340c10f1933856040518363ffffffff1660e01b81526004016109c59291906124a8565b600060405180830381600087803b1580156109df57600080fd5b505af11580156109f3573d6000803e3d6000fd5b50505050823373ffffffffffffffffffffffffffffffffffffffff167fbdaec09f93a9e010d98b043dd79efaaa052a0eed6b10c9ffe87c8f7e256da56f60405160405180910390a3505050565b60056020528060005260406000206000915090508060000154908060010154908060020154905083565b6060600460008373ffffffffffffffffffffffffffffffffffffffff1673ffffffffffffffffffffffffffffffffffffffff168152602001908152602001600020805480602002602001604051908101604052809291908181526020018280548015610af557602002820191906000526020600020905b815481526020019060010190808311610ae1575b50505050509050919050565b610b09611748565b610b1360006117cf565b565b6000600360008481526020019081526020016000206000015403610b6e576040517f08c379a0000000000000000000000000000000000000000000000000000000008152600401610b659061251d565b60405180910390fd5b60008111610bb1576040517f08c379a0000000000000000000000000000000000000000000000000000000008152600401610ba8906125af565b60405180910390fd5b3373ffffffffffffffffffffffffffffffffffffffff166003600084815260200190815260200160002060010160009054906101000a900473ffffffffffffffffffffffffffffffffffffffff1673ffffffffffffffffffffffffffffffffffffffff1603610c55576040517f08c379a0000000000000000000000000000000000000000000000000000000008152600401610c4c9061261b565b60405180910390fd5b610c5e33611893565b60006003600084815260200190815260200160002060010160009054906101000a900473ffffffffffffffffffffffffffffffffffffffff1690506000600160009054906101000a900473ffffffffffffffffffffffffffffffffffffffff1673ffffffffffffffffffffffffffffffffffffffff166323b872dd3384866040518463ffffffff1660e01b8152600401610cfa9392919061263b565b6020604051808303816000875af1158015610d19573d6000803e3d6000fd5b505050506040513d601f19601f82011682018060405250810190610d3d919061269e565b905080610d7f576040517f08c379a0000000000000000000000000000000000000000000000000000000008152600401610d7690612717565b60405180910390fd5b82600360008681526020019081526020016000206006016000828254610da59190612737565b9250508190555082600560008473ffffffffffffffffffffffffffffffffffffffff1673ffffffffffffffffffffffffffffffffffffffff1681526020019081526020016000206002016000828254610dfe9190612737565b925050819055508260096000828254610e179190612737565b925050819055508173ffffffffffffffffffffffffffffffffffffffff163373ffffffffffffffffffffffffffffffffffffffff16857f6272b66d083c9df27986e8ae861a91622134f112b252f1badf215c36a9399a4386604051610e7c9190611f9b565b60405180910390a450505050565b60008060009054906101000a900473ffffffffffffffffffffffffffffffffffffffff16905090565b60066020528160005260406000206020528060005260406000206000915091509054906101000a900460ff1681565b600080600080600560008673ffffffffffffffffffffffffffffffffffffffff1673ffffffffffffffffffffffffffffffffffffffff1681526020019081526020016000209050806000015481600101548260020154935093509350509193909250565b60095481565b60036020528060005260406000206000915090508060000154908060010160009054906101000a900473ffffffffffffffffffffffffffffffffffffffff1690806002018054610f9b906122bc565b80601f0160208091040260200160405190810160405280929190818152602001828054610fc7906122bc565b80156110145780601f10610fe957610100808354040283529160200191611014565b820191906000526020600020905b815481529060010190602001808311610ff757829003601f168201915b505050505090806003018054611029906122bc565b80601f0160208091040260200160405190810160405280929190818152602001828054611055906122bc565b80156110a25780601f10611077576101008083540402835291602001916110a2565b820191906000526020600020905b81548152906001019060200180831161108557829003601f168201915b5050505050908060040154908060050154908060060154905087565b600260009054906101000a900473ffffffffffffffffffffffffffffffffffffffff1681565b600a5481565b6004602052816000526040600020818154811061110657600080fd5b90600052602060002001600091509150505481565b61112433611893565b600860008154809291906111379061231c565b91905055506000600854905060006040518060e001604052808381526020013373ffffffffffffffffffffffffffffffffffffffff168152602001858152602001848152602001428152602001600081526020016000815250905080600360008481526020019081526020016000206000820151816000015560208201518160010160006101000a81548173ffffffffffffffffffffffffffffffffffffffff021916908373ffffffffffffffffffffffffffffffffffffffff160217905550604082015181600201908161120c919061290d565b506060820151816003019081611222919061290d565b506080820151816004015560a0820151816005015560c08201518160060155905050600560003373ffffffffffffffffffffffffffffffffffffffff1673ffffffffffffffffffffffffffffffffffffffff16815260200190815260200160002060000160008154809291906112979061231c565b9190505550600460003373ffffffffffffffffffffffffffffffffffffffff1673ffffffffffffffffffffffffffffffffffffffff16815260200190815260200160002082908060018154018082558091505060019003906000526020600020016000909190919091505561130b33611893565b3373ffffffffffffffffffffffffffffffffffffffff16827ff16173137d9b7abc07fd54984762b43cf65c3fe6afc58356838f2e9551f0262a86866040516113549291906129df565b60405180910390a350505050565b61136a611748565b80600260006101000a81548173ffffffffffffffffffffffffffffffffffffffff021916908373ffffffffffffffffffffffffffffffffffffffff16021790555050565b60085481565b6113bc611748565b600073ffffffffffffffffffffffffffffffffffffffff168173ffffffffffffffffffffffffffffffffffffffff160361142e5760006040517f1e4fbdf70000000000000000000000000000000000000000000000000000000081526004016114259190611f40565b60405180910390fd5b611437816117cf565b50565b6000600360008381526020019081526020016000206000015403611493576040517f08c379a000000000000000000000000000000000000000000000000000000000815260040161148a9061251d565b60405180910390fd5b3373ffffffffffffffffffffffffffffffffffffffff166003600083815260200190815260200160002060010160009054906101000a900473ffffffffffffffffffffffffffffffffffffffff1673ffffffffffffffffffffffffffffffffffffffff1603611537576040517f08c379a000000000000000000000000000000000000000000000000000000000815260040161152e90612a62565b60405180910390fd5b6006600082815260200190815260200160002060003373ffffffffffffffffffffffffffffffffffffffff1673ffffffffffffffffffffffffffffffffffffffff16815260200190815260200160002060009054906101000a900460ff16156115d5576040517f08c379a00000000000000000000000000000000000000000000000000000000081526004016115cc90612ace565b60405180910390fd5b6115de33611893565b6003600082815260200190815260200160002060050160008154809291906116059061231c565b9190505550600560006003600084815260200190815260200160002060010160009054906101000a900473ffffffffffffffffffffffffffffffffffffffff1673ffffffffffffffffffffffffffffffffffffffff1673ffffffffffffffffffffffffffffffffffffffff16815260200190815260200160002060010160008154809291906116939061231c565b919050555060016006600083815260200190815260200160002060003373ffffffffffffffffffffffffffffffffffffffff1673ffffffffffffffffffffffffffffffffffffffff16815260200190815260200160002060006101000a81548160ff0219169083151502179055503373ffffffffffffffffffffffffffffffffffffffff16817f836976eaa7e1c8e3e2988acea5a119a89127d8965c1b61c071c787a21593f70260405160405180910390a350565b611750611958565b73ffffffffffffffffffffffffffffffffffffffff1661176e610e8a565b73ffffffffffffffffffffffffffffffffffffffff16146117cd57611791611958565b6040517f118cdaa70000000000000000000000000000000000000000000000000000000081526004016117c49190611f40565b60405180910390fd5b565b60008060009054906101000a900473ffffffffffffffffffffffffffffffffffffffff169050816000806101000a81548173ffffffffffffffffffffffffffffffffffffffff021916908373ffffffffffffffffffffffffffffffffffffffff1602179055508173ffffffffffffffffffffffffffffffffffffffff168173ffffffffffffffffffffffffffffffffffffffff167f8be0079c531659141344cd1fd0a4f28419497f9722a3daafe3b4186f6b6457e060405160405180910390a35050565b600760008273ffffffffffffffffffffffffffffffffffffffff1673ffffffffffffffffffffffffffffffffffffffff16815260200190815260200160002060009054906101000a900460ff16611955576001600760008373ffffffffffffffffffffffffffffffffffffffff1673ffffffffffffffffffffffffffffffffffffffff16815260200190815260200160002060006101000a81548160ff021916908315150217905550600a600081548092919061194f9061231c565b91905055505b50565b600033905090565b6040518060e0016040528060008152602001600073ffffffffffffffffffffffffffffffffffffffff16815260200160608152602001606081526020016000815260200160008152602001600081525090565b600073ffffffffffffffffffffffffffffffffffffffff82169050919050565b6000819050919050565b60006119f86119f36119ee846119b3565b6119d3565b6119b3565b9050919050565b6000611a0a826119dd565b9050919050565b6000611a1c826119ff565b9050919050565b611a2c81611a11565b82525050565b6000602082019050611a476000830184611a23565b92915050565b6000604051905090565b600080fd5b600080fd5b6000819050919050565b611a7481611a61565b8114611a7f57600080fd5b50565b600081359050611a9181611a6b565b92915050565b60008060408385031215611aae57611aad611a57565b5b6000611abc85828601611a82565b9250506020611acd85828601611a82565b9150509250929050565b600081519050919050565b600082825260208201905092915050565b6000819050602082019050919050565b611b0c81611a61565b82525050565b6000611b1d826119b3565b9050919050565b611b2d81611b12565b82525050565b600081519050919050565b600082825260208201905092915050565b60005b83811015611b6d578082015181840152602081019050611b52565b60008484015250505050565b6000601f19601f8301169050919050565b6000611b9582611b33565b611b9f8185611b3e565b9350611baf818560208601611b4f565b611bb881611b79565b840191505092915050565b600060e083016000830151611bdb6000860182611b03565b506020830151611bee6020860182611b24565b5060408301518482036040860152611c068282611b8a565b91505060608301518482036060860152611c208282611b8a565b9150506080830151611c356080860182611b03565b5060a0830151611c4860a0860182611b03565b5060c0830151611c5b60c0860182611b03565b508091505092915050565b6000611c728383611bc3565b905092915050565b6000602082019050919050565b6000611c9282611ad7565b611c9c8185611ae2565b935083602082028501611cae85611af3565b8060005b85811015611cea5784840389528151611ccb8582611c66565b9450611cd683611c7a565b925060208a01995050600181019050611cb2565b50829750879550505050505092915050565b60006020820190508181036000830152611d168184611c87565b905092915050565b611d2781611b12565b8114611d3257600080fd5b50565b600081359050611d4481611d1e565b92915050565b60008060408385031215611d6157611d60611a57565b5b6000611d6f85828601611d35565b9250506020611d8085828601611a82565b9150509250929050565b60008115159050919050565b611d9f81611d8a565b82525050565b6000602082019050611dba6000830184611d96565b92915050565b600060208284031215611dd657611dd5611a57565b5b6000611de484828501611a82565b91505092915050565b600060208284031215611e0357611e02611a57565b5b6000611e1184828501611d35565b91505092915050565b611e2381611a61565b82525050565b6000606082019050611e3e6000830186611e1a565b611e4b6020830185611e1a565b611e586040830184611e1a565b949350505050565b600081519050919050565b600082825260208201905092915050565b6000819050602082019050919050565b6000611e988383611b03565b60208301905092915050565b6000602082019050919050565b6000611ebc82611e60565b611ec68185611e6b565b9350611ed183611e7c565b8060005b83811015611f02578151611ee98882611e8c565b9750611ef483611ea4565b925050600181019050611ed5565b5085935050505092915050565b60006020820190508181036000830152611f298184611eb1565b905092915050565b611f3a81611b12565b82525050565b6000602082019050611f556000830184611f31565b92915050565b60008060408385031215611f7257611f71611a57565b5b6000611f8085828601611a82565b9250506020611f9185828601611d35565b9150509250929050565b6000602082019050611fb06000830184611e1a565b92915050565b600082825260208201905092915050565b6000611fd282611b33565b611fdc8185611fb6565b9350611fec818560208601611b4f565b611ff581611b79565b840191505092915050565b600060e082019050612015600083018a611e1a565b6120226020830189611f31565b81810360408301526120348188611fc7565b905081810360608301526120488187611fc7565b90506120576080830186611e1a565b61206460a0830185611e1a565b61207160c0830184611e1a565b98975050505050505050565b600080fd5b600080fd5b7f4e487b7100000000000000000000000000000000000000000000000000000000600052604160045260246000fd5b6120bf82611b79565b810181811067ffffffffffffffff821117156120de576120dd612087565b5b80604052505050565b60006120f1611a4d565b90506120fd82826120b6565b919050565b600067ffffffffffffffff82111561211d5761211c612087565b5b61212682611b79565b9050602081019050919050565b82818337600083830152505050565b600061215561215084612102565b6120e7565b90508281526020810184848401111561217157612170612082565b5b61217c848285612133565b509392505050565b600082601f8301126121995761219861207d565b5b81356121a9848260208601612142565b91505092915050565b600080604083850312156121c9576121c8611a57565b5b600083013567ffffffffffffffff8111156121e7576121e6611a5c565b5b6121f385828601612184565b925050602083013567ffffffffffffffff81111561221457612213611a5c565b5b61222085828601612184565b9150509250929050565b7f4e487b7100000000000000000000000000000000000000000000000000000000600052601160045260246000fd5b600061226482611a61565b915061226f83611a61565b92508282039050818111156122875761228661222a565b5b92915050565b7f4e487b7100000000000000000000000000000000000000000000000000000000600052602260045260246000fd5b600060028204905060018216806122d457607f821691505b6020821081036122e7576122e661228d565b5b50919050565b7f4e487b7100000000000000000000000000000000000000000000000000000000600052603260045260246000fd5b600061232782611a61565b91507fffffffffffffffffffffffffffffffffffffffffffffffffffffffffffffffff82036123595761235861222a565b5b600182019050919050565b7f4e465420636f6e7472616374206e6f7420736574000000000000000000000000600082015250565b600061239a601483611fb6565b91506123a582612364565b602082019050919050565b600060208201905081810360008301526123c98161238d565b9050919050565b7f426164676520616c726561647920636c61696d65640000000000000000000000600082015250565b6000612406601583611fb6565b9150612411826123d0565b602082019050919050565b60006020820190508181036000830152612435816123f9565b9050919050565b7f4e6f7420656c696769626c6520666f7220746869732062616467650000000000600082015250565b6000612472601b83611fb6565b915061247d8261243c565b602082019050919050565b600060208201905081810360008301526124a181612465565b9050919050565b60006040820190506124bd6000830185611f31565b6124ca6020830184611e1a565b9392505050565b7f4a6f6b6520646f6573206e6f7420657869737400000000000000000000000000600082015250565b6000612507601383611fb6565b9150612512826124d1565b602082019050919050565b60006020820190508181036000830152612536816124fa565b9050919050565b7f54697020616d6f756e74206d7573742062652067726561746572207468616e2060008201527f7a65726f00000000000000000000000000000000000000000000000000000000602082015250565b6000612599602483611fb6565b91506125a48261253d565b604082019050919050565b600060208201905081810360008301526125c88161258c565b9050919050565b7f43616e6e6f742074697020796f7572206f776e206a6f6b650000000000000000600082015250565b6000612605601883611fb6565b9150612610826125cf565b602082019050919050565b60006020820190508181036000830152612634816125f8565b9050919050565b60006060820190506126506000830186611f31565b61265d6020830185611f31565b61266a6040830184611e1a565b949350505050565b61267b81611d8a565b811461268657600080fd5b50565b60008151905061269881612672565b92915050565b6000602082840312156126b4576126b3611a57565b5b60006126c284828501612689565b91505092915050565b7f55534443207472616e73666572206661696c6564000000000000000000000000600082015250565b6000612701601483611fb6565b915061270c826126cb565b602082019050919050565b60006020820190508181036000830152612730816126f4565b9050919050565b600061274282611a61565b915061274d83611a61565b92508282019050808211156127655761276461222a565b5b92915050565b60008190508160005260206000209050919050565b60006020601f8301049050919050565b600082821b905092915050565b6000600883026127cd7fffffffffffffffffffffffffffffffffffffffffffffffffffffffffffffffff82612790565b6127d78683612790565b95508019841693508086168417925050509392505050565b600061280a61280561280084611a61565b6119d3565b611a61565b9050919050565b6000819050919050565b612824836127ef565b61283861283082612811565b84845461279d565b825550505050565b600090565b61284d612840565b61285881848461281b565b505050565b5b8181101561287c57612871600082612845565b60018101905061285e565b5050565b601f8211156128c1576128928161276b565b61289b84612780565b810160208510156128aa578190505b6128be6128b685612780565b83018261285d565b50505b505050565b600082821c905092915050565b60006128e4600019846008026128c6565b1980831691505092915050565b60006128fd83836128d3565b9150826002028217905092915050565b61291682611b33565b67ffffffffffffffff81111561292f5761292e612087565b5b61293982546122bc565b612944828285612880565b600060209050601f8311600181146129775760008415612965578287015190505b61296f85826128f1565b8655506129d7565b601f1984166129858661276b565b60005b828110156129ad57848901518255600182019150602085019450602081019050612988565b868310156129ca57848901516129c6601f8916826128d3565b8355505b6001600288020188555050505b505050505050565b600060408201905081810360008301526129f98185611fc7565b90508181036020830152612a0d8184611fc7565b90509392505050565b7f43616e6e6f74206c696b6520796f7572206f776e206a6f6b6500000000000000600082015250565b6000612a4c601983611fb6565b9150612a5782612a16565b602082019050919050565b60006020820190508181036000830152612a7b81612a3f565b9050919050565b7f416c7265616479206c696b656400000000000000000000000000000000000000600082015250565b6000612ab8600d83611fb6565b9150612ac382612a82565b602082019050919050565b60006020820190508181036000830152612ae781612aab565b905091905056fea264697066735822122099b0a22ab6c199f0039ed872cf242c8bf585c27d93aae978d5cb1b4a76ba5b1664736f6c63430008140033",
  "linkReferences": {},
  "deployedLinkReferences": {}
}