{
  "_format": "hh-sol-artifact-1",
  "contractName": "DadChainCore",
  "sourceName": "src/DadChainCore.sol",
  "abi": [
    {
      "inputs": [
        {
          "internalType": "address",
          "name": "_usdcTokenAddress",
          "type": "address"
        }
      ],
      "stateMutability": "nonpayable",
      "type": "constructor"
    },
    {
      "inputs": [
        {
          "internalType": "address",
          "name": "owner",
          "type": "address"
        }
      ],
      "name": "OwnableInvalidOwner",
      "type": "error"
    },
    {
      "inputs": [
        {
          "internalType": "address",
          "name": "account",
          "type": "address"
        }
      ],
      "name": "OwnableUnauthorizedAccount",
      "type": "error"
    },
    {
      "anonymous": false,
      "inputs": [
        {
          "indexed": true,
          "internalType": "address",
          "name": "user",
          "type": "address"
        },
        {
          "indexed": true,
          "internalType": "uint256",
          "name": "badgeId",
          "type": "uint256"
        }
      ],
      "name": "BadgeClaimed",
      "type": "event"
    },
    {
      "anonymous": false,
      "inputs": [
        {
          "indexed": true,
          "internalType": "uint256",
          "name": "jokeId",
          "type": "uint256"
        },
        {
          "indexed": true,
          "internalType": "address",
          "name": "liker",
          "type": "address"
        }
      ],
      "name": "JokeLiked",
      "type": "event"
    },
    {
      "anonymous": false,
      "inputs": [
        {
          "indexed": true,
          "internalType": "uint256",
          "name": "jokeId",
          "type": "uint256"
        },
        {
          "indexed": true,
          "internalType": "address",
          "name": "creator",
          "type": "address"
        },
        {
          "indexed": false,
          "internalType": "string",
          "name": "content",
          "type": "string"
        }
      ],
      "name": "JokeSubmitted",
      "type": "event"
    },
    {
      "anonymous": false,
      "inputs": [
        {
          "indexed": true,
          "internalType": "uint256",
          "name": "jokeId",
          "type": "uint256"
        },
        {
          "indexed": true,
          "internalType": "address",
          "name": "tipper",
          "type": "address"
        },
        {
          "indexed": true,
          "internalType": "address",
          "name": "creator",
          "type": "address"
        },
        {
          "indexed": false,
          "internalType": "uint256",
          "name": "amount",
          "type": "uint256"
        }
      ],
      "name": "JokeTipped",
      "type": "event"
    },
    {
      "anonymous": false,
      "inputs": [
        {
          "indexed": true,
          "internalType": "address",
          "name": "previousOwner",
          "type": "address"
        },
        {
          "indexed": true,
          "internalType": "address",
          "name": "newOwner",
          "type": "address"
        }
      ],
      "name": "OwnershipTransferred",
      "type": "event"
    },
    {
      "inputs": [
        {
          "internalType": "uint256",
          "name": "_badgeId",
          "type": "uint256"
        }
      ],
      "name": "claimBadge",
      "outputs": [],
      "stateMutability": "nonpayable",
      "type": "function"
    },
    {
      "inputs": [
        {
          "internalType": "uint256",
          "name": "_cursor",
          "type": "uint256"
        },
        {
          "internalType": "uint256",
          "name": "_pageSize",
          "type": "uint256"
        }
      ],
      "name": "getJokesPaginated",
      "outputs": [
        {
          "components": [
            {
              "internalType": "uint256",
              "name": "id",
              "type": "uint256"
            },
            {
              "internalType": "address",
              "name": "creator",
              "type": "address"
            },
            {
              "internalType": "string",
              "name": "content",
              "type": "string"
            },
            {
              "internalType": "uint256",
              "name": "timestamp",
              "type": "uint256"
            },
            {
              "internalType": "uint256",
              "name": "likeCount",
              "type": "uint256"
            },
            {
              "internalType": "uint256",
              "name": "tipAmount",
              "type": "uint256"
            }
          ],
          "internalType": "struct DadChainCore.Joke[]",
          "name": "",
          "type": "tuple[]"
        }
      ],
      "stateMutability": "view",
      "type": "function"
    },
    {
      "inputs": [
        {
          "internalType": "address",
          "name": "_user",
          "type": "address"
        }
      ],
      "name": "getUserProfile",
      "outputs": [
        {
          "internalType": "uint256",
          "name": "",
          "type": "uint256"
        },
        {
          "internalType": "uint256",
          "name": "",
          "type": "uint256"
        },
        {
          "internalType": "uint256",
          "name": "",
          "type": "uint256"
        }
      ],
      "stateMutability": "view",
      "type": "function"
    },
    {
      "inputs": [
        {
          "internalType": "uint256",
          "name": "",
          "type": "uint256"
        },
        {
          "internalType": "address",
          "name": "",
          "type": "address"
        }
      ],
      "name": "hasLiked",
      "outputs": [
        {
          "internalType": "bool",
          "name": "",
          "type": "bool"
        }
      ],
      "stateMutability": "view",
      "type": "function"
    },
    {
      "inputs": [
        {
          "internalType": "uint256",
          "name": "",
          "type": "uint256"
        }
      ],
      "name": "jokes",
      "outputs": [
        {
          "internalType": "uint256",
          "name": "id",
          "type": "uint256"
        },
        {
          "internalType": "address",
          "name": "creator",
          "type": "address"
        },
        {
          "internalType": "string",
          "name": "content",
          "type": "string"
        },
        {
          "internalType": "uint256",
          "name": "timestamp",
          "type": "uint256"
        },
        {
          "internalType": "uint256",
          "name": "likeCount",
          "type": "uint256"
        },
        {
          "internalType": "uint256",
          "name": "tipAmount",
          "type": "uint256"
        }
      ],
      "stateMutability": "view",
      "type": "function"
    },
    {
      "inputs": [
        {
          "internalType": "uint256",
          "name": "_jokeId",
          "type": "uint256"
        }
      ],
      "name": "likeJoke",
      "outputs": [],
      "stateMutability": "nonpayable",
      "type": "function"
    },
    {
      "inputs": [],
      "name": "nftContractAddress",
      "outputs": [
        {
          "internalType": "address",
          "name": "",
          "type": "address"
        }
      ],
      "stateMutability": "view",
      "type": "function"
    },
    {
      "inputs": [],
      "name": "owner",
      "outputs": [
        {
          "internalType": "address",
          "name": "",
          "type": "address"
        }
      ],
      "stateMutability": "view",
      "type": "function"
    },
    {
      "inputs": [],
      "name": "renounceOwnership",
      "outputs": [],
      "stateMutability": "nonpayable",
      "type": "function"
    },
    {
      "inputs": [
        {
          "internalType": "address",
          "name": "_nftContractAddress",
          "type": "address"
        }
      ],
      "name": "setNftContractAddress",
      "outputs": [],
      "stateMutability": "nonpayable",
      "type": "function"
    },
    {
      "inputs": [
        {
          "internalType": "string",
          "name": "_content",
          "type": "string"
        }
      ],
      "name": "submitJoke",
      "outputs": [],
      "stateMutability": "nonpayable",
      "type": "function"
    },
    {
      "inputs": [
        {
          "internalType": "uint256",
          "name": "_jokeId",
          "type": "uint256"
        },
        {
          "internalType": "uint256",
          "name": "_amount",
          "type": "uint256"
        }
      ],
      "name": "tipJoke",
      "outputs": [],
      "stateMutability": "nonpayable",
      "type": "function"
    },
    {
      "inputs": [],
      "name": "totalJokes",
      "outputs": [
        {
          "internalType": "uint256",
          "name": "",
          "type": "uint256"
        }
      ],
      "stateMutability": "view",
      "type": "function"
    },
    {
      "inputs": [],
      "name": "totalTips",
      "outputs": [
        {
          "internalType": "uint256",
          "name": "",
          "type": "uint256"
        }
      ],
      "stateMutability": "view",
      "type": "function"
    },
    {
      "inputs": [],
      "name": "totalUsers",
      "outputs": [
        {
          "internalType": "uint256",
          "name": "",
          "type": "uint256"
        }
      ],
      "stateMutability": "view",
      "type": "function"
    },
    {
      "inputs": [
        {
          "internalType": "address",
          "name": "newOwner",
          "type": "address"
        }
      ],
      "name": "transferOwnership",
      "outputs": [],
      "stateMutability": "nonpayable",
      "type": "function"
    },
    {
      "inputs": [],
      "name": "usdcToken",
      "outputs": [
        {
          "internalType": "contract IERC20",
          "name": "",
          "type": "address"
        }
      ],
      "stateMutability": "view",
      "type": "function"
    },
    {
      "inputs": [
        {
          "internalType": "address",
          "name": "",
          "type": "address"
        }
      ],
      "name": "userProfiles",
      "outputs": [
        {
          "internalType": "uint256",
          "name": "jokeCount",
          "type": "uint256"
        },
        {
          "internalType": "uint256",
          "name": "totalLikesReceived",
          "type": "uint256"
        },
        {
          "internalType": "uint256",
          "name": "totalTipsReceived",
          "type": "uint256"
        }
      ],
      "stateMutability": "view",
      "type": "function"
    }
  ],
  "bytecode": "0x60806040523480156200001157600080fd5b50604051620028a5380380620028a5833981810160405281019062000037919062000235565b33600073ffffffffffffffffffffffffffffffffffffffff168173ffffffffffffffffffffffffffffffffffffffff1603620000ad5760006040517f1e4fbdf7000000000000000000000000000000000000000000000000000000008152600401620000a4919062000278565b60405180910390fd5b620000be816200010760201b60201c565b5080600160006101000a81548173ffffffffffffffffffffffffffffffffffffffff021916908373ffffffffffffffffffffffffffffffffffffffff1602179055505062000295565b60008060009054906101000a900473ffffffffffffffffffffffffffffffffffffffff169050816000806101000a81548173ffffffffffffffffffffffffffffffffffffffff021916908373ffffffffffffffffffffffffffffffffffffffff1602179055508173ffffffffffffffffffffffffffffffffffffffff168173ffffffffffffffffffffffffffffffffffffffff167f8be0079c531659141344cd1fd0a4f28419497f9722a3daafe3b4186f6b6457e060405160405180910390a35050565b600080fd5b600073ffffffffffffffffffffffffffffffffffffffff82169050919050565b6000620001fd82620001d0565b9050919050565b6200020f81620001f0565b81146200021b57600080fd5b50565b6000815190506200022f8162000204565b92915050565b6000602082840312156200024e576200024d620001cb565b5b60006200025e848285016200021e565b91505092915050565b6200027281620001f0565b82525050565b60006020820190506200028f600083018462000267565b92915050565b61260080620002a56000396000f3fe608060405234801561001057600080fd5b50600436106101165760003560e01c8063987ee156116100a2578063bff1f9e111610071578063bff1f9e1146102ea578063da31d64014610308578063ebdd374814610324578063f2fde38b14610342578063f8085c281461035e57610116565b8063987ee15614610247578063990de8ae14610279578063a64d499814610297578063aae282e1146102cc57610116565b8063332d56d7116100e9578063332d56d7146101a1578063715018a6146101d35780638070e600146101dd5780638da5cb5b146101f95780638fb7092c1461021757610116565b80630283a03a1461011b57806311eac855146101375780631810e77a146101555780632341513514610185575b600080fd5b6101356004803603810190610130919061176d565b61037a565b005b61013f61052d565b60405161014c9190611835565b60405180910390f35b61016f600480360381019061016a9190611886565b610553565b60405161017c9190611ac0565b60405180910390f35b61019f600480360381019061019a9190611ae2565b61076d565b005b6101bb60048036038101906101b69190611b3b565b610a44565b6040516101ca93929190611b77565b60405180910390f35b6101db610a6e565b005b6101f760048036038101906101f29190611886565b610a82565b005b610201610df7565b60405161020e9190611bbd565b60405180910390f35b610231600480360381019061022c9190611bd8565b610e20565b60405161023e9190611c33565b60405180910390f35b610261600480360381019061025c9190611b3b565b610e4f565b60405161027093929190611b77565b60405180910390f35b610281610eb3565b60405161028e9190611c4e565b60405180910390f35b6102b160048036038101906102ac9190611ae2565b610eb9565b6040516102c396959493929190611cb3565b60405180910390f35b6102d4610f9d565b6040516102e19190611bbd565b60405180910390f35b6102f2610fc3565b6040516102ff9190611c4e565b60405180910390f35b610322600480360381019061031d9190611b3b565b610fc9565b005b61032c611015565b6040516103399190611c4e565b60405180910390f35b61035c60048036038101906103579190611b3b565b61101b565b005b61037860048036038101906103739190611ae2565b6110a1565b005b610383336113af565b6007600081548092919061039690611d4a565b9190505550600060075490506040518060c001604052808281526020013373ffffffffffffffffffffffffffffffffffffffff168152602001838152602001428152602001600081526020016000815250600360008381526020019081526020016000206000820151816000015560208201518160010160006101000a81548173ffffffffffffffffffffffffffffffffffffffff021916908373ffffffffffffffffffffffffffffffffffffffff16021790555060408201518160020190816104609190611f94565b50606082015181600301556080820151816004015560a08201518160050155905050600460003373ffffffffffffffffffffffffffffffffffffffff1673ffffffffffffffffffffffffffffffffffffffff16815260200190815260200160002060000160008154809291906104d590611d4a565b91905055503373ffffffffffffffffffffffffffffffffffffffff16817f24486924eacd07687dccf5c775fa30be15faa7aea35002f47ca0b468f3e2729b846040516105219190612066565b60405180910390a35050565b600160009054906101000a900473ffffffffffffffffffffffffffffffffffffffff1681565b6060600082905060008085148061056b575060075485115b6105815760018561057c9190612088565b610585565b6007545b905080821115610593578091505b60008267ffffffffffffffff8111156105af576105ae611642565b5b6040519080825280602002602001820160405280156105e857816020015b6105d56115c7565b8152602001906001900390816105cd5790505b50905060005b83811015610760576003600082856106069190612088565b81526020019081526020016000206040518060c0016040529081600082015481526020016001820160009054906101000a900473ffffffffffffffffffffffffffffffffffffffff1673ffffffffffffffffffffffffffffffffffffffff1673ffffffffffffffffffffffffffffffffffffffff16815260200160028201805461068f90611dc1565b80601f01602080910402602001604051908101604052809291908181526020018280546106bb90611dc1565b80156107085780601f106106dd57610100808354040283529160200191610708565b820191906000526020600020905b8154815290600101906020018083116106eb57829003601f168201915b505050505081526020016003820154815260200160048201548152602001600582015481525050828281518110610742576107416120bc565b5b6020026020010181905250808061075890611d4a565b9150506105ee565b5080935050505092915050565b600073ffffffffffffffffffffffffffffffffffffffff16600260009054906101000a900473ffffffffffffffffffffffffffffffffffffffff1673ffffffffffffffffffffffffffffffffffffffff16036107fe576040517f08c379a00000000000000000000000000000000000000000000000000000000081526004016107f590612137565b60405180910390fd5b6000600460003373ffffffffffffffffffffffffffffffffffffffff1673ffffffffffffffffffffffffffffffffffffffff168152602001908152602001600020905080600301600083815260200190815260200160002060009054906101000a900460ff16156108a4576040517f08c379a000000000000000000000000000000000000000000000000000000000815260040161089b906121a3565b60405180910390fd5b6000600183036108c45760018260000154106108bf57600190505b6108fe565b600283036108e25760058260000154106108dd57600190505b6108fd565b600383036108fc57600a8260000154106108fb57600190505b5b5b5b8061093e576040517f08c379a00000000000000000000000000000000000000000000000000000000081526004016109359061220f565b60405180910390fd5b600182600301600085815260200190815260200160002060006101000a81548160ff021916908315150217905550600260009054906101000a900473ffffffffffffffffffffffffffffffffffffffff1673ffffffffffffffffffffffffffffffffffffffff166340c10f1933856040518363ffffffff1660e01b81526004016109c992919061222f565b600060405180830381600087803b1580156109e357600080fd5b505af11580156109f7573d6000803e3d6000fd5b50505050823373ffffffffffffffffffffffffffffffffffffffff167fbdaec09f93a9e010d98b043dd79efaaa052a0eed6b10c9ffe87c8f7e256da56f60405160405180910390a3505050565b60046020528060005260406000206000915090508060000154908060010154908060020154905083565b610a76611474565b610a8060006114fb565b565b6000600360008481526020019081526020016000206000015403610adb576040517f08c379a0000000000000000000000000000000000000000000000000000000008152600401610ad2906122a4565b60405180910390fd5b60008111610b1e576040517f08c379a0000000000000000000000000000000000000000000000000000000008152600401610b1590612336565b60405180910390fd5b3373ffffffffffffffffffffffffffffffffffffffff166003600084815260200190815260200160002060010160009054906101000a900473ffffffffffffffffffffffffffffffffffffffff1673ffffffffffffffffffffffffffffffffffffffff1603610bc2576040517f08c379a0000000000000000000000000000000000000000000000000000000008152600401610bb9906123a2565b60405180910390fd5b610bcb336113af565b60006003600084815260200190815260200160002060010160009054906101000a900473ffffffffffffffffffffffffffffffffffffffff1690506000600160009054906101000a900473ffffffffffffffffffffffffffffffffffffffff1673ffffffffffffffffffffffffffffffffffffffff166323b872dd3384866040518463ffffffff1660e01b8152600401610c67939291906123c2565b6020604051808303816000875af1158015610c86573d6000803e3d6000fd5b505050506040513d601f19601f82011682018060405250810190610caa9190612425565b905080610cec576040517f08c379a0000000000000000000000000000000000000000000000000000000008152600401610ce39061249e565b60405180910390fd5b82600360008681526020019081526020016000206005016000828254610d1291906124be565b9250508190555082600460008473ffffffffffffffffffffffffffffffffffffffff1673ffffffffffffffffffffffffffffffffffffffff1681526020019081526020016000206002016000828254610d6b91906124be565b925050819055508260086000828254610d8491906124be565b925050819055508173ffffffffffffffffffffffffffffffffffffffff163373ffffffffffffffffffffffffffffffffffffffff16857f6272b66d083c9df27986e8ae861a91622134f112b252f1badf215c36a9399a4386604051610de99190611c4e565b60405180910390a450505050565b60008060009054906101000a900473ffffffffffffffffffffffffffffffffffffffff16905090565b60056020528160005260406000206020528060005260406000206000915091509054906101000a900460ff1681565b600080600080600460008673ffffffffffffffffffffffffffffffffffffffff1673ffffffffffffffffffffffffffffffffffffffff1681526020019081526020016000209050806000015481600101548260020154935093509350509193909250565b60085481565b60036020528060005260406000206000915090508060000154908060010160009054906101000a900473ffffffffffffffffffffffffffffffffffffffff1690806002018054610f0890611dc1565b80601f0160208091040260200160405190810160405280929190818152602001828054610f3490611dc1565b8015610f815780601f10610f5657610100808354040283529160200191610f81565b820191906000526020600020905b815481529060010190602001808311610f6457829003601f168201915b5050505050908060030154908060040154908060050154905086565b600260009054906101000a900473ffffffffffffffffffffffffffffffffffffffff1681565b60095481565b610fd1611474565b80600260006101000a81548173ffffffffffffffffffffffffffffffffffffffff021916908373ffffffffffffffffffffffffffffffffffffffff16021790555050565b60075481565b611023611474565b600073ffffffffffffffffffffffffffffffffffffffff168173ffffffffffffffffffffffffffffffffffffffff16036110955760006040517f1e4fbdf700000000000000000000000000000000000000000000000000000000815260040161108c9190611bbd565b60405180910390fd5b61109e816114fb565b50565b60006003600083815260200190815260200160002060000154036110fa576040517f08c379a00000000000000000000000000000000000000000000000000000000081526004016110f1906122a4565b60405180910390fd5b3373ffffffffffffffffffffffffffffffffffffffff166003600083815260200190815260200160002060010160009054906101000a900473ffffffffffffffffffffffffffffffffffffffff1673ffffffffffffffffffffffffffffffffffffffff160361119e576040517f08c379a00000000000000000000000000000000000000000000000000000000081526004016111959061253e565b60405180910390fd5b6005600082815260200190815260200160002060003373ffffffffffffffffffffffffffffffffffffffff1673ffffffffffffffffffffffffffffffffffffffff16815260200190815260200160002060009054906101000a900460ff161561123c576040517f08c379a0000000000000000000000000000000000000000000000000000000008152600401611233906125aa565b60405180910390fd5b611245336113af565b60036000828152602001908152602001600020600401600081548092919061126c90611d4a565b9190505550600460006003600084815260200190815260200160002060010160009054906101000a900473ffffffffffffffffffffffffffffffffffffffff1673ffffffffffffffffffffffffffffffffffffffff1673ffffffffffffffffffffffffffffffffffffffff16815260200190815260200160002060010160008154809291906112fa90611d4a565b919050555060016005600083815260200190815260200160002060003373ffffffffffffffffffffffffffffffffffffffff1673ffffffffffffffffffffffffffffffffffffffff16815260200190815260200160002060006101000a81548160ff0219169083151502179055503373ffffffffffffffffffffffffffffffffffffffff16817f836976eaa7e1c8e3e2988acea5a119a89127d8965c1b61c071c787a21593f70260405160405180910390a350565b600660008273ffffffffffffffffffffffffffffffffffffffff1673ffffffffffffffffffffffffffffffffffffffff16815260200190815260200160002060009054906101000a900460ff16611471576001600660008373ffffffffffffffffffffffffffffffffffffffff1673ffffffffffffffffffffffffffffffffffffffff16815260200190815260200160002060006101000a81548160ff0219169083151502179055506009600081548092919061146b90611d4a565b91905055505b50565b61147c6115bf565b73ffffffffffffffffffffffffffffffffffffffff1661149a610df7565b73ffffffffffffffffffffffffffffffffffffffff16146114f9576114bd6115bf565b6040517f118cdaa70000000000000000000000000000000000000000000000000000000081526004016114f09190611bbd565b60405180910390fd5b565b60008060009054906101000a900473ffffffffffffffffffffffffffffffffffffffff169050816000806101000a81548173ffffffffffffffffffffffffffffffffffffffff021916908373ffffffffffffffffffffffffffffffffffffffff1602179055508173ffffffffffffffffffffffffffffffffffffffff168173ffffffffffffffffffffffffffffffffffffffff167f8be0079c531659141344cd1fd0a4f28419497f9722a3daafe3b4186f6b6457e060405160405180910390a35050565b600033905090565b6040518060c0016040528060008152602001600073ffffffffffffffffffffffffffffffffffffffff168152602001606081526020016000815260200160008152602001600081525090565b6000604051905090565b600080fd5b600080fd5b600080fd5b600080fd5b6000601f19601f8301169050919050565b7f4e487b7100000000000000000000000000000000000000000000000000000000600052604160045260246000fd5b61167a82611631565b810181811067ffffffffffffffff8211171561169957611698611642565b5b80604052505050565b60006116ac611613565b90506116b88282611671565b919050565b600067ffffffffffffffff8211156116d8576116d7611642565b5b6116e182611631565b9050602081019050919050565b82818337600083830152505050565b600061171061170b846116bd565b6116a2565b90508281526020810184848401111561172c5761172b61162c565b5b6117378482856116ee565b509392505050565b600082601f83011261175457611753611627565b5b81356117648482602086016116fd565b91505092915050565b6000602082840312156117835761178261161d565b5b600082013567ffffffffffffffff8111156117a1576117a0611622565b5b6117ad8482850161173f565b91505092915050565b600073ffffffffffffffffffffffffffffffffffffffff82169050919050565b6000819050919050565b60006117fb6117f66117f1846117b6565b6117d6565b6117b6565b9050919050565b600061180d826117e0565b9050919050565b600061181f82611802565b9050919050565b61182f81611814565b82525050565b600060208201905061184a6000830184611826565b92915050565b6000819050919050565b61186381611850565b811461186e57600080fd5b50565b6000813590506118808161185a565b92915050565b6000806040838503121561189d5761189c61161d565b5b60006118ab85828601611871565b92505060206118bc85828601611871565b9150509250929050565b600081519050919050565b600082825260208201905092915050565b6000819050602082019050919050565b6118fb81611850565b82525050565b600061190c826117b6565b9050919050565b61191c81611901565b82525050565b600081519050919050565b600082825260208201905092915050565b60005b8381101561195c578082015181840152602081019050611941565b60008484015250505050565b600061197382611922565b61197d818561192d565b935061198d81856020860161193e565b61199681611631565b840191505092915050565b600060c0830160008301516119b960008601826118f2565b5060208301516119cc6020860182611913565b50604083015184820360408601526119e48282611968565b91505060608301516119f960608601826118f2565b506080830151611a0c60808601826118f2565b5060a0830151611a1f60a08601826118f2565b508091505092915050565b6000611a3683836119a1565b905092915050565b6000602082019050919050565b6000611a56826118c6565b611a6081856118d1565b935083602082028501611a72856118e2565b8060005b85811015611aae5784840389528151611a8f8582611a2a565b9450611a9a83611a3e565b925060208a01995050600181019050611a76565b50829750879550505050505092915050565b60006020820190508181036000830152611ada8184611a4b565b905092915050565b600060208284031215611af857611af761161d565b5b6000611b0684828501611871565b91505092915050565b611b1881611901565b8114611b2357600080fd5b50565b600081359050611b3581611b0f565b92915050565b600060208284031215611b5157611b5061161d565b5b6000611b5f84828501611b26565b91505092915050565b611b7181611850565b82525050565b6000606082019050611b8c6000830186611b68565b611b996020830185611b68565b611ba66040830184611b68565b949350505050565b611bb781611901565b82525050565b6000602082019050611bd26000830184611bae565b92915050565b60008060408385031215611bef57611bee61161d565b5b6000611bfd85828601611871565b9250506020611c0e85828601611b26565b9150509250929050565b60008115159050919050565b611c2d81611c18565b82525050565b6000602082019050611c486000830184611c24565b92915050565b6000602082019050611c636000830184611b68565b92915050565b600082825260208201905092915050565b6000611c8582611922565b611c8f8185611c69565b9350611c9f81856020860161193e565b611ca881611631565b840191505092915050565b600060c082019050611cc86000830189611b68565b611cd56020830188611bae565b8181036040830152611ce78187611c7a565b9050611cf66060830186611b68565b611d036080830185611b68565b611d1060a0830184611b68565b979650505050505050565b7f4e487b7100000000000000000000000000000000000000000000000000000000600052601160045260246000fd5b6000611d5582611850565b91507fffffffffffffffffffffffffffffffffffffffffffffffffffffffffffffffff8203611d8757611d86611d1b565b5b600182019050919050565b7f4e487b7100000000000000000000000000000000000000000000000000000000600052602260045260246000fd5b60006002820490506001821680611dd957607f821691505b602082108103611dec57611deb611d92565b5b50919050565b60008190508160005260206000209050919050565b60006020601f8301049050919050565b600082821b905092915050565b600060088302611e547fffffffffffffffffffffffffffffffffffffffffffffffffffffffffffffffff82611e17565b611e5e8683611e17565b95508019841693508086168417925050509392505050565b6000611e91611e8c611e8784611850565b6117d6565b611850565b9050919050565b6000819050919050565b611eab83611e76565b611ebf611eb782611e98565b848454611e24565b825550505050565b600090565b611ed4611ec7565b611edf818484611ea2565b505050565b5b81811015611f0357611ef8600082611ecc565b600181019050611ee5565b5050565b601f821115611f4857611f1981611df2565b611f2284611e07565b81016020851015611f31578190505b611f45611f3d85611e07565b830182611ee4565b50505b505050565b600082821c905092915050565b6000611f6b60001984600802611f4d565b1980831691505092915050565b6000611f848383611f5a565b9150826002028217905092915050565b611f9d82611922565b67ffffffffffffffff811115611fb657611fb5611642565b5b611fc08254611dc1565b611fcb828285611f07565b600060209050601f831160018114611ffe5760008415611fec578287015190505b611ff68582611f78565b86555061205e565b601f19841661200c86611df2565b60005b828110156120345784890151825560018201915060208501945060208101905061200f565b86831015612051578489015161204d601f891682611f5a565b8355505b6001600288020188555050505b505050505050565b600060208201905081810360008301526120808184611c7a565b905092915050565b600061209382611850565b915061209e83611850565b92508282039050818111156120b6576120b5611d1b565b5b92915050565b7f4e487b7100000000000000000000000000000000000000000000000000000000600052603260045260246000fd5b7f4e465420636f6e7472616374206e6f7420736574000000000000000000000000600082015250565b6000612121601483611c69565b915061212c826120eb565b602082019050919050565b6000602082019050818103600083015261215081612114565b9050919050565b7f426164676520616c726561647920636c61696d65640000000000000000000000600082015250565b600061218d601583611c69565b915061219882612157565b602082019050919050565b600060208201905081810360008301526121bc81612180565b9050919050565b7f4e6f7420656c696769626c6520666f7220746869732062616467650000000000600082015250565b60006121f9601b83611c69565b9150612204826121c3565b602082019050919050565b60006020820190508181036000830152612228816121ec565b9050919050565b60006040820190506122446000830185611bae565b6122516020830184611b68565b9392505050565b7f4a6f6b6520646f6573206e6f7420657869737400000000000000000000000000600082015250565b600061228e601383611c69565b915061229982612258565b602082019050919050565b600060208201905081810360008301526122bd81612281565b9050919050565b7f54697020616d6f756e74206d7573742062652067726561746572207468616e2060008201527f7a65726f00000000000000000000000000000000000000000000000000000000602082015250565b6000612320602483611c69565b915061232b826122c4565b604082019050919050565b6000602082019050818103600083015261234f81612313565b9050919050565b7f43616e6e6f742074697020796f7572206f776e206a6f6b650000000000000000600082015250565b600061238c601883611c69565b915061239782612356565b602082019050919050565b600060208201905081810360008301526123bb8161237f565b9050919050565b60006060820190506123d76000830186611bae565b6123e46020830185611bae565b6123f16040830184611b68565b949350505050565b61240281611c18565b811461240d57600080fd5b50565b60008151905061241f816123f9565b92915050565b60006020828403121561243b5761243a61161d565b5b600061244984828501612410565b91505092915050565b7f55534443207472616e73666572206661696c6564000000000000000000000000600082015250565b6000612488601483611c69565b915061249382612452565b602082019050919050565b600060208201905081810360008301526124b78161247b565b9050919050565b60006124c982611850565b91506124d483611850565b92508282019050808211156124ec576124eb611d1b565b5b92915050565b7f43616e6e6f74206c696b6520796f7572206f776e206a6f6b6500000000000000600082015250565b6000612528601983611c69565b9150612533826124f2565b602082019050919050565b600060208201905081810360008301526125578161251b565b9050919050565b7f416c7265616479206c696b656400000000000000000000000000000000000000600082015250565b6000612594600d83611c69565b915061259f8261255e565b602082019050919050565b600060208201905081810360008301526125c381612587565b905091905056fea26469706673582212202ac0820a926030f1e49b3ca9174c78e74f1ea4f6006d3de2fbb29574334342bd64736f6c63430008140033",
  "linkReferences": {},
  "deployedLinkReferences": {}
}