{
  "_format": "hh-sol-artifact-1",
  "contractName": "DadJokesNFT",
  "sourceName": "src/DadJokesNFT.sol",
  "abi": [
    {
      "inputs": [
        {
          "internalType": "address",
          "name": "_initialOwner",
          "type": "address"
        },
        {
          "internalType": "string",
          "name": "baseTokenURI_",
          "type": "string"
        }
      ],
      "stateMutability": "nonpayable",
      "type": "constructor"
    },
    {
      "inputs": [
        {
          "internalType": "address",
          "name": "sender",
          "type": "address"
        },
        {
          "internalType": "uint256",
          "name": "tokenId",
          "type": "uint256"
        },
        {
          "internalType": "address",
          "name": "owner",
          "type": "address"
        }
      ],
      "name": "ERC721IncorrectOwner",
      "type": "error"
    },
    {
      "inputs": [
        {
          "internalType": "address",
          "name": "operator",
          "type": "address"
        },
        {
          "internalType": "uint256",
          "name": "tokenId",
          "type": "uint256"
        }
      ],
      "name": "ERC721InsufficientApproval",
      "type": "error"
    },
    {
      "inputs": [
        {
          "internalType": "address",
          "name": "approver",
          "type": "address"
        }
      ],
      "name": "ERC721InvalidApprover",
      "type": "error"
    },
    {
      "inputs": [
        {
          "internalType": "address",
          "name": "operator",
          "type": "address"
        }
      ],
      "name": "ERC721InvalidOperator",
      "type": "error"
    },
    {
      "inputs": [
        {
          "internalType": "address",
          "name": "owner",
          "type": "address"
        }
      ],
      "name": "ERC721InvalidOwner",
      "type": "error"
    },
    {
      "inputs": [
        {
          "internalType": "address",
          "name": "receiver",
          "type": "address"
        }
      ],
      "name": "ERC721InvalidReceiver",
      "type": "error"
    },
    {
      "inputs": [
        {
          "internalType": "address",
          "name": "sender",
          "type": "address"
        }
      ],
      "name": "ERC721InvalidSender",
      "type": "error"
    },
    {
      "inputs": [
        {
          "internalType": "uint256",
          "name": "tokenId",
          "type": "uint256"
        }
      ],
      "name": "ERC721NonexistentToken",
      "type": "error"
    },
    {
      "inputs": [
        {
          "internalType": "address",
          "name": "owner",
          "type": "address"
        }
      ],
      "name": "OwnableInvalidOwner",
      "type": "error"
    },
    {
      "inputs": [
        {
          "internalType": "address",
          "name": "account",
          "type": "address"
        }
      ],
      "name": "OwnableUnauthorizedAccount",
      "type": "error"
    },
    {
      "anonymous": false,
      "inputs": [
        {
          "indexed": true,
          "internalType": "address",
          "name": "owner",
          "type": "address"
        },
        {
          "indexed": true,
          "internalType": "address",
          "name": "approved",
          "type": "address"
        },
        {
          "indexed": true,
          "internalType": "uint256",
          "name": "tokenId",
          "type": "uint256"
        }
      ],
      "name": "Approval",
      "type": "event"
    },
    {
      "anonymous": false,
      "inputs": [
        {
          "indexed": true,
          "internalType": "address",
          "name": "owner",
          "type": "address"
        },
        {
          "indexed": true,
          "internalType": "address",
          "name": "operator",
          "type": "address"
        },
        {
          "indexed": false,
          "internalType": "bool",
          "name": "approved",
          "type": "bool"
        }
      ],
      "name": "ApprovalForAll",
      "type": "event"
    },
    {
      "anonymous": false,
      "inputs": [
        {
          "indexed": true,
          "internalType": "address",
          "name": "previousOwner",
          "type": "address"
        },
        {
          "indexed": true,
          "internalType": "address",
          "name": "newOwner",
          "type": "address"
        }
      ],
      "name": "OwnershipTransferred",
      "type": "event"
    },
    {
      "anonymous": false,
      "inputs": [
        {
          "indexed": true,
          "internalType": "address",
          "name": "from",
          "type": "address"
        },
        {
          "indexed": true,
          "internalType": "address",
          "name": "to",
          "type": "address"
        },
        {
          "indexed": true,
          "internalType": "uint256",
          "name": "tokenId",
          "type": "uint256"
        }
      ],
      "name": "Transfer",
      "type": "event"
    },
    {
      "inputs": [
        {
          "internalType": "address",
          "name": "to",
          "type": "address"
        },
        {
          "internalType": "uint256",
          "name": "tokenId",
          "type": "uint256"
        }
      ],
      "name": "approve",
      "outputs": [],
      "stateMutability": "nonpayable",
      "type": "function"
    },
    {
      "inputs": [
        {
          "internalType": "address",
          "name": "owner",
          "type": "address"
        }
      ],
      "name": "balanceOf",
      "outputs": [
        {
          "internalType": "uint256",
          "name": "",
          "type": "uint256"
        }
      ],
      "stateMutability": "view",
      "type": "function"
    },
    {
      "inputs": [
        {
          "internalType": "uint256",
          "name": "tokenId",
          "type": "uint256"
        }
      ],
      "name": "getApproved",
      "outputs": [
        {
          "internalType": "address",
          "name": "",
          "type": "address"
        }
      ],
      "stateMutability": "view",
      "type": "function"
    },
    {
      "inputs": [
        {
          "internalType": "address",
          "name": "owner",
          "type": "address"
        },
        {
          "internalType": "address",
          "name": "operator",
          "type": "address"
        }
      ],
      "name": "isApprovedForAll",
      "outputs": [
        {
          "internalType": "bool",
          "name": "",
          "type": "bool"
        }
      ],
      "stateMutability": "view",
      "type": "function"
    },
    {
      "inputs": [
        {
          "internalType": "address",
          "name": "_recipient",
          "type": "address"
        },
        {
          "internalType": "uint256",
          "name": "_tokenId",
          "type": "uint256"
        }
      ],
      "name": "mint",
      "outputs": [],
      "stateMutability": "nonpayable",
      "type": "function"
    },
    {
      "inputs": [],
      "name": "minter",
      "outputs": [
        {
          "internalType": "address",
          "name": "",
          "type": "address"
        }
      ],
      "stateMutability": "view",
      "type": "function"
    },
    {
      "inputs": [],
      "name": "name",
      "outputs": [
        {
          "internalType": "string",
          "name": "",
          "type": "string"
        }
      ],
      "stateMutability": "view",
      "type": "function"
    },
    {
      "inputs": [],
      "name": "owner",
      "outputs": [
        {
          "internalType": "address",
          "name": "",
          "type": "address"
        }
      ],
      "stateMutability": "view",
      "type": "function"
    },
    {
      "inputs": [
        {
          "internalType": "uint256",
          "name": "tokenId",
          "type": "uint256"
        }
      ],
      "name": "ownerOf",
      "outputs": [
        {
          "internalType": "address",
          "name": "",
          "type": "address"
        }
      ],
      "stateMutability": "view",
      "type": "function"
    },
    {
      "inputs": [],
      "name": "renounceOwnership",
      "outputs": [],
      "stateMutability": "nonpayable",
      "type": "function"
    },
    {
      "inputs": [
        {
          "internalType": "address",
          "name": "from",
          "type": "address"
        },
        {
          "internalType": "address",
          "name": "to",
          "type": "address"
        },
        {
          "internalType": "uint256",
          "name": "tokenId",
          "type": "uint256"
        }
      ],
      "name": "safeTransferFrom",
      "outputs": [],
      "stateMutability": "nonpayable",
      "type": "function"
    },
    {
      "inputs": [
        {
          "internalType": "address",
          "name": "from",
          "type": "address"
        },
        {
          "internalType": "address",
          "name": "to",
          "type": "address"
        },
        {
          "internalType": "uint256",
          "name": "tokenId",
          "type": "uint256"
        },
        {
          "internalType": "bytes",
          "name": "data",
          "type": "bytes"
        }
      ],
      "name": "safeTransferFrom",
      "outputs": [],
      "stateMutability": "nonpayable",
      "type": "function"
    },
    {
      "inputs": [
        {
          "internalType": "address",
          "name": "operator",
          "type": "address"
        },
        {
          "internalType": "bool",
          "name": "approved",
          "type": "bool"
        }
      ],
      "name": "setApprovalForAll",
      "outputs": [],
      "stateMutability": "nonpayable",
      "type": "function"
    },
    {
      "inputs": [
        {
          "internalType": "string",
          "name": "baseTokenURI_",
          "type": "string"
        }
      ],
      "name": "setBaseURI",
      "outputs": [],
      "stateMutability": "nonpayable",
      "type": "function"
    },
    {
      "inputs": [
        {
          "internalType": "address",
          "name": "_minter",
          "type": "address"
        }
      ],
      "name": "setMinter",
      "outputs": [],
      "stateMutability": "nonpayable",
      "type": "function"
    },
    {
      "inputs": [
        {
          "internalType": "bytes4",
          "name": "interfaceId",
          "type": "bytes4"
        }
      ],
      "name": "supportsInterface",
      "outputs": [
        {
          "internalType": "bool",
          "name": "",
          "type": "bool"
        }
      ],
      "stateMutability": "view",
      "type": "function"
    },
    {
      "inputs": [],
      "name": "symbol",
      "outputs": [
        {
          "internalType": "string",
          "name": "",
          "type": "string"
        }
      ],
      "stateMutability": "view",
      "type": "function"
    },
    {
      "inputs": [
        {
          "internalType": "uint256",
          "name": "tokenId",
          "type": "uint256"
        }
      ],
      "name": "tokenURI",
      "outputs": [
        {
          "internalType": "string",
          "name": "",
          "type": "string"
        }
      ],
      "stateMutability": "view",
      "type": "function"
    },
    {
      "inputs": [
        {
          "internalType": "address",
          "name": "from",
          "type": "address"
        },
        {
          "internalType": "address",
          "name": "to",
          "type": "address"
        },
        {
          "internalType": "uint256",
          "name": "tokenId",
          "type": "uint256"
        }
      ],
      "name": "transferFrom",
      "outputs": [],
      "stateMutability": "nonpayable",
      "type": "function"
    },
    {
      "inputs": [
        {
          "internalType": "address",
          "name": "newOwner",
          "type": "address"
        }
      ],
      "name": "transferOwnership",
      "outputs": [],
      "stateMutability": "nonpayable",
      "type": "function"
    }
  ],
  "bytecode": "0x60806040523480156200001157600080fd5b506040516200304c3803806200304c833981810160405281019062000037919062000464565b816040518060400160405280601a81526020017f4461644a6f6b657320416368696576656d656e742042616467650000000000008152506040518060400160405280600481526020017f444a4142000000000000000000000000000000000000000000000000000000008152508160009081620000b5919062000715565b508060019081620000c7919062000715565b505050600073ffffffffffffffffffffffffffffffffffffffff168173ffffffffffffffffffffffffffffffffffffffff16036200013f5760006040517f1e4fbdf70000000000000000000000000000000000000000000000000000000081526004016200013691906200080d565b60405180910390fd5b6200015081620001a360201b60201c565b506200016d67026cdd34c5232f6a60c01b6200026960201b60201c565b620001896781d8dbb9382c011560c01b6200026960201b60201c565b80600890816200019a919062000715565b5050506200082a565b6000600660009054906101000a900473ffffffffffffffffffffffffffffffffffffffff16905081600660006101000a81548173ffffffffffffffffffffffffffffffffffffffff021916908373ffffffffffffffffffffffffffffffffffffffff1602179055508173ffffffffffffffffffffffffffffffffffffffff168173ffffffffffffffffffffffffffffffffffffffff167f8be0079c531659141344cd1fd0a4f28419497f9722a3daafe3b4186f6b6457e060405160405180910390a35050565b50565b6000604051905090565b600080fd5b600080fd5b600073ffffffffffffffffffffffffffffffffffffffff82169050919050565b6000620002ad8262000280565b9050919050565b620002bf81620002a0565b8114620002cb57600080fd5b50565b600081519050620002df81620002b4565b92915050565b600080fd5b600080fd5b6000601f19601f8301169050919050565b7f4e487b7100000000000000000000000000000000000000000000000000000000600052604160045260246000fd5b6200033a82620002ef565b810181811067ffffffffffffffff821117156200035c576200035b62000300565b5b80604052505050565b6000620003716200026c565b90506200037f82826200032f565b919050565b600067ffffffffffffffff821115620003a257620003a162000300565b5b620003ad82620002ef565b9050602081019050919050565b60005b83811015620003da578082015181840152602081019050620003bd565b60008484015250505050565b6000620003fd620003f78462000384565b62000365565b9050828152602081018484840111156200041c576200041b620002ea565b5b62000429848285620003ba565b509392505050565b600082601f830112620004495762000448620002e5565b5b81516200045b848260208601620003e6565b91505092915050565b600080604083850312156200047e576200047d62000276565b5b60006200048e85828601620002ce565b925050602083015167ffffffffffffffff811115620004b257620004b16200027b565b5b620004c08582860162000431565b9150509250929050565b600081519050919050565b7f4e487b7100000000000000000000000000000000000000000000000000000000600052602260045260246000fd5b600060028204905060018216806200051d57607f821691505b602082108103620005335762000532620004d5565b5b50919050565b60008190508160005260206000209050919050565b60006020601f8301049050919050565b600082821b905092915050565b6000600883026200059d7fffffffffffffffffffffffffffffffffffffffffffffffffffffffffffffffff826200055e565b620005a986836200055e565b95508019841693508086168417925050509392505050565b6000819050919050565b6000819050919050565b6000620005f6620005f0620005ea84620005c1565b620005cb565b620005c1565b9050919050565b6000819050919050565b6200061283620005d5565b6200062a6200062182620005fd565b8484546200056b565b825550505050565b600090565b6200064162000632565b6200064e81848462000607565b505050565b5b8181101562000676576200066a60008262000637565b60018101905062000654565b5050565b601f821115620006c5576200068f8162000539565b6200069a846200054e565b81016020851015620006aa578190505b620006c2620006b9856200054e565b83018262000653565b50505b505050565b600082821c905092915050565b6000620006ea60001984600802620006ca565b1980831691505092915050565b6000620007058383620006d7565b9150826002028217905092915050565b6200072082620004ca565b67ffffffffffffffff8111156200073c576200073b62000300565b5b62000748825462000504565b620007558282856200067a565b600060209050601f8311600181146200078d576000841562000778578287015190505b620007848582620006f7565b865550620007f4565b601f1984166200079d8662000539565b60005b82811015620007c757848901518255600182019150602085019450602081019050620007a0565b86831015620007e75784890151620007e3601f891682620006d7565b8355505b6001600288020188555050505b505050505050565b6200080781620002a0565b82525050565b6000602082019050620008246000830184620007fc565b92915050565b612812806200083a6000396000f3fe608060405234801561001057600080fd5b506004361061012c5760003560e01c806370a08231116100ad578063b88d4fde11610071578063b88d4fde1461031b578063c87b56dd14610337578063e985e9c514610367578063f2fde38b14610397578063fca3b5aa146103b35761012c565b806370a0823114610289578063715018a6146102b95780638da5cb5b146102c357806395d89b41146102e1578063a22cb465146102ff5761012c565b806323b872dd116100f457806323b872dd146101e957806340c10f191461020557806342842e0e1461022157806355f804b31461023d5780636352211e146102595761012c565b806301ffc9a71461013157806306fdde0314610161578063075461721461017f578063081812fc1461019d578063095ea7b3146101cd575b600080fd5b61014b60048036038101906101469190611c88565b6103cf565b6040516101589190611cd0565b60405180910390f35b6101696104b1565b6040516101769190611d7b565b60405180910390f35b610187610543565b6040516101949190611dde565b60405180910390f35b6101b760048036038101906101b29190611e2f565b610569565b6040516101c49190611dde565b60405180910390f35b6101e760048036038101906101e29190611e88565b610585565b005b61020360048036038101906101fe9190611ec8565b61059b565b005b61021f600480360381019061021a9190611e88565b61069d565b005b61023b60048036038101906102369190611ec8565b610817565b005b61025760048036038101906102529190612050565b610837565b005b610273600480360381019061026e9190611e2f565b6108a2565b6040516102809190611dde565b60405180910390f35b6102a3600480360381019061029e9190612099565b6108b4565b6040516102b091906120d5565b60405180910390f35b6102c161096e565b005b6102cb610982565b6040516102d89190611dde565b60405180910390f35b6102e96109ac565b6040516102f69190611d7b565b60405180910390f35b6103196004803603810190610314919061211c565b610a3e565b005b610335600480360381019061033091906121fd565b610a54565b005b610351600480360381019061034c9190611e2f565b610a79565b60405161035e9190611d7b565b60405180910390f35b610381600480360381019061037c9190612280565b610ae2565b60405161038e9190611cd0565b60405180910390f35b6103b160048036038101906103ac9190612099565b610b76565b005b6103cd60048036038101906103c89190612099565b610bfc565b005b60007f80ac58cd000000000000000000000000000000000000000000000000000000007bffffffffffffffffffffffffffffffffffffffffffffffffffffffff1916827bffffffffffffffffffffffffffffffffffffffffffffffffffffffff1916148061049a57507f5b5e139f000000000000000000000000000000000000000000000000000000007bffffffffffffffffffffffffffffffffffffffffffffffffffffffff1916827bffffffffffffffffffffffffffffffffffffffffffffffffffffffff1916145b806104aa57506104a982610c98565b5b9050919050565b6060600080546104c0906122ef565b80601f01602080910402602001604051908101604052809291908181526020018280546104ec906122ef565b80156105395780601f1061050e57610100808354040283529160200191610539565b820191906000526020600020905b81548152906001019060200180831161051c57829003601f168201915b5050505050905090565b600760009054906101000a900473ffffffffffffffffffffffffffffffffffffffff1681565b600061057482610d02565b5061057e82610d8a565b9050919050565b6105978282610592610dc7565b610dcf565b5050565b600073ffffffffffffffffffffffffffffffffffffffff168273ffffffffffffffffffffffffffffffffffffffff160361060d5760006040517f64a0ae920000000000000000000000000000000000000000000000000000000081526004016106049190611dde565b60405180910390fd5b6000610621838361061c610dc7565b610de1565b90508373ffffffffffffffffffffffffffffffffffffffff168173ffffffffffffffffffffffffffffffffffffffff1614610697578382826040517f64283d7b00000000000000000000000000000000000000000000000000000000815260040161068e93929190612320565b60405180910390fd5b50505050565b6106b16762db9b8081b2d7f760c01b610ffb565b6106c567f42f3451ef8af51c60c01b610ffb565b6106d9671ad5b3c128b5bd1c60c01b610ffb565b6106ed67e493424bc56654e660c01b610ffb565b610701670b43254ab24d3ef360c01b610ffb565b600760009054906101000a900473ffffffffffffffffffffffffffffffffffffffff1673ffffffffffffffffffffffffffffffffffffffff163373ffffffffffffffffffffffffffffffffffffffff1614610791576040517f08c379a0000000000000000000000000000000000000000000000000000000008152600401610788906123a3565b60405180910390fd5b6107a567a861fadcd761f82060c01b610ffb565b6107b967131e2a7c41ce301c60c01b610ffb565b6107cd67ec392c6a96a200b060c01b610ffb565b6107e16743c814ae95a7466660c01b610ffb565b6107f567492ae05da3808b5b60c01b610ffb565b6108096741e6d1d9e97072d260c01b610ffb565b6108138282610ffe565b5050565b61083283838360405180602001604052806000815250610a54565b505050565b61084b67ae1b1c26ef80ab4560c01b610ffb565b61085361101c565b6108676752d28be658e81fdf60c01b610ffb565b61087b675e7f78cb5eadfa0d60c01b610ffb565b61088f67c45430963ce94c1860c01b610ffb565b806008908161089e919061256f565b5050565b60006108ad82610d02565b9050919050565b60008073ffffffffffffffffffffffffffffffffffffffff168273ffffffffffffffffffffffffffffffffffffffff16036109275760006040517f89c62b6400000000000000000000000000000000000000000000000000000000815260040161091e9190611dde565b60405180910390fd5b600360008373ffffffffffffffffffffffffffffffffffffffff1673ffffffffffffffffffffffffffffffffffffffff168152602001908152602001600020549050919050565b61097661101c565b61098060006110a3565b565b6000600660009054906101000a900473ffffffffffffffffffffffffffffffffffffffff16905090565b6060600180546109bb906122ef565b80601f01602080910402602001604051908101604052809291908181526020018280546109e7906122ef565b8015610a345780601f10610a0957610100808354040283529160200191610a34565b820191906000526020600020905b815481529060010190602001808311610a1757829003601f168201915b5050505050905090565b610a50610a49610dc7565b8383611169565b5050565b610a5f84848461059b565b610a73610a6a610dc7565b858585856112d8565b50505050565b6060610a8482610d02565b506000610a8f611489565b90506000815111610aaf5760405180602001604052806000815250610ada565b80610ab984611557565b604051602001610aca92919061267d565b6040516020818303038152906040525b915050919050565b6000600560008473ffffffffffffffffffffffffffffffffffffffff1673ffffffffffffffffffffffffffffffffffffffff16815260200190815260200160002060008373ffffffffffffffffffffffffffffffffffffffff1673ffffffffffffffffffffffffffffffffffffffff16815260200190815260200160002060009054906101000a900460ff16905092915050565b610b7e61101c565b600073ffffffffffffffffffffffffffffffffffffffff168173ffffffffffffffffffffffffffffffffffffffff1603610bf05760006040517f1e4fbdf7000000000000000000000000000000000000000000000000000000008152600401610be79190611dde565b60405180910390fd5b610bf9816110a3565b50565b610c1067c17e250a009b96b160c01b610ffb565b610c1861101c565b610c2c67f18460089a89c55d60c01b610ffb565b610c4067de97aa7cbd6745ea60c01b610ffb565b610c5467fbd183fea92c548860c01b610ffb565b80600760006101000a81548173ffffffffffffffffffffffffffffffffffffffff021916908373ffffffffffffffffffffffffffffffffffffffff16021790555050565b60007f01ffc9a7000000000000000000000000000000000000000000000000000000007bffffffffffffffffffffffffffffffffffffffffffffffffffffffff1916827bffffffffffffffffffffffffffffffffffffffffffffffffffffffff1916149050919050565b600080610d0e83611625565b9050600073ffffffffffffffffffffffffffffffffffffffff168173ffffffffffffffffffffffffffffffffffffffff1603610d8157826040517f7e273289000000000000000000000000000000000000000000000000000000008152600401610d7891906120d5565b60405180910390fd5b80915050919050565b60006004600083815260200190815260200160002060009054906101000a900473ffffffffffffffffffffffffffffffffffffffff169050919050565b600033905090565b610ddc8383836001611662565b505050565b600080610ded84611625565b9050600073ffffffffffffffffffffffffffffffffffffffff168373ffffffffffffffffffffffffffffffffffffffff1614610e2f57610e2e818486611827565b5b600073ffffffffffffffffffffffffffffffffffffffff168173ffffffffffffffffffffffffffffffffffffffff1614610ec057610e71600085600080611662565b6001600360008373ffffffffffffffffffffffffffffffffffffffff1673ffffffffffffffffffffffffffffffffffffffff168152602001908152602001600020600082825403925050819055505b600073ffffffffffffffffffffffffffffffffffffffff168573ffffffffffffffffffffffffffffffffffffffff1614610f43576001600360008773ffffffffffffffffffffffffffffffffffffffff1673ffffffffffffffffffffffffffffffffffffffff168152602001908152602001600020600082825401925050819055505b846002600086815260200190815260200160002060006101000a81548173ffffffffffffffffffffffffffffffffffffffff021916908373ffffffffffffffffffffffffffffffffffffffff160217905550838573ffffffffffffffffffffffffffffffffffffffff168273ffffffffffffffffffffffffffffffffffffffff167fddf252ad1be2c89b69c2b068fc378daa952ba7f163c4a11628f55a4df523b3ef60405160405180910390a4809150509392505050565b50565b6110188282604051806020016040528060008152506118eb565b5050565b611024610dc7565b73ffffffffffffffffffffffffffffffffffffffff16611042610982565b73ffffffffffffffffffffffffffffffffffffffff16146110a157611065610dc7565b6040517f118cdaa70000000000000000000000000000000000000000000000000000000081526004016110989190611dde565b60405180910390fd5b565b6000600660009054906101000a900473ffffffffffffffffffffffffffffffffffffffff16905081600660006101000a81548173ffffffffffffffffffffffffffffffffffffffff021916908373ffffffffffffffffffffffffffffffffffffffff1602179055508173ffffffffffffffffffffffffffffffffffffffff168173ffffffffffffffffffffffffffffffffffffffff167f8be0079c531659141344cd1fd0a4f28419497f9722a3daafe3b4186f6b6457e060405160405180910390a35050565b600073ffffffffffffffffffffffffffffffffffffffff168273ffffffffffffffffffffffffffffffffffffffff16036111da57816040517f5b08ba180000000000000000000000000000000000000000000000000000000081526004016111d19190611dde565b60405180910390fd5b80600560008573ffffffffffffffffffffffffffffffffffffffff1673ffffffffffffffffffffffffffffffffffffffff16815260200190815260200160002060008473ffffffffffffffffffffffffffffffffffffffff1673ffffffffffffffffffffffffffffffffffffffff16815260200190815260200160002060006101000a81548160ff0219169083151502179055508173ffffffffffffffffffffffffffffffffffffffff168373ffffffffffffffffffffffffffffffffffffffff167f17307eab39ab6107e8899845ad3d59bd9653f200f220920489ca2b5937696c31836040516112cb9190611cd0565b60405180910390a3505050565b60008373ffffffffffffffffffffffffffffffffffffffff163b1115611482578273ffffffffffffffffffffffffffffffffffffffff1663150b7a02868685856040518563ffffffff1660e01b815260040161133794939291906126f6565b6020604051808303816000875af192505050801561137357506040513d601f19601f820116820180604052508101906113709190612757565b60015b6113f7573d80600081146113a3576040519150601f19603f3d011682016040523d82523d6000602084013e6113a8565b606091505b5060008151036113ef57836040517f64a0ae920000000000000000000000000000000000000000000000000000000081526004016113e69190611dde565b60405180910390fd5b805181602001fd5b63150b7a0260e01b7bffffffffffffffffffffffffffffffffffffffffffffffffffffffff1916817bffffffffffffffffffffffffffffffffffffffffffffffffffffffff19161461148057836040517f64a0ae920000000000000000000000000000000000000000000000000000000081526004016114779190611dde565b60405180910390fd5b505b5050505050565b606061149f67ca28d4823c89ce7460c01b610ffb565b6114b367ce68ebfb806f7f0f60c01b610ffb565b6114c767673096afa16d536760c01b610ffb565b600880546114d4906122ef565b80601f0160208091040260200160405190810160405280929190818152602001828054611500906122ef565b801561154d5780601f106115225761010080835404028352916020019161154d565b820191906000526020600020905b81548152906001019060200180831161153057829003601f168201915b5050505050905090565b6060600060016115668461190f565b01905060008167ffffffffffffffff81111561158557611584611f25565b5b6040519080825280601f01601f1916602001820160405280156115b75781602001600182028036833780820191505090505b509050600082602001820190505b60011561161a578080600190039150507f3031323334353637383961626364656600000000000000000000000000000000600a86061a8153600a858161160e5761160d612784565b5b049450600085036115c5575b819350505050919050565b60006002600083815260200190815260200160002060009054906101000a900473ffffffffffffffffffffffffffffffffffffffff169050919050565b808061169b5750600073ffffffffffffffffffffffffffffffffffffffff168273ffffffffffffffffffffffffffffffffffffffff1614155b156117cf5760006116ab84610d02565b9050600073ffffffffffffffffffffffffffffffffffffffff168373ffffffffffffffffffffffffffffffffffffffff161415801561171657508273ffffffffffffffffffffffffffffffffffffffff168173ffffffffffffffffffffffffffffffffffffffff1614155b801561172957506117278184610ae2565b155b1561176b57826040517fa9fbf51f0000000000000000000000000000000000000000000000000000000081526004016117629190611dde565b60405180910390fd5b81156117cd57838573ffffffffffffffffffffffffffffffffffffffff168273ffffffffffffffffffffffffffffffffffffffff167f8c5be1e5ebec7d5bd14f71427d1e84f3dd0314c0f7b2291e5b200ac8c7c3b92560405160405180910390a45b505b836004600085815260200190815260200160002060006101000a81548173ffffffffffffffffffffffffffffffffffffffff021916908373ffffffffffffffffffffffffffffffffffffffff16021790555050505050565b611832838383611a62565b6118e657600073ffffffffffffffffffffffffffffffffffffffff168373ffffffffffffffffffffffffffffffffffffffff16036118a757806040517f7e27328900000000000000000000000000000000000000000000000000000000815260040161189e91906120d5565b60405180910390fd5b81816040517f177e802f0000000000000000000000000000000000000000000000000000000081526004016118dd9291906127b3565b60405180910390fd5b505050565b6118f58383611b23565b61190a611900610dc7565b60008585856112d8565b505050565b600080600090507a184f03e93ff9f4daa797ed6e38ed64bf6a1f010000000000000000831061196d577a184f03e93ff9f4daa797ed6e38ed64bf6a1f010000000000000000838161196357611962612784565b5b0492506040810190505b6d04ee2d6d415b85acef810000000083106119aa576d04ee2d6d415b85acef810000000083816119a05761199f612784565b5b0492506020810190505b662386f26fc1000083106119d957662386f26fc1000083816119cf576119ce612784565b5b0492506010810190505b6305f5e1008310611a02576305f5e10083816119f8576119f7612784565b5b0492506008810190505b6127108310611a27576127108381611a1d57611a1c612784565b5b0492506004810190505b60648310611a4a5760648381611a4057611a3f612784565b5b0492506002810190505b600a8310611a59576001810190505b80915050919050565b60008073ffffffffffffffffffffffffffffffffffffffff168373ffffffffffffffffffffffffffffffffffffffff1614158015611b1a57508273ffffffffffffffffffffffffffffffffffffffff168473ffffffffffffffffffffffffffffffffffffffff161480611adb5750611ada8484610ae2565b5b80611b1957508273ffffffffffffffffffffffffffffffffffffffff16611b0183610d8a565b73ffffffffffffffffffffffffffffffffffffffff16145b5b90509392505050565b600073ffffffffffffffffffffffffffffffffffffffff168273ffffffffffffffffffffffffffffffffffffffff1603611b955760006040517f64a0ae92000000000000000000000000000000000000000000000000000000008152600401611b8c9190611dde565b60405180910390fd5b6000611ba383836000610de1565b9050600073ffffffffffffffffffffffffffffffffffffffff168173ffffffffffffffffffffffffffffffffffffffff1614611c175760006040517f73c6ac6e000000000000000000000000000000000000000000000000000000008152600401611c0e9190611dde565b60405180910390fd5b505050565b6000604051905090565b600080fd5b600080fd5b60007fffffffff0000000000000000000000000000000000000000000000000000000082169050919050565b611c6581611c30565b8114611c7057600080fd5b50565b600081359050611c8281611c5c565b92915050565b600060208284031215611c9e57611c9d611c26565b5b6000611cac84828501611c73565b91505092915050565b60008115159050919050565b611cca81611cb5565b82525050565b6000602082019050611ce56000830184611cc1565b92915050565b600081519050919050565b600082825260208201905092915050565b60005b83811015611d25578082015181840152602081019050611d0a565b60008484015250505050565b6000601f19601f8301169050919050565b6000611d4d82611ceb565b611d578185611cf6565b9350611d67818560208601611d07565b611d7081611d31565b840191505092915050565b60006020820190508181036000830152611d958184611d42565b905092915050565b600073ffffffffffffffffffffffffffffffffffffffff82169050919050565b6000611dc882611d9d565b9050919050565b611dd881611dbd565b82525050565b6000602082019050611df36000830184611dcf565b92915050565b6000819050919050565b611e0c81611df9565b8114611e1757600080fd5b50565b600081359050611e2981611e03565b92915050565b600060208284031215611e4557611e44611c26565b5b6000611e5384828501611e1a565b91505092915050565b611e6581611dbd565b8114611e7057600080fd5b50565b600081359050611e8281611e5c565b92915050565b60008060408385031215611e9f57611e9e611c26565b5b6000611ead85828601611e73565b9250506020611ebe85828601611e1a565b9150509250929050565b600080600060608486031215611ee157611ee0611c26565b5b6000611eef86828701611e73565b9350506020611f0086828701611e73565b9250506040611f1186828701611e1a565b9150509250925092565b600080fd5b600080fd5b7f4e487b7100000000000000000000000000000000000000000000000000000000600052604160045260246000fd5b611f5d82611d31565b810181811067ffffffffffffffff82111715611f7c57611f7b611f25565b5b80604052505050565b6000611f8f611c1c565b9050611f9b8282611f54565b919050565b600067ffffffffffffffff821115611fbb57611fba611f25565b5b611fc482611d31565b9050602081019050919050565b82818337600083830152505050565b6000611ff3611fee84611fa0565b611f85565b90508281526020810184848401111561200f5761200e611f20565b5b61201a848285611fd1565b509392505050565b600082601f83011261203757612036611f1b565b5b8135612047848260208601611fe0565b91505092915050565b60006020828403121561206657612065611c26565b5b600082013567ffffffffffffffff81111561208457612083611c2b565b5b61209084828501612022565b91505092915050565b6000602082840312156120af576120ae611c26565b5b60006120bd84828501611e73565b91505092915050565b6120cf81611df9565b82525050565b60006020820190506120ea60008301846120c6565b92915050565b6120f981611cb5565b811461210457600080fd5b50565b600081359050612116816120f0565b92915050565b6000806040838503121561213357612132611c26565b5b600061214185828601611e73565b925050602061215285828601612107565b9150509250929050565b600067ffffffffffffffff82111561217757612176611f25565b5b61218082611d31565b9050602081019050919050565b60006121a061219b8461215c565b611f85565b9050828152602081018484840111156121bc576121bb611f20565b5b6121c7848285611fd1565b509392505050565b600082601f8301126121e4576121e3611f1b565b5b81356121f484826020860161218d565b91505092915050565b6000806000806080858703121561221757612216611c26565b5b600061222587828801611e73565b945050602061223687828801611e73565b935050604061224787828801611e1a565b925050606085013567ffffffffffffffff81111561226857612267611c2b565b5b612274878288016121cf565b91505092959194509250565b6000806040838503121561229757612296611c26565b5b60006122a585828601611e73565b92505060206122b685828601611e73565b9150509250929050565b7f4e487b7100000000000000000000000000000000000000000000000000000000600052602260045260246000fd5b6000600282049050600182168061230757607f821691505b60208210810361231a576123196122c0565b5b50919050565b60006060820190506123356000830186611dcf565b61234260208301856120c6565b61234f6040830184611dcf565b949350505050565b7f4e6f7420746865206d696e746572000000000000000000000000000000000000600082015250565b600061238d600e83611cf6565b915061239882612357565b602082019050919050565b600060208201905081810360008301526123bc81612380565b9050919050565b60008190508160005260206000209050919050565b60006020601f8301049050919050565b600082821b905092915050565b6000600883026124257fffffffffffffffffffffffffffffffffffffffffffffffffffffffffffffffff826123e8565b61242f86836123e8565b95508019841693508086168417925050509392505050565b6000819050919050565b600061246c61246761246284611df9565b612447565b611df9565b9050919050565b6000819050919050565b61248683612451565b61249a61249282612473565b8484546123f5565b825550505050565b600090565b6124af6124a2565b6124ba81848461247d565b505050565b5b818110156124de576124d36000826124a7565b6001810190506124c0565b5050565b601f821115612523576124f4816123c3565b6124fd846123d8565b8101602085101561250c578190505b612520612518856123d8565b8301826124bf565b50505b505050565b600082821c905092915050565b600061254660001984600802612528565b1980831691505092915050565b600061255f8383612535565b9150826002028217905092915050565b61257882611ceb565b67ffffffffffffffff81111561259157612590611f25565b5b61259b82546122ef565b6125a68282856124e2565b600060209050601f8311600181146125d957600084156125c7578287015190505b6125d18582612553565b865550612639565b601f1984166125e7866123c3565b60005b8281101561260f578489015182556001820191506020850194506020810190506125ea565b8683101561262c5784890151612628601f891682612535565b8355505b6001600288020188555050505b505050505050565b600081905092915050565b600061265782611ceb565b6126618185612641565b9350612671818560208601611d07565b80840191505092915050565b6000612689828561264c565b9150612695828461264c565b91508190509392505050565b600081519050919050565b600082825260208201905092915050565b60006126c8826126a1565b6126d281856126ac565b93506126e2818560208601611d07565b6126eb81611d31565b840191505092915050565b600060808201905061270b6000830187611dcf565b6127186020830186611dcf565b61272560408301856120c6565b818103606083015261273781846126bd565b905095945050505050565b60008151905061275181611c5c565b92915050565b60006020828403121561276d5761276c611c26565b5b600061277b84828501612742565b91505092915050565b7f4e487b7100000000000000000000000000000000000000000000000000000000600052601260045260246000fd5b60006040820190506127c86000830185611dcf565b6127d560208301846120c6565b939250505056fea2646970667358221220d5daed8ba5592b14056c952bbc2c3c78108e675298a40aa672c6f54fccba6e0064736f6c63430008140033",
  "linkReferences": {},
  "deployedLinkReferences": {}
}