{
  "_format": "hh-sol-artifact-1",
  "contractName": "DadJokesNFT",
  "sourceName": "src/DadJokesNFT.sol",
  "abi": [
    {
      "inputs": [
        {
          "internalType": "address",
          "name": "_initialOwner",
          "type": "address"
        },
        {
          "internalType": "string",
          "name": "baseTokenURI_",
          "type": "string"
        }
      ],
      "stateMutability": "nonpayable",
      "type": "constructor"
    },
    {
      "inputs": [
        {
          "internalType": "address",
          "name": "sender",
          "type": "address"
        },
        {
          "internalType": "uint256",
          "name": "tokenId",
          "type": "uint256"
        },
        {
          "internalType": "address",
          "name": "owner",
          "type": "address"
        }
      ],
      "name": "ERC721IncorrectOwner",
      "type": "error"
    },
    {
      "inputs": [
        {
          "internalType": "address",
          "name": "operator",
          "type": "address"
        },
        {
          "internalType": "uint256",
          "name": "tokenId",
          "type": "uint256"
        }
      ],
      "name": "ERC721InsufficientApproval",
      "type": "error"
    },
    {
      "inputs": [
        {
          "internalType": "address",
          "name": "approver",
          "type": "address"
        }
      ],
      "name": "ERC721InvalidApprover",
      "type": "error"
    },
    {
      "inputs": [
        {
          "internalType": "address",
          "name": "operator",
          "type": "address"
        }
      ],
      "name": "ERC721InvalidOperator",
      "type": "error"
    },
    {
      "inputs": [
        {
          "internalType": "address",
          "name": "owner",
          "type": "address"
        }
      ],
      "name": "ERC721InvalidOwner",
      "type": "error"
    },
    {
      "inputs": [
        {
          "internalType": "address",
          "name": "receiver",
          "type": "address"
        }
      ],
      "name": "ERC721InvalidReceiver",
      "type": "error"
    },
    {
      "inputs": [
        {
          "internalType": "address",
          "name": "sender",
          "type": "address"
        }
      ],
      "name": "ERC721InvalidSender",
      "type": "error"
    },
    {
      "inputs": [
        {
          "internalType": "uint256",
          "name": "tokenId",
          "type": "uint256"
        }
      ],
      "name": "ERC721NonexistentToken",
      "type": "error"
    },
    {
      "inputs": [
        {
          "internalType": "address",
          "name": "owner",
          "type": "address"
        }
      ],
      "name": "OwnableInvalidOwner",
      "type": "error"
    },
    {
      "inputs": [
        {
          "internalType": "address",
          "name": "account",
          "type": "address"
        }
      ],
      "name": "OwnableUnauthorizedAccount",
      "type": "error"
    },
    {
      "anonymous": false,
      "inputs": [
        {
          "indexed": true,
          "internalType": "address",
          "name": "owner",
          "type": "address"
        },
        {
          "indexed": true,
          "internalType": "address",
          "name": "approved",
          "type": "address"
        },
        {
          "indexed": true,
          "internalType": "uint256",
          "name": "tokenId",
          "type": "uint256"
        }
      ],
      "name": "Approval",
      "type": "event"
    },
    {
      "anonymous": false,
      "inputs": [
        {
          "indexed": true,
          "internalType": "address",
          "name": "owner",
          "type": "address"
        },
        {
          "indexed": true,
          "internalType": "address",
          "name": "operator",
          "type": "address"
        },
        {
          "indexed": false,
          "internalType": "bool",
          "name": "approved",
          "type": "bool"
        }
      ],
      "name": "ApprovalForAll",
      "type": "event"
    },
    {
      "anonymous": false,
      "inputs": [
        {
          "indexed": true,
          "internalType": "address",
          "name": "previousOwner",
          "type": "address"
        },
        {
          "indexed": true,
          "internalType": "address",
          "name": "newOwner",
          "type": "address"
        }
      ],
      "name": "OwnershipTransferred",
      "type": "event"
    },
    {
      "anonymous": false,
      "inputs": [
        {
          "indexed": true,
          "internalType": "address",
          "name": "from",
          "type": "address"
        },
        {
          "indexed": true,
          "internalType": "address",
          "name": "to",
          "type": "address"
        },
        {
          "indexed": true,
          "internalType": "uint256",
          "name": "tokenId",
          "type": "uint256"
        }
      ],
      "name": "Transfer",
      "type": "event"
    },
    {
      "inputs": [
        {
          "internalType": "address",
          "name": "to",
          "type": "address"
        },
        {
          "internalType": "uint256",
          "name": "tokenId",
          "type": "uint256"
        }
      ],
      "name": "approve",
      "outputs": [],
      "stateMutability": "nonpayable",
      "type": "function"
    },
    {
      "inputs": [
        {
          "internalType": "address",
          "name": "owner",
          "type": "address"
        }
      ],
      "name": "balanceOf",
      "outputs": [
        {
          "internalType": "uint256",
          "name": "",
          "type": "uint256"
        }
      ],
      "stateMutability": "view",
      "type": "function"
    },
    {
      "inputs": [
        {
          "internalType": "uint256",
          "name": "tokenId",
          "type": "uint256"
        }
      ],
      "name": "getApproved",
      "outputs": [
        {
          "internalType": "address",
          "name": "",
          "type": "address"
        }
      ],
      "stateMutability": "view",
      "type": "function"
    },
    {
      "inputs": [
        {
          "internalType": "address",
          "name": "owner",
          "type": "address"
        },
        {
          "internalType": "address",
          "name": "operator",
          "type": "address"
        }
      ],
      "name": "isApprovedForAll",
      "outputs": [
        {
          "internalType": "bool",
          "name": "",
          "type": "bool"
        }
      ],
      "stateMutability": "view",
      "type": "function"
    },
    {
      "inputs": [
        {
          "internalType": "address",
          "name": "_recipient",
          "type": "address"
        },
        {
          "internalType": "uint256",
          "name": "_tokenId",
          "type": "uint256"
        }
      ],
      "name": "mint",
      "outputs": [],
      "stateMutability": "nonpayable",
      "type": "function"
    },
    {
      "inputs": [],
      "name": "minter",
      "outputs": [
        {
          "internalType": "address",
          "name": "",
          "type": "address"
        }
      ],
      "stateMutability": "view",
      "type": "function"
    },
    {
      "inputs": [],
      "name": "name",
      "outputs": [
        {
          "internalType": "string",
          "name": "",
          "type": "string"
        }
      ],
      "stateMutability": "view",
      "type": "function"
    },
    {
      "inputs": [],
      "name": "owner",
      "outputs": [
        {
          "internalType": "address",
          "name": "",
          "type": "address"
        }
      ],
      "stateMutability": "view",
      "type": "function"
    },
    {
      "inputs": [
        {
          "internalType": "uint256",
          "name": "tokenId",
          "type": "uint256"
        }
      ],
      "name": "ownerOf",
      "outputs": [
        {
          "internalType": "address",
          "name": "",
          "type": "address"
        }
      ],
      "stateMutability": "view",
      "type": "function"
    },
    {
      "inputs": [],
      "name": "renounceOwnership",
      "outputs": [],
      "stateMutability": "nonpayable",
      "type": "function"
    },
    {
      "inputs": [
        {
          "internalType": "address",
          "name": "from",
          "type": "address"
        },
        {
          "internalType": "address",
          "name": "to",
          "type": "address"
        },
        {
          "internalType": "uint256",
          "name": "tokenId",
          "type": "uint256"
        }
      ],
      "name": "safeTransferFrom",
      "outputs": [],
      "stateMutability": "nonpayable",
      "type": "function"
    },
    {
      "inputs": [
        {
          "internalType": "address",
          "name": "from",
          "type": "address"
        },
        {
          "internalType": "address",
          "name": "to",
          "type": "address"
        },
        {
          "internalType": "uint256",
          "name": "tokenId",
          "type": "uint256"
        },
        {
          "internalType": "bytes",
          "name": "data",
          "type": "bytes"
        }
      ],
      "name": "safeTransferFrom",
      "outputs": [],
      "stateMutability": "nonpayable",
      "type": "function"
    },
    {
      "inputs": [
        {
          "internalType": "address",
          "name": "operator",
          "type": "address"
        },
        {
          "internalType": "bool",
          "name": "approved",
          "type": "bool"
        }
      ],
      "name": "setApprovalForAll",
      "outputs": [],
      "stateMutability": "nonpayable",
      "type": "function"
    },
    {
      "inputs": [
        {
          "internalType": "string",
          "name": "baseTokenURI_",
          "type": "string"
        }
      ],
      "name": "setBaseURI",
      "outputs": [],
      "stateMutability": "nonpayable",
      "type": "function"
    },
    {
      "inputs": [
        {
          "internalType": "address",
          "name": "_minter",
          "type": "address"
        }
      ],
      "name": "setMinter",
      "outputs": [],
      "stateMutability": "nonpayable",
      "type": "function"
    },
    {
      "inputs": [
        {
          "internalType": "bytes4",
          "name": "interfaceId",
          "type": "bytes4"
        }
      ],
      "name": "supportsInterface",
      "outputs": [
        {
          "internalType": "bool",
          "name": "",
          "type": "bool"
        }
      ],
      "stateMutability": "view",
      "type": "function"
    },
    {
      "inputs": [],
      "name": "symbol",
      "outputs": [
        {
          "internalType": "string",
          "name": "",
          "type": "string"
        }
      ],
      "stateMutability": "view",
      "type": "function"
    },
    {
      "inputs": [
        {
          "internalType": "uint256",
          "name": "tokenId",
          "type": "uint256"
        }
      ],
      "name": "tokenURI",
      "outputs": [
        {
          "internalType": "string",
          "name": "",
          "type": "string"
        }
      ],
      "stateMutability": "view",
      "type": "function"
    },
    {
      "inputs": [
        {
          "internalType": "address",
          "name": "from",
          "type": "address"
        },
        {
          "internalType": "address",
          "name": "to",
          "type": "address"
        },
        {
          "internalType": "uint256",
          "name": "tokenId",
          "type": "uint256"
        }
      ],
      "name": "transferFrom",
      "outputs": [],
      "stateMutability": "nonpayable",
      "type": "function"
    },
    {
      "inputs": [
        {
          "internalType": "address",
          "name": "newOwner",
          "type": "address"
        }
      ],
      "name": "transferOwnership",
      "outputs": [],
      "stateMutability": "nonpayable",
      "type": "function"
    }
  ],
  "bytecode": "0x60806040523480156200001157600080fd5b5060405162002e5638038062002e56833981810160405281019062000037919062000429565b816040518060400160405280601a81526020017f4461644a6f6b657320416368696576656d656e742042616467650000000000008152506040518060400160405280600481526020017f444a4142000000000000000000000000000000000000000000000000000000008152508160009081620000b59190620006da565b508060019081620000c79190620006da565b505050600073ffffffffffffffffffffffffffffffffffffffff168173ffffffffffffffffffffffffffffffffffffffff16036200013f5760006040517f1e4fbdf7000000000000000000000000000000000000000000000000000000008152600401620001369190620007d2565b60405180910390fd5b62000150816200016b60201b60201c565b508060089081620001629190620006da565b505050620007ef565b6000600660009054906101000a900473ffffffffffffffffffffffffffffffffffffffff16905081600660006101000a81548173ffffffffffffffffffffffffffffffffffffffff021916908373ffffffffffffffffffffffffffffffffffffffff1602179055508173ffffffffffffffffffffffffffffffffffffffff168173ffffffffffffffffffffffffffffffffffffffff167f8be0079c531659141344cd1fd0a4f28419497f9722a3daafe3b4186f6b6457e060405160405180910390a35050565b6000604051905090565b600080fd5b600080fd5b600073ffffffffffffffffffffffffffffffffffffffff82169050919050565b6000620002728262000245565b9050919050565b620002848162000265565b81146200029057600080fd5b50565b600081519050620002a48162000279565b92915050565b600080fd5b600080fd5b6000601f19601f8301169050919050565b7f4e487b7100000000000000000000000000000000000000000000000000000000600052604160045260246000fd5b620002ff82620002b4565b810181811067ffffffffffffffff82111715620003215762000320620002c5565b5b80604052505050565b60006200033662000231565b9050620003448282620002f4565b919050565b600067ffffffffffffffff821115620003675762000366620002c5565b5b6200037282620002b4565b9050602081019050919050565b60005b838110156200039f57808201518184015260208101905062000382565b60008484015250505050565b6000620003c2620003bc8462000349565b6200032a565b905082815260208101848484011115620003e157620003e0620002af565b5b620003ee8482856200037f565b509392505050565b600082601f8301126200040e576200040d620002aa565b5b815162000420848260208601620003ab565b91505092915050565b600080604083850312156200044357620004426200023b565b5b6000620004538582860162000293565b925050602083015167ffffffffffffffff81111562000477576200047662000240565b5b6200048585828601620003f6565b9150509250929050565b600081519050919050565b7f4e487b7100000000000000000000000000000000000000000000000000000000600052602260045260246000fd5b60006002820490506001821680620004e257607f821691505b602082108103620004f857620004f76200049a565b5b50919050565b60008190508160005260206000209050919050565b60006020601f8301049050919050565b600082821b905092915050565b600060088302620005627fffffffffffffffffffffffffffffffffffffffffffffffffffffffffffffffff8262000523565b6200056e868362000523565b95508019841693508086168417925050509392505050565b6000819050919050565b6000819050919050565b6000620005bb620005b5620005af8462000586565b62000590565b62000586565b9050919050565b6000819050919050565b620005d7836200059a565b620005ef620005e682620005c2565b84845462000530565b825550505050565b600090565b62000606620005f7565b62000613818484620005cc565b505050565b5b818110156200063b576200062f600082620005fc565b60018101905062000619565b5050565b601f8211156200068a576200065481620004fe565b6200065f8462000513565b810160208510156200066f578190505b620006876200067e8562000513565b83018262000618565b50505b505050565b600082821c905092915050565b6000620006af600019846008026200068f565b1980831691505092915050565b6000620006ca83836200069c565b9150826002028217905092915050565b620006e5826200048f565b67ffffffffffffffff811115620007015762000700620002c5565b5b6200070d8254620004c9565b6200071a8282856200063f565b600060209050601f8311600181146200075257600084156200073d578287015190505b620007498582620006bc565b865550620007b9565b601f1984166200076286620004fe565b60005b828110156200078c5784890151825560018201915060208501945060208101905062000765565b86831015620007ac5784890151620007a8601f8916826200069c565b8355505b6001600288020188555050505b505050505050565b620007cc8162000265565b82525050565b6000602082019050620007e96000830184620007c1565b92915050565b61265780620007ff6000396000f3fe608060405234801561001057600080fd5b506004361061012c5760003560e01c806370a08231116100ad578063b88d4fde11610071578063b88d4fde1461031b578063c87b56dd14610337578063e985e9c514610367578063f2fde38b14610397578063fca3b5aa146103b35761012c565b806370a0823114610289578063715018a6146102b95780638da5cb5b146102c357806395d89b41146102e1578063a22cb465146102ff5761012c565b806323b872dd116100f457806323b872dd146101e957806340c10f191461020557806342842e0e1461022157806355f804b31461023d5780636352211e146102595761012c565b806301ffc9a71461013157806306fdde0314610161578063075461721461017f578063081812fc1461019d578063095ea7b3146101cd575b600080fd5b61014b60048036038101906101469190611acd565b6103cf565b6040516101589190611b15565b60405180910390f35b6101696104b1565b6040516101769190611bc0565b60405180910390f35b610187610543565b6040516101949190611c23565b60405180910390f35b6101b760048036038101906101b29190611c74565b610569565b6040516101c49190611c23565b60405180910390f35b6101e760048036038101906101e29190611ccd565b610585565b005b61020360048036038101906101fe9190611d0d565b61059b565b005b61021f600480360381019061021a9190611ccd565b61069d565b005b61023b60048036038101906102369190611d0d565b61073b565b005b61025760048036038101906102529190611e95565b61075b565b005b610273600480360381019061026e9190611c74565b610776565b6040516102809190611c23565b60405180910390f35b6102a3600480360381019061029e9190611ede565b610788565b6040516102b09190611f1a565b60405180910390f35b6102c1610842565b005b6102cb610856565b6040516102d89190611c23565b60405180910390f35b6102e9610880565b6040516102f69190611bc0565b60405180910390f35b61031960048036038101906103149190611f61565b610912565b005b61033560048036038101906103309190612042565b610928565b005b610351600480360381019061034c9190611c74565b61094d565b60405161035e9190611bc0565b60405180910390f35b610381600480360381019061037c91906120c5565b6109b6565b60405161038e9190611b15565b60405180910390f35b6103b160048036038101906103ac9190611ede565b610a4a565b005b6103cd60048036038101906103c89190611ede565b610ad0565b005b60007f80ac58cd000000000000000000000000000000000000000000000000000000007bffffffffffffffffffffffffffffffffffffffffffffffffffffffff1916827bffffffffffffffffffffffffffffffffffffffffffffffffffffffff1916148061049a57507f5b5e139f000000000000000000000000000000000000000000000000000000007bffffffffffffffffffffffffffffffffffffffffffffffffffffffff1916827bffffffffffffffffffffffffffffffffffffffffffffffffffffffff1916145b806104aa57506104a982610b1c565b5b9050919050565b6060600080546104c090612134565b80601f01602080910402602001604051908101604052809291908181526020018280546104ec90612134565b80156105395780601f1061050e57610100808354040283529160200191610539565b820191906000526020600020905b81548152906001019060200180831161051c57829003601f168201915b5050505050905090565b600760009054906101000a900473ffffffffffffffffffffffffffffffffffffffff1681565b600061057482610b86565b5061057e82610c0e565b9050919050565b6105978282610592610c4b565b610c53565b5050565b600073ffffffffffffffffffffffffffffffffffffffff168273ffffffffffffffffffffffffffffffffffffffff160361060d5760006040517f64a0ae920000000000000000000000000000000000000000000000000000000081526004016106049190611c23565b60405180910390fd5b6000610621838361061c610c4b565b610c65565b90508373ffffffffffffffffffffffffffffffffffffffff168173ffffffffffffffffffffffffffffffffffffffff1614610697578382826040517f64283d7b00000000000000000000000000000000000000000000000000000000815260040161068e93929190612165565b60405180910390fd5b50505050565b600760009054906101000a900473ffffffffffffffffffffffffffffffffffffffff1673ffffffffffffffffffffffffffffffffffffffff163373ffffffffffffffffffffffffffffffffffffffff161461072d576040517f08c379a0000000000000000000000000000000000000000000000000000000008152600401610724906121e8565b60405180910390fd5b6107378282610e7f565b5050565b61075683838360405180602001604052806000815250610928565b505050565b610763610e9d565b806008908161077291906123b4565b5050565b600061078182610b86565b9050919050565b60008073ffffffffffffffffffffffffffffffffffffffff168273ffffffffffffffffffffffffffffffffffffffff16036107fb5760006040517f89c62b640000000000000000000000000000000000000000000000000000000081526004016107f29190611c23565b60405180910390fd5b600360008373ffffffffffffffffffffffffffffffffffffffff1673ffffffffffffffffffffffffffffffffffffffff168152602001908152602001600020549050919050565b61084a610e9d565b6108546000610f24565b565b6000600660009054906101000a900473ffffffffffffffffffffffffffffffffffffffff16905090565b60606001805461088f90612134565b80601f01602080910402602001604051908101604052809291908181526020018280546108bb90612134565b80156109085780601f106108dd57610100808354040283529160200191610908565b820191906000526020600020905b8154815290600101906020018083116108eb57829003601f168201915b5050505050905090565b61092461091d610c4b565b8383610fea565b5050565b61093384848461059b565b61094761093e610c4b565b85858585611159565b50505050565b606061095882610b86565b50600061096361130a565b9050600081511161098357604051806020016040528060008152506109ae565b8061098d8461139c565b60405160200161099e9291906124c2565b6040516020818303038152906040525b915050919050565b6000600560008473ffffffffffffffffffffffffffffffffffffffff1673ffffffffffffffffffffffffffffffffffffffff16815260200190815260200160002060008373ffffffffffffffffffffffffffffffffffffffff1673ffffffffffffffffffffffffffffffffffffffff16815260200190815260200160002060009054906101000a900460ff16905092915050565b610a52610e9d565b600073ffffffffffffffffffffffffffffffffffffffff168173ffffffffffffffffffffffffffffffffffffffff1603610ac45760006040517f1e4fbdf7000000000000000000000000000000000000000000000000000000008152600401610abb9190611c23565b60405180910390fd5b610acd81610f24565b50565b610ad8610e9d565b80600760006101000a81548173ffffffffffffffffffffffffffffffffffffffff021916908373ffffffffffffffffffffffffffffffffffffffff16021790555050565b60007f01ffc9a7000000000000000000000000000000000000000000000000000000007bffffffffffffffffffffffffffffffffffffffffffffffffffffffff1916827bffffffffffffffffffffffffffffffffffffffffffffffffffffffff1916149050919050565b600080610b928361146a565b9050600073ffffffffffffffffffffffffffffffffffffffff168173ffffffffffffffffffffffffffffffffffffffff1603610c0557826040517f7e273289000000000000000000000000000000000000000000000000000000008152600401610bfc9190611f1a565b60405180910390fd5b80915050919050565b60006004600083815260200190815260200160002060009054906101000a900473ffffffffffffffffffffffffffffffffffffffff169050919050565b600033905090565b610c6083838360016114a7565b505050565b600080610c718461146a565b9050600073ffffffffffffffffffffffffffffffffffffffff168373ffffffffffffffffffffffffffffffffffffffff1614610cb357610cb281848661166c565b5b600073ffffffffffffffffffffffffffffffffffffffff168173ffffffffffffffffffffffffffffffffffffffff1614610d4457610cf56000856000806114a7565b6001600360008373ffffffffffffffffffffffffffffffffffffffff1673ffffffffffffffffffffffffffffffffffffffff168152602001908152602001600020600082825403925050819055505b600073ffffffffffffffffffffffffffffffffffffffff168573ffffffffffffffffffffffffffffffffffffffff1614610dc7576001600360008773ffffffffffffffffffffffffffffffffffffffff1673ffffffffffffffffffffffffffffffffffffffff168152602001908152602001600020600082825401925050819055505b846002600086815260200190815260200160002060006101000a81548173ffffffffffffffffffffffffffffffffffffffff021916908373ffffffffffffffffffffffffffffffffffffffff160217905550838573ffffffffffffffffffffffffffffffffffffffff168273ffffffffffffffffffffffffffffffffffffffff167fddf252ad1be2c89b69c2b068fc378daa952ba7f163c4a11628f55a4df523b3ef60405160405180910390a4809150509392505050565b610e99828260405180602001604052806000815250611730565b5050565b610ea5610c4b565b73ffffffffffffffffffffffffffffffffffffffff16610ec3610856565b73ffffffffffffffffffffffffffffffffffffffff1614610f2257610ee6610c4b565b6040517f118cdaa7000000000000000000000000000000000000000000000000000000008152600401610f199190611c23565b60405180910390fd5b565b6000600660009054906101000a900473ffffffffffffffffffffffffffffffffffffffff16905081600660006101000a81548173ffffffffffffffffffffffffffffffffffffffff021916908373ffffffffffffffffffffffffffffffffffffffff1602179055508173ffffffffffffffffffffffffffffffffffffffff168173ffffffffffffffffffffffffffffffffffffffff167f8be0079c531659141344cd1fd0a4f28419497f9722a3daafe3b4186f6b6457e060405160405180910390a35050565b600073ffffffffffffffffffffffffffffffffffffffff168273ffffffffffffffffffffffffffffffffffffffff160361105b57816040517f5b08ba180000000000000000000000000000000000000000000000000000000081526004016110529190611c23565b60405180910390fd5b80600560008573ffffffffffffffffffffffffffffffffffffffff1673ffffffffffffffffffffffffffffffffffffffff16815260200190815260200160002060008473ffffffffffffffffffffffffffffffffffffffff1673ffffffffffffffffffffffffffffffffffffffff16815260200190815260200160002060006101000a81548160ff0219169083151502179055508173ffffffffffffffffffffffffffffffffffffffff168373ffffffffffffffffffffffffffffffffffffffff167f17307eab39ab6107e8899845ad3d59bd9653f200f220920489ca2b5937696c318360405161114c9190611b15565b60405180910390a3505050565b60008373ffffffffffffffffffffffffffffffffffffffff163b1115611303578273ffffffffffffffffffffffffffffffffffffffff1663150b7a02868685856040518563ffffffff1660e01b81526004016111b8949392919061253b565b6020604051808303816000875af19250505080156111f457506040513d601f19601f820116820180604052508101906111f1919061259c565b60015b611278573d8060008114611224576040519150601f19603f3d011682016040523d82523d6000602084013e611229565b606091505b50600081510361127057836040517f64a0ae920000000000000000000000000000000000000000000000000000000081526004016112679190611c23565b60405180910390fd5b805181602001fd5b63150b7a0260e01b7bffffffffffffffffffffffffffffffffffffffffffffffffffffffff1916817bffffffffffffffffffffffffffffffffffffffffffffffffffffffff19161461130157836040517f64a0ae920000000000000000000000000000000000000000000000000000000081526004016112f89190611c23565b60405180910390fd5b505b5050505050565b60606008805461131990612134565b80601f016020809104026020016040519081016040528092919081815260200182805461134590612134565b80156113925780601f1061136757610100808354040283529160200191611392565b820191906000526020600020905b81548152906001019060200180831161137557829003601f168201915b5050505050905090565b6060600060016113ab84611754565b01905060008167ffffffffffffffff8111156113ca576113c9611d6a565b5b6040519080825280601f01601f1916602001820160405280156113fc5781602001600182028036833780820191505090505b509050600082602001820190505b60011561145f578080600190039150507f3031323334353637383961626364656600000000000000000000000000000000600a86061a8153600a8581611453576114526125c9565b5b0494506000850361140a575b819350505050919050565b60006002600083815260200190815260200160002060009054906101000a900473ffffffffffffffffffffffffffffffffffffffff169050919050565b80806114e05750600073ffffffffffffffffffffffffffffffffffffffff168273ffffffffffffffffffffffffffffffffffffffff1614155b156116145760006114f084610b86565b9050600073ffffffffffffffffffffffffffffffffffffffff168373ffffffffffffffffffffffffffffffffffffffff161415801561155b57508273ffffffffffffffffffffffffffffffffffffffff168173ffffffffffffffffffffffffffffffffffffffff1614155b801561156e575061156c81846109b6565b155b156115b057826040517fa9fbf51f0000000000000000000000000000000000000000000000000000000081526004016115a79190611c23565b60405180910390fd5b811561161257838573ffffffffffffffffffffffffffffffffffffffff168273ffffffffffffffffffffffffffffffffffffffff167f8c5be1e5ebec7d5bd14f71427d1e84f3dd0314c0f7b2291e5b200ac8c7c3b92560405160405180910390a45b505b836004600085815260200190815260200160002060006101000a81548173ffffffffffffffffffffffffffffffffffffffff021916908373ffffffffffffffffffffffffffffffffffffffff16021790555050505050565b6116778383836118a7565b61172b57600073ffffffffffffffffffffffffffffffffffffffff168373ffffffffffffffffffffffffffffffffffffffff16036116ec57806040517f7e2732890000000000000000000000000000000000000000000000000000000081526004016116e39190611f1a565b60405180910390fd5b81816040517f177e802f0000000000000000000000000000000000000000000000000000000081526004016117229291906125f8565b60405180910390fd5b505050565b61173a8383611968565b61174f611745610c4b565b6000858585611159565b505050565b600080600090507a184f03e93ff9f4daa797ed6e38ed64bf6a1f01000000000000000083106117b2577a184f03e93ff9f4daa797ed6e38ed64bf6a1f01000000000000000083816117a8576117a76125c9565b5b0492506040810190505b6d04ee2d6d415b85acef810000000083106117ef576d04ee2d6d415b85acef810000000083816117e5576117e46125c9565b5b0492506020810190505b662386f26fc10000831061181e57662386f26fc100008381611814576118136125c9565b5b0492506010810190505b6305f5e1008310611847576305f5e100838161183d5761183c6125c9565b5b0492506008810190505b612710831061186c576127108381611862576118616125c9565b5b0492506004810190505b6064831061188f5760648381611885576118846125c9565b5b0492506002810190505b600a831061189e576001810190505b80915050919050565b60008073ffffffffffffffffffffffffffffffffffffffff168373ffffffffffffffffffffffffffffffffffffffff161415801561195f57508273ffffffffffffffffffffffffffffffffffffffff168473ffffffffffffffffffffffffffffffffffffffff161480611920575061191f84846109b6565b5b8061195e57508273ffffffffffffffffffffffffffffffffffffffff1661194683610c0e565b73ffffffffffffffffffffffffffffffffffffffff16145b5b90509392505050565b600073ffffffffffffffffffffffffffffffffffffffff168273ffffffffffffffffffffffffffffffffffffffff16036119da5760006040517f64a0ae920000000000000000000000000000000000000000000000000000000081526004016119d19190611c23565b60405180910390fd5b60006119e883836000610c65565b9050600073ffffffffffffffffffffffffffffffffffffffff168173ffffffffffffffffffffffffffffffffffffffff1614611a5c5760006040517f73c6ac6e000000000000000000000000000000000000000000000000000000008152600401611a539190611c23565b60405180910390fd5b505050565b6000604051905090565b600080fd5b600080fd5b60007fffffffff0000000000000000000000000000000000000000000000000000000082169050919050565b611aaa81611a75565b8114611ab557600080fd5b50565b600081359050611ac781611aa1565b92915050565b600060208284031215611ae357611ae2611a6b565b5b6000611af184828501611ab8565b91505092915050565b60008115159050919050565b611b0f81611afa565b82525050565b6000602082019050611b2a6000830184611b06565b92915050565b600081519050919050565b600082825260208201905092915050565b60005b83811015611b6a578082015181840152602081019050611b4f565b60008484015250505050565b6000601f19601f8301169050919050565b6000611b9282611b30565b611b9c8185611b3b565b9350611bac818560208601611b4c565b611bb581611b76565b840191505092915050565b60006020820190508181036000830152611bda8184611b87565b905092915050565b600073ffffffffffffffffffffffffffffffffffffffff82169050919050565b6000611c0d82611be2565b9050919050565b611c1d81611c02565b82525050565b6000602082019050611c386000830184611c14565b92915050565b6000819050919050565b611c5181611c3e565b8114611c5c57600080fd5b50565b600081359050611c6e81611c48565b92915050565b600060208284031215611c8a57611c89611a6b565b5b6000611c9884828501611c5f565b91505092915050565b611caa81611c02565b8114611cb557600080fd5b50565b600081359050611cc781611ca1565b92915050565b60008060408385031215611ce457611ce3611a6b565b5b6000611cf285828601611cb8565b9250506020611d0385828601611c5f565b9150509250929050565b600080600060608486031215611d2657611d25611a6b565b5b6000611d3486828701611cb8565b9350506020611d4586828701611cb8565b9250506040611d5686828701611c5f565b9150509250925092565b600080fd5b600080fd5b7f4e487b7100000000000000000000000000000000000000000000000000000000600052604160045260246000fd5b611da282611b76565b810181811067ffffffffffffffff82111715611dc157611dc0611d6a565b5b80604052505050565b6000611dd4611a61565b9050611de08282611d99565b919050565b600067ffffffffffffffff821115611e0057611dff611d6a565b5b611e0982611b76565b9050602081019050919050565b82818337600083830152505050565b6000611e38611e3384611de5565b611dca565b905082815260208101848484011115611e5457611e53611d65565b5b611e5f848285611e16565b509392505050565b600082601f830112611e7c57611e7b611d60565b5b8135611e8c848260208601611e25565b91505092915050565b600060208284031215611eab57611eaa611a6b565b5b600082013567ffffffffffffffff811115611ec957611ec8611a70565b5b611ed584828501611e67565b91505092915050565b600060208284031215611ef457611ef3611a6b565b5b6000611f0284828501611cb8565b91505092915050565b611f1481611c3e565b82525050565b6000602082019050611f2f6000830184611f0b565b92915050565b611f3e81611afa565b8114611f4957600080fd5b50565b600081359050611f5b81611f35565b92915050565b60008060408385031215611f7857611f77611a6b565b5b6000611f8685828601611cb8565b9250506020611f9785828601611f4c565b9150509250929050565b600067ffffffffffffffff821115611fbc57611fbb611d6a565b5b611fc582611b76565b9050602081019050919050565b6000611fe5611fe084611fa1565b611dca565b90508281526020810184848401111561200157612000611d65565b5b61200c848285611e16565b509392505050565b600082601f83011261202957612028611d60565b5b8135612039848260208601611fd2565b91505092915050565b6000806000806080858703121561205c5761205b611a6b565b5b600061206a87828801611cb8565b945050602061207b87828801611cb8565b935050604061208c87828801611c5f565b925050606085013567ffffffffffffffff8111156120ad576120ac611a70565b5b6120b987828801612014565b91505092959194509250565b600080604083850312156120dc576120db611a6b565b5b60006120ea85828601611cb8565b92505060206120fb85828601611cb8565b9150509250929050565b7f4e487b7100000000000000000000000000000000000000000000000000000000600052602260045260246000fd5b6000600282049050600182168061214c57607f821691505b60208210810361215f5761215e612105565b5b50919050565b600060608201905061217a6000830186611c14565b6121876020830185611f0b565b6121946040830184611c14565b949350505050565b7f4e6f7420746865206d696e746572000000000000000000000000000000000000600082015250565b60006121d2600e83611b3b565b91506121dd8261219c565b602082019050919050565b60006020820190508181036000830152612201816121c5565b9050919050565b60008190508160005260206000209050919050565b60006020601f8301049050919050565b600082821b905092915050565b60006008830261226a7fffffffffffffffffffffffffffffffffffffffffffffffffffffffffffffffff8261222d565b612274868361222d565b95508019841693508086168417925050509392505050565b6000819050919050565b60006122b16122ac6122a784611c3e565b61228c565b611c3e565b9050919050565b6000819050919050565b6122cb83612296565b6122df6122d7826122b8565b84845461223a565b825550505050565b600090565b6122f46122e7565b6122ff8184846122c2565b505050565b5b81811015612323576123186000826122ec565b600181019050612305565b5050565b601f8211156123685761233981612208565b6123428461221d565b81016020851015612351578190505b61236561235d8561221d565b830182612304565b50505b505050565b600082821c905092915050565b600061238b6000198460080261236d565b1980831691505092915050565b60006123a4838361237a565b9150826002028217905092915050565b6123bd82611b30565b67ffffffffffffffff8111156123d6576123d5611d6a565b5b6123e08254612134565b6123eb828285612327565b600060209050601f83116001811461241e576000841561240c578287015190505b6124168582612398565b86555061247e565b601f19841661242c86612208565b60005b828110156124545784890151825560018201915060208501945060208101905061242f565b86831015612471578489015161246d601f89168261237a565b8355505b6001600288020188555050505b505050505050565b600081905092915050565b600061249c82611b30565b6124a68185612486565b93506124b6818560208601611b4c565b80840191505092915050565b60006124ce8285612491565b91506124da8284612491565b91508190509392505050565b600081519050919050565b600082825260208201905092915050565b600061250d826124e6565b61251781856124f1565b9350612527818560208601611b4c565b61253081611b76565b840191505092915050565b60006080820190506125506000830187611c14565b61255d6020830186611c14565b61256a6040830185611f0b565b818103606083015261257c8184612502565b905095945050505050565b60008151905061259681611aa1565b92915050565b6000602082840312156125b2576125b1611a6b565b5b60006125c084828501612587565b91505092915050565b7f4e487b7100000000000000000000000000000000000000000000000000000000600052601260045260246000fd5b600060408201905061260d6000830185611c14565b61261a6020830184611f0b565b939250505056fea26469706673582212202fdbce36dff50fd36d5c32d1bc10220e5eda66e5d2abd406fb0a87acb870b94864736f6c63430008140033",
  "linkReferences": {},
  "deployedLinkReferences": {}
}